:100000000C940F010C943B010C943B010C943B01AC
:100010000C943B010C943B010C943B010C943B0170
:100020000C943B010C943B010C943B010C943B0160
:100030000C943B010C943B010C943B010C943B0150
:100040000C942A040C943B010C943B010C943B014E
:100050000C94DA010C943B010C943B010C94CC06FB
:100060000C943B010C94CD080C94AD090C943B010D
:100070000C943B010C943B010C943B010C942A041E
:100080000C943B010C943B010C943B010C94DA0161
:100090000C9405090C94EC090C943B010C943B0165
:1000A0000C943B010C942A040C943B010C943B01EE
:1000B0000C943B010C94DA010C942A040C943B013F
:1000C0000C943B010C943B010C94DA010C943D0917
:1000D0000C942B0A0C943B010C9475090C946A0A3D
:1000E0000C943B0100002100240027002A002D0071
:1000F0003000330001010000040107010A01000083
:100100002200250028002B002E00310034000201BF
:100110000000050108010B0100002000230026005B
:1001200029002C002F00320000010000030106010D
:10013000090105050505070508080808020202026D
:100140000A0A080804040404010101010101010173
:100150000303030303030303040707070C0C0C0C3E
:100160000C0C0C0C02020202060606060606060627
:100170000B0B0B0B0B0B0B0B0102102020080810B4
:100180002040102040800201020108040201010207
:1001900004081020408080402010080402018004E0
:1001A000020180402010080402010804020101023B
:1001B0000408102040800102040810204080000044
:1001C000090A02080B0C0D070603040100000000D9
:1001D000000000000000000000000000000000001F
:1001E0000000000000000000000011100F000000DF
:1001F00000000000000000000000000000000000FF
:10020000000000007C3C3E5E2B3D3F2F5B5D3B2CA5
:100210002A225C003D01A402D40BB40E9D021124DD
:100220001FBECFEFD1E2DEBFCDBF00E00CBF12E0BA
:10023000A0E0B2E0ECE6F7E400E00BBF02C00790FC
:100240000D92A63CB107D9F71AE0A6ECB2E001C0C6
:100250001D92A430B107E1F712E0CCE1D2E004C076
:100260002297FE010E94A523C431D107C9F70E943D
:100270005C010C94F6220C9400001092CB021092B8
:10028000CC021092CF021092D102089560ED77E077
:1002900080E090E00E9422078BE08093D30283ED00
:1002A00092E060E072E00E94C50684E297E069E0B7
:1002B00072E00E94530D0895EF920F930E948507FC
:1002C00080EA97E065E04FEF2FEF0FEF0E942B11D0
:1002D000882331F484E297E066E172E00E94530DD6
:1002E00084E297E06EE172E00E94530D84E297E0B1
:1002F00062E272E00E94500D86EC92E061E045E01F
:100300002FEF0FEFEE24EA940E941914882339F49A
:1003100084E297E066E172E00E94530DFFCF84E231
:1003200097E06EE172E00E94530D84E297E040E8AE
:1003300055E260E070E00E94A90A81E897E040E899
:1003400055E260E070E00E94A90A84E297E06EE363
:1003500072E00E94530D81E897E00E94600BBC019F
:100360002FEF8F3F9207A9F08A30910519F08D3059
:10037000910559F40E94460184E297E06AE00E94E8
:100380009B0B84E297E06DE002C084E297E00E945C
:100390009B0B84E297E00E94600B8F5F9F4FD9F226
:1003A00084E297E00E94600B682F81E897E00E944A
:1003B0009B0BD1CF1F920F920FB60F920BB60F92DD
:1003C00011242F933F934F935F936F937F938F935A
:1003D0009F93AF93BF93EF93FF938091970286FF14
:1003E0000DC08091DF0490E0882309F491E09093A0
:1003F000DF048091DF04882309F077C08091DD0459
:10040000E091DE04682F772767FD709587FF28C08D
:10041000F0E0EE0FFF1FDF01AB58BD4F4D915C9137
:10042000E357FD4FA081B1812091DD023091DC04C2
:10043000822F90E0F82FEE27880F991FE81BF90B09
:10044000E30FF11DE052FD4F808190E0222733271A
:10045000261B370B02C0959587952A95E2F723C096
:10046000F0E0EE0FFF1FDF01AB58BD4F4D915C91E7
:10047000E357FD4FA081B1812091DD023091DC0472
:10048000822F90E0F82FEE27880F991FE81BF90BB9
:10049000E30FF11DE052FD4F808190E002C0880F14
:1004A000991F6A95E2F711969C938E938D919C917A
:1004B000FA01918380838091DC048F5F8093DC0458
:1004C0008091DC048E3F88F01092DC04E091DD0224
:1004D000F0E0EB56FD4F81E080838091DD0290E0FB
:1004E000882309F491E09093DD02FF91EF91BF9191
:1004F000AF919F918F917F916F915F914F913F91BC
:100500002F910F900BBE0F900FBE0F901F9018955C
:100510008130910541F46F5F7F4F71F480EE94E07C
:100520000E94660D0895892B39F46F5F7F4F21F487
:1005300080EE94E00E94790D089580E090E06FEFE6
:100540007FEF0E948802089581E090E06FEF7FEFD7
:100550000E948802089580EE94E00E94C90D8823CD
:1005600011F081E008950895EF92FF920F931F9389
:10057000CF93DF938C011092DE02E091DE04F0E075
:10058000EE0FFF1FE35AFD4F0190F081E02D8081B7
:100590008E7D8083C8010E94AB02882321F080EE0B
:1005A00094E00E94D60D8091DE04A82FB0E0AA0F3F
:1005B000BB1FFD01EB59FD4F0190F081E02D8081C3
:1005C00087FF5FC0AB58BD4FED91FC916081718199
:1005D000DB01C0E0D0E04EC0E091DE04F0E0EE0FC1
:1005E000FF1FE357FD4F0190F081E02D77FF03C01F
:1005F00080E090E005C0CB012617370708F4C90159
:1006000091838083E091DE04F0E0EE0FFF1FEB5852
:10061000FD4F40815181B7FF03C080E090E008C0EA
:10062000F80125813681CD012A173B0708F4C9015D
:10063000FA0191838083E091DE04F0E0EE0FFF1F6A
:10064000EB57FD4FE080F180F80145815681425320
:10065000504020E030E0F7018081918184179507B8
:10066000D0F32F5F3F4F2A303105A9F7219611971C
:100670006F5F7F4FF80125813681C217D30708F4D9
:10068000ABCF80919702806280939702E091DE0465
:10069000F0E0EE0FFF1FDF01AB59BD4F0D90BC9195
:1006A000A02DE359FD4F0190F081E02D1082808153
:1006B0008C93DF91CF911F910F91FF90EF90089550
:1006C0001092DE02E091DE04F0E0EE0FFF1FE35A2D
:1006D000FD4F0190F081E02D20812E7D20830E942E
:1006E000AB02882321F080EE94E00E94D60D08959D
:1006F000CF92DF92EF92FF920F931F93DF93CF93EE
:10070000CDB7DEB76F970FB6F894DEBF0FBECDBF83
:100710007C01AB01CE01059660EA77E021E00E9402
:10072000F90F8F8198859093E3048093E204898583
:100730009A85AB85BC858093E4049093E504A093EF
:10074000E604B093E7048D859E85AF85B8898093D4
:10075000E8049093E904A093EA04B093EB04ACEEB0
:10076000B4E0FE0171968DE001900D928150E1F7A9
:100770008E8D9F8D9093FA048093F90435E0C32EFB
:10078000D12CCC0EDD1EC6010E94790DC7010E943E
:10079000AB02882309F44FC080EE94E048E050E0BB
:1007A00060E070E00E94E80D87E5898381E48A8338
:1007B00086E58B8385E48C838E010F5F1F4F80EE6F
:1007C00094E00E94070EF8012081332727FD309521
:1007D0008217930729F40F5F1F4F0C151D0579F73A
:1007E00080EE94E048E150E060E070E00E94E80DA7
:1007F00080EE94E00E94070EF7019483838380EEDD
:1008000094E00E94070E382F20E0F7018381948145
:10081000822B932B9483838380EE94E04CE250E010
:1008200060E070E00E94E80D8EEF90E09093DC02B3
:100830008093DB0281E06F960FB6F894DEBF0FBEA7
:10084000CDBFCF91DF911F910F91FF90EF90DF907F
:10085000CF9008951F920F920FB60F920BB60F9282
:1008600011242F933F934F935F936F937F938F93B5
:100870009F93AF93BF93EF93FF938091DD02E0E0EE
:10088000F0E0882311F4E1E0F0E0EB56FD4F8081C9
:10089000882309F46DC08091DD0290E0882309F47B
:1008A00091E09093DF02E091DE04F0E0EE0FFF1F95
:1008B000E35AFD4F0190F081E02D80818F7D808390
:1008C000789480EE94E00E94920D2091DB023091AA
:1008D000DC022817390738F18091970283FF09C09D
:1008E00080EE94E04CE250E060E070E00E94E80DA1
:1008F00032C0E091DE04F0E0EE0FFF1FE35AFD4F3F
:100900000190F081E02D80818E7D808380EE94E0E7
:100910000E94C90D882321F080EE94E00E94D60D3C
:100920001092DE0225C02091DF02822F90E0782F06
:100930006627880F991F681B790B60527D4F80EEE8
:1009400094E04EEF50E00E94FA0DE091DF02F0E0FB
:10095000EB56FD4F1082E091DE04F0E0EE0FFF1F3A
:10096000E35AFD4F0190F081E02D80818062808309
:10097000FF91EF91BF91AF919F918F917F916F9177
:100980005F914F913F912F910F900BBE0F900FBE33
:100990000F901F9018950F931F938C010E94B40223
:1009A000F801808161E00E94E707F80100810630CC
:1009B00031F00E3241F0053041F481E001C082E0B7
:1009C0008093DE0404C083E0FBCF1092DE048DB57B
:1009D00081608DBD8CB58C7F8CBD1F910F9108956A
:1009E000CF92DF92EF92FF920F931F93CF93DF93FB
:1009F0006C01EB0179018A01DC019C9117968C91C5
:100A0000981731F0C6010E94CB04F60180818783DC
:100A1000C6010E946003C601BE010E9478038823BC
:100A200009F4AAC1E114F10401051105D9F0D601B8
:100A300013962D913C91149740E050E0C801B70106
:100A40000E9420237B018C0180EE94E00E94B60D71
:100A5000AB01BC014E0D5F1D601F711F80EE94E065
:100A60000E94E80D81E08093DE02409197024F776B
:100A700040939702F601838194818B5F9F4A38F0FF
:100A800080EC9DE5D60114969C938E931397F60106
:100A90002381348146FF16C040E050E060E075E3FA
:100AA0008CE090E00E948823CA01B9012AE030E07E
:100AB00040E050E00E942023D60116967C936E936E
:100AC000159713C040E050E060E07AE688E190E0DE
:100AD0000E948823CA01B9012AE030E040E050E0DA
:100AE0000E942023F6017683658380EE94E00E94C5
:100AF000070E7C0180EE94E00E94250E8C0180910F
:100B0000970285FF66C0E091DE04F0E0EE0FFF1F64
:100B1000EB58FD4F0190F081E02D11821082E091A1
:100B2000DE04F0E0EE0FFF1FE357FD4F0190F08170
:100B3000E02DD60115968D919C9116979183808317
:100B4000E091DE04F0E0EE0FFF1FE358FD4F01904F
:100B5000F081E02D15968D919C911697918380835D
:100B6000E091DE04F0E0EE0FFF1FEB59FD4F019026
:100B7000F081E02D82EB8083E091DE04F0E0EE0F67
:100B8000FF1FE359FD4F0190F081E02D89E1808343
:100B9000C0E0D0E018C0E091DE04F0E0EE0FFF1FEF
:100BA000E357FD4F0190F081E02DC9018C1B9D0B97
:100BB0002817390708F4C9019183808386E990E0FA
:100BC0000E947B072196F60125813681C217D30743
:100BD00010F3809197028F7D809397028091DD04BE
:100BE000E091DE04482F552747FD5095181684F4F0
:100BF000F0E0EE0FFF1FEB58FD4F0190F081E02D6C
:100C00002081318102C0369527954A95E2F713C0BD
:100C1000F0E0EE0FFF1FEB58FD4F0190F081E02D4B
:100C20002081318188279927841B950B02C0220FD0
:100C3000331F8A95E2F7C8018E0D9F1D62E070E0B8
:100C40000E94532370E02617370758F540E050E024
:100C5000C90101968217930728F09C01681779074C
:100C600008F49B01FA01E052FD4F20834F5F5F4F74
:100C70004E3F510569F740E050E0C90101968217E7
:100C8000930728F09C016817790708F49B01FA0183
:100C9000E252FC4F20834F5F5F4F4E3F510569F793
:100CA0002CC040E050E0C90101978617970710F467
:100CB0009B0104C08217930708F49C01FA01E052DB
:100CC000FD4F20834F5F5F4F4E3F510561F740E07E
:100CD00050E0C90101978617970710F49B0104C0E3
:100CE0008217930708F49C01FA01E252FC4F20831B
:100CF0004F5F5F4F4E3F510561F71092DD0210923A
:100D00009502109296021092DC04F894E091DE04B1
:100D1000F0E0EE0FFF1FE358FD4F0190F081E02D52
:100D2000D60115968D919C91169791838083E091C1
:100D3000DE04F0E0EE0FFF1FEB59FD4F0190F08154
:100D4000E02D82EB8083E091DE04F0E0EE0FFF1FE8
:100D5000E359FD4F0190F081E02D89E18083E0911E
:100D6000DE04F0E0EE0FFF1FE35AFD4F0190F0812B
:100D7000E02D81E280837894DF91CF911F910F91D4
:100D8000FF90EF90DF90CF90089520E030E040E0BA
:100D900050E00E94F00408951F920F920FB60F9238
:100DA00011242F933F938F939F93AF93BF93809181
:100DB000FF0490910005A0910105B09102053091CA
:100DC00003050196A11DB11D232F2D5F2D3720F0A6
:100DD0002D570196A11DB11D209303058093FF049B
:100DE00090930005A0930105B09302058091FB0448
:100DF0009091FC04A091FD04B091FE040196A11D08
:100E0000B11D8093FB049093FC04A093FD04B09368
:100E1000FE04BF91AF919F918F913F912F910F90C1
:100E20000FBE0F901F9018958FB7F8942091FF0474
:100E30003091000540910105509102058FBFB90125
:100E4000CA0108959B01AC017FB7F8948091FB041F
:100E50009091FC04A091FD04B091FE0466B5A89B9E
:100E600005C06F3F19F00196A11DB11D7FBFBA2FBC
:100E7000A92F982F8827860F911DA11DB11D62E013
:100E8000880F991FAA1FBB1F6A95D1F7BC012DC0FF
:100E9000FFB7F8948091FB049091FC04A091FD04AD
:100EA000B091FE04E6B5A89B05C0EF3F19F001968E
:100EB000A11DB11DFFBFBA2FA92F982F88278E0F14
:100EC000911DA11DB11DE2E0880F991FAA1FBB1F34
:100ED000EA95D1F7861B970B885E9340C8F22150A4
:100EE00030404040504068517C4F2115310541054C
:100EF000510571F60895019739F0880F991F880FF1
:100F0000991F02970197F1F70895789484B582604C
:100F100084BD84B5816084BD85B5826085BD85B59D
:100F2000816085BDEEE6F0E0808181608083E1E84C
:100F3000F0E0108280818260808380818160808384
:100F4000E0E8F0E0808181608083E1EBF0E0808187
:100F500084608083E0EBF0E0808181608083E1E960
:100F6000F0E0808182608083808181608083E0E91D
:100F7000F0E0808181608083E1EAF0E0808182603E
:100F80008083808181608083E0EAF0E080818160FD
:100F90008083E1E2F1E080818260808380818160F2
:100FA0008083E0E2F1E0808181608083EAE7F0E025
:100FB0008081846080838081826080838081816081
:100FC00080838081806880831092C1000895CF93D0
:100FD000DF93482F50E0CA0188589E4FFC0134919E
:100FE0004E5C5E4FFA018491882369F190E0880F8E
:100FF000991FFC01EC51FF4FA591B491FC01E25007
:10100000FF4FC591D491662351F42FB7F8948C917A
:10101000932F909589238C93888189230BC062300C
:1010200061F42FB7F8948C91932F909589238C932A
:101030008881832B88832FBF06C09FB7F8948C913B
:10104000832B8C939FBFDF91CF910895893009F452
:1010500049C08A30A0F4843051F1853040F48230A8
:1010600079F1833000F5813009F063C026C0873004
:1010700079F1883098F5863009F05BC025C08D3055
:1010800009F442C08E3028F48B30B1F18C30C0F5B9
:101090002DC0803109F442C0813109F445C08F3040
:1010A00009F047C037C0809180008F7703C08091DE
:1010B00080008F7D80938000089584B58F7702C073
:1010C00084B58F7D84BD08958091B0008F7703C073
:1010D0008091B0008F7D8093B00008958091900042
:1010E0008F7707C0809190008F7D03C08091900022
:1010F000877F8093900008958091A0008F7707C02C
:101100008091A0008F7D03C08091A000877F809395
:10111000A0000895809120018F7703C08091200165
:101120008F7D80932001089580912001877F809397
:1011300020010895FF920F931F93F62E482F50E041
:10114000CA0182549E4FFC012491CA0188589E4FC7
:10115000FC0114914E5C5E4FFA0104910023C9F02A
:10116000222319F0822F0E942608E02FF0E0EE0FD4
:10117000FF1FE250FF4FA591B4919FB7F894FF2055
:1011800021F48C911095812302C08C91812B8C933A
:101190009FBF1F910F91FF9008951F920F920FB65E
:1011A0000F920BB60F9211242F933F934F938F936F
:1011B0009F93EF93FF934091C60020914405309197
:1011C00045052F5F3F4F2F733070809146059091FA
:1011D00047052817390759F0E0914405F091450576
:1011E000EC5FFA4F40833093450520934405FF910F
:1011F000EF919F918F914F913F912F910F900BBE47
:101200000F900FBE0F901F9018951F920F920FB660
:101210000F920BB60F9211242F933F934F938F93FE
:101220009F93EF93FF934091CE002091CC05309196
:10123000CD052F5F3F4F2F7330708091CE05909179
:10124000CF052817390759F0E091CC05F091CD056D
:10125000E457FA4F40833093CD052093CC05FF919E
:10126000EF919F918F914F913F912F910F900BBED6
:101270000F900FBE0F901F9018951F920F920FB6F0
:101280000F920BB60F9211242F933F934F938F938E
:101290009F93EF93FF934091D60020915406309195
:1012A00055062F5F3F4F2F733070809156069091F7
:1012B00057062817390759F0E0915406F091550662
:1012C000EC5EF94F40833093550620935406FF910E
:1012D000EF919F918F914F913F912F910F900BBE66
:1012E0000F900FBE0F901F9018951F920F920FB680
:1012F0000F920BB60F9211242F933F934F938F931E
:101300009F93EF93FF93409136012091DC0630913B
:10131000DD062F5F3F4F2F7330708091DE06909176
:10132000DF062817390759F0E091DC06F091DD0659
:10133000E456F94F40833093DD062093DC06FF919D
:10134000EF919F918F914F913F912F910F900BBEF5
:101350000F900FBE0F901F9018951F920F920FB60F
:101360000F920BB60F9211242F933F938F939F935D
:10137000EF93FF93209188053091890580918A052C
:1013800090918B052817390731F48091C1008F7D2A
:101390008093C10014C0E0918A05F0918B05E85B51
:1013A000FA4F208180918A0590918B0501968F7369
:1013B000907090938B0580938A052093C600FF91CF
:1013C000EF919F918F913F912F910F900BBE0F90B6
:1013D0000FBE0F901F9018951F920F920FB60F928D
:1013E0000BB60F9211242F933F938F939F93EF93FC
:1013F000FF93209110063091110680911206909172
:1014000013062817390731F48091C9008F7D809326
:10141000C90014C0E0911206F0911306E053FA4F90
:101420002081809112069091130601968F7390701F
:1014300090931306809312062093CE00FF91EF91B4
:101440009F918F913F912F910F900BBE0F900FBEE8
:101450000F901F9018951F920F920FB60F920BB618
:101460000F9211242F933F938F939F93EF93FF93AA
:10147000209198063091990680919A0690919B064A
:101480002817390731F48091D1008F7D8093D100E6
:1014900014C0E0919A06F0919B06E85AF94F20811A
:1014A00080919A0690919B0601968F73907090930D
:1014B0009B0680939A062093D600FF91EF919F910F
:1014C0008F913F912F910F900BBE0F900FBE0F90F9
:1014D0001F9018951F920F920FB60F920BB60F9296
:1014E00011242F933F938F939F93EF93FF9320911A
:1014F0002007309121078091220790912307281718
:10150000390731F4809131018F7D8093310114C00E
:10151000E0912207F0912307E052F94F208180915A
:1015200022079091230701968F7390709093230761
:101530008093220720933601FF91EF919F918F9125
:101540003F912F910F900BBE0F900FBE0F901F90E9
:101550001895AF92BF92DF92EF92FF920F931F9375
:10156000CF93DF93EC017A018B01DD24403081EED3
:10157000580780E0680780E0780711F0DD24D394F5
:1015800091E0A92EB12CEC89FD89DD2069F0C5011F
:101590000E8C02C0880F991F0A94E2F7808360E0E6
:1015A00079E08DE390E005C0108260E874E88EE198
:1015B00090E0A80197010E946623215030404040EE
:1015C0005040569547953795279580E1203038074C
:1015D00020F0DD2011F0DD24D6CFE889F9893083B1
:1015E000EA89FB892083EE89FF89408121E030E090
:1015F000C9010A8C02C0880F991F0A94E2F7482B90
:101600004083EE89FF894081C9010B8C02C0880F9D
:10161000991F0A94E2F7482B4083EE89FF894081A5
:10162000C9010C8C02C0880F991F0A94E2F7482B5D
:101630004083EE89FF8980810D8C02C0220F331F09
:101640000A94E2F7209528232083DF91CF911F9100
:101650000F91FF90EF90DF90BF90AF900895DC0165
:101660001C96ED91FC911D97E05CFF4F219131910B
:1016700080819181281B390B2F733070C901089527
:10168000DC011C96ED91FC911D97E05CFF4F2081E1
:101690003181E054F040DF01AE5BBF4F8D919C91F2
:1016A00011972817390719F42FEF3FEF07C08D91D5
:1016B0009C91E80FF91F8081282F30E0C90108951F
:1016C000DC011C96ED91FC911D97E05CFF4F2081A1
:1016D0003181E054F040DF01AE5BBF4F8D919C91B2
:1016E00011972817390719F42FEF3FEF10C08D918C
:1016F0009C911197E80FF91F20818D919C91119772
:1017000001968F73907011969C938E9330E0C9016F
:101710000895FC0186859785DC01A05CBF4FFC0124
:10172000EE5BFF4F2D913C9111978081918128179D
:101730003907C1F70895CF93DF93EC01EE85FF855C
:10174000E05CFF4F20813181E054F0402F5F3F4F3C
:101750002F733070DF01AE5BBF4F8D919C9111975D
:1017600028173907D1F3E05CFF4F80819181E05465
:10177000F040E80FF91F6083EE85FF85E05CFF4FC6
:1017800031832083EE89FF89208181E090E00D8CF8
:1017900002C0880F991F0A94E2F7282B208381E06A
:1017A00090E0DF91CF9108951F9310922707109238
:1017B000260728EE33E040E050E0209328073093DE
:1017C000290740932A0750932B0760EA72E0709331
:1017D00025076093240784E095E090933107809378
:1017E000300788E495E0909333078093320785ECC7
:1017F00090E0909335078093340784EC90E09093C9
:1018000037078093360780EC90E0909339078093F8
:10181000380781EC90E090933B0780933A0786EC81
:1018200090E090933D0780933C0714E010933E07AF
:10183000B3E0B0933F07A7E0A0934007F5E0F09333
:101840004107E1E0E09342071092460710924507F6
:1018500020934707309348074093490750934A071E
:1018600070934407609343078CE895E0909350078A
:1018700080934F0780ED95E0909352078093510736
:101880008DEC90E090935407809353078CEC90E09C
:10189000909356078093550788EC90E090935807F3
:1018A0008093570789EC90E090935A0780935907EB
:1018B0008EEC90E090935C0780935B0710935D073C
:1018C000B0935E07A0935F07F0936007E093610712
:1018D000109265071092640720936607309367079C
:1018E000409368075093690770936307609362079A
:1018F00084E196E090936F0780936E0788E596E009
:10190000909371078093700785ED90E09093730733
:101910008093720784ED90E090937507809374072D
:1019200080ED90E0909377078093760781ED90E0CB
:10193000909379078093780786ED90E090937B07EA
:1019400080937A0710937C07B0937D07A0937E075E
:10195000F0937F07E093800710928407109283072B
:101960002093850730938607409387075093880715
:1019700070938207609381078CE996E090938E07BD
:1019800080938D0780EE96E09093900780938F0769
:1019900085E391E0909392078093910784E391E02F
:1019A000909394078093930780E391E09093960738
:1019B0008093950781E391E0909398078093970730
:1019C00086E391E090939A078093990710939B0781
:1019D000B0939C07A0939D07F0939E07E0939F0709
:1019E0001F910895CF92DF92EF92FF920F931F9372
:1019F000CF93DF937C016B018A01C0E0D0E00FC080
:101A0000D6016D916D01D701ED91FC910190F081AE
:101A1000E02DC7011995C80FD91F015010400115BD
:101A2000110571F7CE01DF91CF911F910F91FF90BA
:101A3000EF90DF90CF900895EF92FF920F931F9356
:101A40008C01DC01ED91FC910190F081E02D6DE0C5
:101A500019957C01D801ED91FC910190F081E02D68
:101A6000C8016AE019959C012E0D3F1DC9011F9107
:101A70000F91FF90EF900895CF93DF93DB010D90CE
:101A80000020E9F71197A61BB70BEC01E881F9815B
:101A90000280F381E02DAD011995DF91CF9108957A
:101AA0000E943C0D0895EF92FF920F931F937C01CB
:101AB0000E943C0D8C01C7010E941C0D080F191FCC
:101AC000C8011F910F91FF90EF900895FC011382C0
:101AD000128288EE93E0A0E0B0E084839583A68331
:101AE000B78380EB92E091838083128E118E1486EF
:101AF0000895FC0180EB92E0918380830895FC01BE
:101B0000A18DB28D109719F420E030E009C0ED915D
:101B1000FC9111970190F081E02DCD0119959C0168
:101B2000C9010895DC015996ED91FC915A973097BF
:101B300019F420E030E018C0248935894689578996
:101B400083859485A585B685281B390B4A0B5B0BCD
:101B50002030B0E83B07B0E04B07B0E05B0720F077
:101B60002FEF3FE740E050E0C9010895DC015996AE
:101B7000ED91FC915A97309729F42FEF3FEF4FEFFB
:101B80005FEF04C02385348545855685B901CA01B8
:101B90000895DC015996ED91FC915A97309711F414
:101BA00080E008958681811181E00895CF93DF93CD
:101BB000EC01898D9A8D009741F00E94A116898DC4
:101BC0009A8D0E945E221A8E198EDF91CF91089510
:101BD000FC01818D928D009711F480E008950E94A0
:101BE00091150895FC01818D928D009711F00E944E
:101BF00057160895FC01818D928D009719F420E00D
:101C000030E003C00E9478179C01C9010895DF935A
:101C1000CF930F92CDB7DEB7FC01818D928D0097E7
:101C200049F0BE016F5F7F4F41E050E00E9478179E
:101C3000019719F02FEF3FEF03C08981282F30E083
:101C4000C9010F90CF91DF910895EF92FF920F930A
:101C50001F93DF93CF930F92CDB7DEB77C01DC01EA
:101C600059968D919C915A97009719F400E010E0D5
:101C70001FC0BE016F5F7F4F41E050E00E947817A8
:101C8000019719F00FEF1FEF13C08981082F10E0A3
:101C9000D7015996ED91FC915A97438554856585F6
:101CA00076854150504060407040CF010E949115B0
:101CB000C8010F90CF91DF911F910F91FF90EF908E
:101CC0000895FC01818D928D009719F420E030E099
:101CD00003C00E94BD199C01C9010895FC01818DBA
:101CE000928D009719F420E030E003C00E94751B2C
:101CF0009C01C9010895EF92FF920F931F93CF9318
:101D0000DF93EC01F62EE72E8A011B821A8288EE01
:101D100093E0A0E0B0E08C839D83AE83BF8380EB33
:101D200092E0998388838EE190E00E94C1219A8F8E
:101D3000898F009791F0DC018F2D9E2D9C01F90178
:101D40008EE101900D928150E1F7CE010C96B80121
:101D50004CE050E00E941123188EDF91CF911F912B
:101D60000F91FF90EF90089582E090E0A0E0B0E046
:101D70008093A0079093A107A093A207B093A30715
:101D80001092B7071092C1071092C00782EC92E040
:101D90009093BF078093BE071092C4071092E1078B
:101DA0001092E2071092E5071092E70708952F922C
:101DB0003F924F925F926F927F928F929F92AF92DB
:101DC000BF92CF92DF92EF92FF920F931F93DF9318
:101DD000CF93CDB7DEB7C954D0400FB6F894DEBF6D
:101DE0000FBECDBF582E492EFB013A01190180A12B
:101DF00091A1998B888B22EC32E03F872E8782A1BC
:101E00008A8B83A18B8B84A18C8B85A196A1A7A1A2
:101E1000B0A58D8B9E8BAF8BB88F81A592A5A3A506
:101E2000B4A5898F9A8FAB8FBC8F85A596A5A7A5E2
:101E3000B0A98D8F9E8FAF8FB8A381A989A382A9E6
:101E400093A9A4A9B5A98AA39BA3ACA3BDA386A962
:101E500097A9A0ADB1AD8EA39FA3A8A7B9A782AD46
:101E600093AD9BA78AA71FA61EA63DA72CA71AAABB
:101E70007A018E01025F1F4F3CE2A32EB12CAC0E03
:101E8000BD1E4E010894811C911C35C0D7018C9158
:101E90008F3221F40894E11CF11C2DC0422F4E1901
:101EA0004D3008F04CE0C42EDD24C401B701A6017A
:101EB0000E941123F401EC0DFD1D1082C5010E944A
:101EC000A116C501B801A40121E00E94F51B8823D9
:101ED00051F4E52DF42D1382128282EC92E091836D
:101EE000808316826AC0EC0CFD1CC8010E94A116FA
:101EF000C50158018C01C7016FE270E00E94062302
:101F00009C01009719F6E618F708F101F182E082CA
:101F1000E52DF42DD80112968D919C911397938302
:101F2000828382EC92E09183808314968C91149743
:101F3000848315968C911597858316968C911697A8
:101F4000868317962D913D914D915C911A97278329
:101F50003087418752871B962D913D914D915C9121
:101F60001E9723873487458756871F962D913D916D
:101F70004D915C9152972787308B418B528B5396B2
:101F80008C915397838B54962D913D914D915C91FB
:101F90005797248B358B468B578B58962D913D91B7
:101FA0004D915C915B97208F318F428F538F5C9660
:101FB0008D919C915D97958F848F852D942DC75B16
:101FC000DF4F0FB6F894DEBF0FBECDBFCF91DF91CC
:101FD0001F910F91FF90EF90DF90CF90BF90AF9047
:101FE0009F908F907F906F905F904F903F902F9039
:101FF00008959F92AF92BF92CF92DF92EF92FF929D
:102000000F931F93DF93CF93CDB7DEB7CA57D0405E
:102010000FB6F894DEBF0FBECDBFC82E992E8A0131
:10202000D22E43E0A42EB12CAC0EBD1EC501A801DA
:102030009E012F5F3F4F0E94D70EE980FA80E00E8D
:10204000F11EF701808142EC52E02985882309F0D6
:1020500041C08D819E819CA38BA35AA349A38F81EC
:102060008DA388858EA32FA38A859B85AC85BD858E
:1020700088A799A7AAA7BBA78E859F85A889B98994
:102080008CA79DA7AEA7BFA78A899B89AC89BD896C
:1020900088AB99ABAAABBBAB8E898CAB8F89988D83
:1020A000A98DBA8D8DAB9EABAFABB8AF8B8D9C8D30
:1020B000AD8DBE8D89AF9AAFABAFBCAF8F8D98A100
:1020C0009EAF8DAF8C2D992DBE016F5D7F4F45E585
:1020D00052E0AAC0FE01EF5BFF4F11821082DE01C9
:1020E000DF9611965C934E93FE01EB5BFF4F1082DF
:1020F0002223A9F02250223050F4CD016EEB77E07C
:10210000A7012D2D0E94F51B882389F408C0CD015D
:10211000B501A7012D2D0E94F51B882329F48C2DD4
:10212000992D0E94660D82C0C5010E94A116F6E09D
:10213000DF2259F0FE01ED5AFF4F4081518162814B
:102140007381CE01CF960E9491159E01235A3F4F75
:10215000FE01EF5BFF4F80819181F90193838283C0
:1021600082EC92E091838083FE01ED5BFF4F8081E2
:10217000F9018483FE01EC5BFF4F8081F9018583C7
:10218000FE01EB5BFF4F8081F9018683FE01EA5B74
:10219000FF4F80819181A281B381F901878390876C
:1021A000A187B287FE01E65BFF4F80819181A2810A
:1021B000B381F90183879487A587B687FE01E25B27
:1021C000FF4F80819181A281B381F9018787908B34
:1021D000A18BB28BFE01EE5AFF4F8081F901838BF8
:1021E000FE01ED5AFF4F80819181A281B381F901F7
:1021F000848B958BA68BB78BFE01E95AFF4F8081AC
:102200009181A281B381F901808F918FA28FB38FC9
:10221000FE01E55AFF4F80819181F901958F848FEE
:102220008C2D992DB901A7010E947B0E8C2D992D23
:10223000C658DF4F0FB6F894DEBF0FBECDBFCF91AB
:10224000DF911F910F91FF90EF90DF90CF90BF90A3
:10225000AF909F900895CF92DF92EF920F93CF931C
:10226000DF93EC01362F542F722FE02E6CE3C62E35
:10227000D12CC80ED91EC60161E0432F252F072F90
:102280000E9419148823D1F00C2FED2ECE01B60137
:1022900041E00E94961D882339F4CE01B60140E04A
:1022A0000E94961D882351F0CE014E96602F7E2D00
:1022B0000E94D718882319F081E001C080E0DF91E7
:1022C000CF910F91EF90DF90CF900895382F8091AC
:1022D000EB078F3F29F43EBD0DB407FEFDCF0895F7
:1022E000F894A091EC07B091ED075091EE07252FDF
:1022F0002095E091EF07F091F0074091F107642FEE
:10230000609590E08C9182238C9337FF03C080818D
:10231000842B02C08081862380838C91852B8C93B3
:102320009F5F983011F0330FEDCF000000000000E8
:1023300000008C9128232C93789408958091EB07CA
:102340008F3F21F40E9466112EB530C0F894E091C1
:10235000EF07F091F00780819091F107892B80833E
:10236000E091EC07F091ED076091EE07A091F20784
:10237000B091F3078091F407482F50E0762F7095C5
:1023800020E030E08081862B8083220F8C9190E0CA
:1023900084239523892B09F0216080818723808302
:1023A000000000003F5F383069F77894822F08956D
:1023B000FC01673020F086E1858380E00895262FB8
:1023C00030E060FD02C0663019F48DB58E7F02C02A
:1023D0008DB581608DBD8CB58C7F8CBD4CB522FDDB
:1023E00002C090E001C092E036952795822F81705F
:1023F000842B892B8CBD81E008950F931F93CF937D
:10240000DF938B010E941407EB010E949E118F3F06
:1024100011F481E008C00E9414076C1B7D0B60174B
:10242000710798F380E0DF91CF911F910F9108958C
:10243000FC01848160E00E949A080895FC01848177
:1024400061E00E949A080895CF92DF92EF92FF9286
:102450000F931F93CF93DF937C016A01FC01848566
:10246000882319F40FEF1FEF30C000E010E040E0C8
:1024700050E0212F332727FD3A95F601E40FF51F91
:10248000808190E0282739273070C901F4E09595C4
:102490008795FA95E1F782279327102F00270827C1
:1024A00019279C01322F22273295307F02271327CC
:1024B00025E0880F991F2A95E1F7082719274F5F14
:1024C0005F4FF2E040305F07A1F6862F0E94661151
:1024D000C0E0D0E0F601EC0FFD1F80810E94661184
:1024E000219682E0C030D807A9F7812F992787FD70
:1024F0009A950E946611802F0E9466110E949E117B
:10250000F70182878F71853011F481E007C081E186
:10251000F7018583C7010E941E1280E0DF91CF91F1
:102520001F910F91FF90EF90DF90CF9008950F9340
:102530001F93CF93DF93EC010E9414078B0109C016
:102540000E941407601B710B6D52714010F08FE0F8
:102550000AC00E949E118A878F3F91F38E3F11F42B
:1025600081E006C08DE08D83CE010E941E1280E0C6
:10257000DF91CF911F910F910895CF93DF93EC01DD
:102580008E81882319F40FC00E949E118F81988537
:10259000019698878F83019782509240A8F3CE01CD
:1025A0000E941E121E82DF91CF910895DF92EF925A
:1025B000FF920F931F93CF93DF93EC01D62E7901F7
:1025C0008A010E94BD12CE010E941812CE016CE257
:1025D00071E00E94FD118D2D80640E946611812F93
:1025E0009927AA27BB270E946611C801AA27BB27E3
:1025F0000E946611BB27A12F902F8F2D0E9466117C
:102600008E2D0E946611DD2011F485E906C088E058
:10261000D81611F487E801C08FEF0E94661110E010
:102620000E949E118A8787FF02C01150C9F7DF916F
:10263000CF911F910F91FF90EF90DF900895CF926F
:10264000DF92EF92FF920F931F93CF93DF93EC01F2
:102650007A018B016901411551056105710511F47C
:1026600082E133C08B85833039F039E0EE0CFF1CFA
:10267000001F111F3A95D1F7CE0168E1A80197011B
:102680000E94D612882311F084E01FC0CE016EEFA5
:10269000A6010E9424128823C9F0CE0168E572E0E9
:1026A0000E94FD11882311F485E10FC0CE016DE079
:1026B00020E030E040E050E00E94D612882321F470
:1026C0000E949E11882379F084E18D83CE010E94BF
:1026D0001E1280E0DF91CF911F910F91FF90EF903C
:1026E000DF90CF900895CE010E941E1281E0F2CFBC
:1026F0006F927F928F929F92AF92BF92CF92DF9212
:10270000EF92FF920F931F93CF93DF93EC015A0147
:102710006B01390148010115110509F46AC0C801AE
:10272000820F931F8150924008F05EC08E818823F3
:1027300071F088819981AA81BB81481759076A077E
:102740007B0729F48F8198856816790650F5A88251
:10275000B982CA82DB828B85833039F0E9E0AA0C2A
:10276000BB1CCC1CDD1CEA95D1F7CE0161E1A601B2
:1027700095010E94D612882319F083E08D8334C01E
:10278000CE010E949712882379F118861F8281E07A
:102790008E8307C00E949E118F819885019698872D
:1027A0008F838F81988586159705A0F300E010E050
:1027B00008C00E949E11F701E00FF11F80830F5F98
:1027C0001F4F08151905A8F32F813885280D391DCD
:1027D00038872F838985882319F02050324048F0AC
:1027E000CE010E94BD1205C0CE010E941E1280E0E3
:1027F00001C081E0DF91CF911F910F91FF90EF9089
:10280000DF90CF90BF90AF909F908F907F906F9010
:102810000895EF92FF920F931F93790120E030E02B
:1028200000E012E00E9478131F910F91FF90EF904B
:102830000895BF92CF92DF92EF92FF920F931F9372
:10284000CF93DF93EC01B62E1E2D1B8619861E82B8
:102850001D821C864C832093F5070093F607E092B7
:10286000EB070E9414076B018C8161E00E94E7076F
:10287000CE010E941E121F3F09F461C08091F6072D
:1028800060E00E94E7078091F50761E00E94E7079A
:102890008091EB0761E00E94E707E091EB072E2FA4
:1028A000332727FD3095F901EE5CFE4FE491F0E00F
:1028B000EE0FFF1FE250FF4F859194919093ED072B
:1028C0008093EC0728583E4FF90184918093EE07DE
:1028D000E091F5072E2F332727FD3095F901EE5CA7
:1028E000FE4FE491F0E0EE0FFF1FE250FF4F8591A5
:1028F00094919093F0078093EF0728583E4FF90189
:1029000084918093F107E091F6072E2F332727FD5E
:102910003095F901EE5CFE4FE491F0E0EE0FFF1F01
:10292000E85EFE4F859194919093F3078093F207B0
:1029300028583E4FF90184918093F40719C082E32F
:1029400060E00E94E70783E361E00E94E70784E319
:1029500061E00E94E70785E361E00E94E70785E305
:1029600061E00E949A0883E58CBD8DB58E7F8DBD98
:1029700010E08FEF0E9466111F5F1A30D1F7CE0171
:102980000E94181209C00E9414076C197D09615D2C
:10299000774010F081E05AC0CE0160E020E030E0E6
:1029A00040E050E00E94D612182F8A87813059F7F4
:1029B000CE0168E02AEA31E040E050E00E94D61201
:1029C00082FF02C01B870DC010E00E949E118A8703
:1029D0001F5F1430D1F78A3A11F082E037C082E0ED
:1029E0008B878B85823021F0EE24FF2487010FC076
:1029F000E12CF12C012DB0E41B2F09C00E9414071B
:102A00006C197D09615D774010F088E01FC0CE0130
:102A100067E320E030E040E050E00E94D612CE01B3
:102A200069E2A80197010E94D6128A87882331F7AC
:102A30008B858230F1F4CE016AE320E030E040E0A3
:102A400050E00E94D612882339F086E08D83CE01B3
:102A50000E941E1280E01AC00E949E11807C803C61
:102A600011F483E08B870E949E110E949E110E94A8
:102A70009E11CE010E941E128091EB078F3F11F034
:102A800081E004C0CE016B2D0E94D811DF91CF915F
:102A90001F910F91FF90EF90DF90CF90BF9008951E
:102AA000CF93DF93EC01DB0180E090E020E2FD01B9
:102AB000E80FF91F208301968B309105C1F757E08D
:102AC00040E021C02E3219F084E092E007C05A3075
:102AD00019F15AE048E017C03217F1F0FC010196F5
:102AE00034913323C9F75417B8F02132A8F02F37A7
:102AF00098F4822F81568A3108F42052FD01E40FA8
:102B0000F11D20834F5F29912223E1F690E08C9103
:102B1000803219F091E001C090E0892FDF91CF91D0
:102B200008956F927F928F929F92AF92BF92CF92B1
:102B3000DF92EF92FF920F931F93CF93DF93EC01FD
:102B40007A018B012E81222309F480C08C899D8912
:102B5000AE89BF8984179507A607B70708F476C022
:102B600085C0E114F1040105110549F41F8218869E
:102B700019861A861B861C861D861E8665C02B85B7
:102B80003C854D855E85EC8DFD8D858590E00996B3
:102B9000215030404040504039014A01082E04C0C5
:102BA00096948794779467940A94D2F72F5F3F4F57
:102BB0004F4F5F4F0894E108F108010911095701CF
:102BC000680104C0D694C794B794A7948A95D2F7A5
:102BD0000894E11CF11C011D111DA614B704C804C2
:102BE000D90428F0211531054105510549F4888D96
:102BF000998DAA8DBB8D8F839887A987BA8716C0B8
:102C0000A618B708C808D90811C04F81588569852A
:102C10007A858C8D9D8D94010E94771F0894A10860
:102C2000B108C108D108882331F410C087E0882E8C
:102C3000912C8C0E9D1EA114B104C104D10429F75E
:102C4000EB86FC860D871E8781E001C080E0DF9166
:102C5000CF911F910F91FF90EF90DF90CF90BF9099
:102C6000AF909F908F907F906F900895223009F0E1
:102C700078CFE6CFCF93DF93EC01462F6F8578892D
:102C800089899A890E945B1D882319F420E030E02D
:102C90000AC08B89282F30E095E0220F331F9A95C8
:102CA000E1F72750384FC901DF91CF9108950F9375
:102CB0001F93CF93DF938C01FC0186818823D9F188
:102CC000858187FF35C0C80161E00E943A16EC019A
:102CD000009789F1F8018681823040F484899589D2
:102CE000A689B7898C8F9D8FAE8FBF8FF801808D9D
:102CF000918D9B8F8A8F808D918DA28DB38DCD010B
:102D0000AA27BB279D8B8C8BE091F707F091F807E2
:102D1000309751F0BE016A5E7F4FCE0148961995FB
:102D2000888D998D9B8B8A8BF80185818F77858320
:102D30000E94FC1C01C080E0DF91CF911F910F9198
:102D40000895CF93DF93EC010E945716882311F06A
:102D50001E8281E0DF91CF9108956F927F928F92D2
:102D60009F92AF92BF92CF92DF92EF92FF920F931A
:102D70001F93DF93CF9300D00F92CDB7DEB77C01C6
:102D80005A016B01DC0116968C911697813009F07F
:102D90008FC015968C9181FF8BC09EC00097A105B6
:102DA000B10511F481E085C0F701638474848584E2
:102DB0009684C701B601A5010E949115882309F4E4
:102DC00077C0D7015C968D919C915D97A114B10459
:102DD000C104D10489F458964D915D916D917C9117
:102DE0005B970E94EA1F882309F462C0F701108EE6
:102DF000118E128E138E3DC0D70117964D915D91A5
:102E00006D917C911A979E012F5F3F4F0E94771F13
:102E1000882309F44DC0D7015C96ED91FC915D9734
:102E200049815A816B817C818789803129F088EFC3
:102E30009FEFAFEFBFE004C088EF9FEFA0E0B0E0EE
:102E4000481759076A077B07A0F4CF010E94EA1FC1
:102E5000882371F1F7014781508561857285848DE2
:102E6000958D0FEF1FEF2FEF3FE00E94DB1E8823B1
:102E7000F9F0D7015496AD92BD92CD92DC9257975E
:102E800015968C911597806815968C93C7010E94B2
:102E90005716882369F0B601A5016A147B048C04D7
:102EA0009D0410F4B401A301C7010E94911501C053
:102EB00080E00F900F900F900F90CF91DF911F91B6
:102EC0000F91FF90EF90DF90CF90BF90AF909F90C9
:102ED0008F907F906F900895F70184899589A689D6
:102EE000B78984179507A607B70708F057CFE0CF33
:102EF0002F923F924F925F926F927F928F929F920A
:102F0000AF92BF92CF92DF92EF92FF920F931F93F7
:102F1000CF93DF93EC012A018E81882309F4C6C088
:102F20008D8180FFC3C0D8C025014E185F084B01BA
:102F300077E0272E312C2C0E3D1E3201B1C02B859F
:102F40003C854D855E856FEFA62E61E0B62EA222F0
:102F5000B3228E8179018A0199E016950795F7943D
:102F6000E7949A95D1F7EC8DFD8D823049F4428D2E
:102F7000538D648D758D4E0D5F1D601F711F3FC099
:102F8000D480DA94DE20A114B104D9F4DD20C9F490
:102F9000211531054105510549F4888D998DAA8D7A
:102FA000BB8D8F839887A987BA870BC04F815885BF
:102FB00069857A85CF0191010E94771F882309F4E2
:102FC00075C0EC8DFD8D4F81588569857A8542509D
:102FD000504060407040058404C0440F551F661F78
:102FE000771F0A94D2F786859785A089B189480F03
:102FF000591F6A1F7B1F4D0D511D611D711D80E002
:1030000092E08A199B0963018615970508F46C0103
:103010008D8186FD06C080E0C81682E0D80609F0E2
:1030200073C08091980290919902A0919A02B091F8
:103030009B02481759076A077B0709F465C080910E
:10304000F9099091FA099501860174010E9478139B
:10305000882361F18C0C9D1C12C095012750384FBC
:10306000A9014C0D5D1DD401F90102C081918D9320
:10307000E417F507D9F7E21BF30B8E0E9F1E96019E
:1030800040E050E08B859C85AD85BE85820F931F07
:10309000A41FB51F8B879C87AD87BE876C187D08E2
:1030A0006114710409F04BCFA20102C04FEF5FEF32
:1030B000CA01DF91CF911F910F91FF90EF90DF90A8
:1030C000CF90BF90AF909F908F907F906F905F90C8
:1030D0004F903F902F900895AC88BD88CE88DF88B0
:1030E000EB84FC840D851E859A0140E050E0D601FA
:1030F000C5018E199F09A00BB10B82179307A40776
:10310000B50708F411CF13CFCB01BA0140E00E94FC
:103110005B1D882309F0A1CFC9CFCF92DF92EF9238
:10312000FF920F931F93DF93CF930F92CDB7DEB72C
:103130006C01FC018681823070F0E384F4840585A3
:103140001685C601BE016F5F7F4F41E050E00E94CF
:103150007817019769F020E030E0C9010F90CF9116
:10316000DF911F910F91FF90EF90DF90CF90089526
:10317000F60183859485A585B6854F96A11DB11D61
:1031800083879487A587B687F5E016950795F7940A
:10319000E794FA95D1F78E2D8F70282F30E0E5E077
:1031A000220F331FEA95E1F72750384FD6CF0F9300
:1031B0001F93CF93DF93EC018B018E81882309F05D
:1031C00041C0FB0187898031B1F482E08E83188E83
:1031D000198E1A8E1B8E808D918DA0E0B0E045E097
:1031E000880F991FAA1FBB1F4A95D1F78C8B9D8B07
:1031F000AE8BBF8B15C0803229F583E08E83FB0137
:10320000428D538D648D758D488F598F6A8F7B8F5A
:103210009E012C5E3F4FC8010E944320882391F0FD
:103220001D8F0C8F81E08D831F82188619861A8668
:103230001B861C861D861E861F86188A198A1A8A76
:103240001B8A01C080E0DF91CF911F910F910895FB
:103250001F93CF93DF93EC01142FE62FF0E075E07E
:10326000EE0FFF1F7A95E1F7E750F84F83858171E4
:1032700021F0842F827409F054C06B8B80919802E6
:1032800090919902A0919A02B0919B028F87988B9E
:10329000A98BBA8B84899589A0E0B0E0BC01552741
:1032A0004427828D938DA0E0B0E0482B592B6A2BE8
:1032B0007B2B488F598F6A8F7B8F838590E0887135
:1032C0009070009751F4848D958DA68DB78D8C8B61
:1032D0009D8BAE8BBF8B81E00CC0409711F59E019A
:1032E0002C5E3F4F8C8D9D8D0E9443208823C9F01A
:1032F00084E08E83812F8F708D831F8218861986BC
:103300001A861B861C861D861E8616FD02C081E05D
:1033100009C0CE0140E050E060E070E00E94AD16D0
:1033200001C080E0DF91CF911F910895CF93DF938B
:10333000EC019C01295F3F4F8C8D9D8D41E050E059
:1033400060E070E00E94B2208823A1F0888D998D02
:10335000AA8DBB8D0097A105B10559F48F81988581
:10336000A985BA85888F998FAA8FBB8F8D81806838
:103370008D8381E0DF91CF9108952F923F924F92FC
:103380005F927F928F929F92AF92BF92CF92DF9285
:10339000EF92FF920F931F93DF93CF9300D000D053
:1033A000CDB7DEB76C01162F072F5E834D83DC018E
:1033B00016968C911697813009F072C115968C91F2
:1033C00081FF6EC18FC1F60144895589668977896D
:1033D00083859485A585B68584179507A607B707C5
:1033E00031F0C6010E949115882309F459C1812F3B
:1033F000902F9C0129012D803E8019C1D6015C9639
:10340000ED91FC915D97DA01C90119E0B695A79598
:10341000979587951A95D1F774807A9478227FEFE3
:10342000872E71E0972E82229322772009F050C0D8
:103430008114910409F04CC0D60117964D915D910D
:103440006D917C911A97411551056105710581F4C3
:1034500058968D919D910D90BC91A02D0097A1053E
:10346000B10559F1F60187839087A187B28730C0F3
:10347000CF019E012F5F3F4F0E94771F882319F4D1
:103480001E821D8215C129813A814B815C81D60142
:103490005C96ED91FC915D978789803129F088EFEA
:1034A0009FEFAFEFBFE004C088EF9FEFA0E0B0E078
:1034B000281739074A075B0730F0C6010E949619A2
:1034C000882331F4EDC0F601278330874187528786
:1034D00080E092E08819990951018215930508F45A
:1034E0005C01D6015C96ED91FC915D971796ED908D
:1034F000FD900D911C911A978EEF9FEFAFEFBFEFEC
:10350000E80EF91E0A1F1B1F058404C0EE0CFF1CE9
:10351000001F111F0A94D2F786859785A089B1896B
:10352000E80EF91E0A1F1B1FE70CF11C011D111DDF
:1035300090E0A91692E0B90651F580919802909119
:103540009902A0919A02B0919B028E159F05A00747
:10355000B10761F48FEF9FEFAFEFBFEF8093980259
:1035600090939902A0939A02B0939B028091F909DB
:103570009091FA09B801A70192010E941F138823B4
:1035800009F48EC0A0E0B2E04A0E5B1E3EC081147A
:10359000910409F5F601238534854585568584898E
:1035A0009589A689B789281739074A075B0798F0D4
:1035B0000E94FC1C882309F473C0E0929802F092E8
:1035C000990200939A0210939B028091FB098160FB
:1035D0008093FB0908C0C801B70141E00E945B1D50
:1035E000882309F45DC094012750384FA9014A0D82
:1035F0005B1DD201F90102C08D918193E417F5079B
:10360000D9F7E21BF30B4E0E5F1E2A183B089501FB
:1036100040E050E0F60183859485A585B685820F4C
:10362000931FA41FB51F83879487A587B687D601EC
:103630001B962D913D914D915C911E972114310463
:1036400009F0DCCE54968D919D910D90BC91A02DEA
:1036500082179307A407B50748F4F601248B358B2E
:10366000468B578B85818068858311C08091F707D1
:103670009091F807892B59F08D819E81892B39F023
:10368000D60115968C911597806815968C93F60146
:10369000858183FF0DC0C6010E945716882341F41F
:1036A00081E0D60114968C93EFEFFFEFFE83ED835C
:1036B0008D819E8126960FB6F894DEBF0FBECDBFDA
:1036C000CF91DF911F910F91FF90EF90DF90CF90FE
:1036D000BF90AF909F908F907F905F904F903F9062
:1036E0002F90089582FD6FCE82CEDB010D900020D9
:1036F000E9F71197A61BB70BAD010E94BD190895FC
:10370000DF93CF930F92CDB7DEB76983BE016F5FB2
:103710007F4F41E050E00E94BD190F90CF91DF91A3
:103720000895DF92EF92FF920F931F93CF93DF9351
:10373000EC010E949619882309F44EC0EC8DFD8D92
:10374000EF80F88409851A858EEF9FEFAFEFBFEF0A
:10375000E80EF91E0A1F1B1F058404C0EE0CFF1C97
:10376000001F111F0A94D2F786859785A089B18919
:10377000E80EF91E0A1F1B1FD4800894E108F10807
:10378000010911090BC0C801B7016D0D711D811D23
:10379000911D0E94371D8823F9F0DA94DD2099F7F6
:1037A000EC8DFD8D20E032E040E050E0058404C067
:1037B000220F331F441F551F0A94D2F78C899D890D
:1037C000AE89BF89820F931FA41FB51F8C8B9D8B61
:1037D000AE8BBF8B81E001C080E0DF91CF911F9164
:1037E0000F91FF90EF90DF9008956F927F928F92EC
:1037F0009F92AF92BF92CF92DF92EF92FF920F9380
:103800001F93DF93CF93CDB7DEB72B970FB6F89406
:10381000DEBF0FBECDBF5C016B01822EDC011696B0
:103820008C91882309F0D2C0CA018E010F5F1F4F0F
:10383000B8010E945015882309F4C8C0F601848D90
:10384000958DD5015D969C938E935C97178210861B
:1038500011861286D6011B961D921D921D921C92F6
:103860001E979924380141C0C6010E948D18FC01A1
:10387000009709F4ABC085E016950795F794E79497
:103880008A95D1F71E2D1F708081882311F0853E07
:10389000D1F4992091F4D50153961C93539720911C
:1038A00098023091990240919A0250919B021F9682
:1038B0002D933D934D935C9352978081882399F487
:1038C0009924939421C0C301BF014BE050E00E94B2
:1038D000F922009751F4882D8073803309F476C063
:1038E000C501612F6FC099249394F601E384F48499
:1038F0000585168584899589A689B789E816F9060C
:103900000A071B0708F4B0CF882D8271823109F0B5
:103910005DC0992041F0C50161E00E943A168C011A
:10392000009789F453C0D60116968C91823009F421
:103930004DC0C6010E94911B882309F447C0F501C0
:10394000138A09EF17E080E2D8011D928A95E9F702
:10395000D801FE0131968BE001900D928150E1F784
:10396000E091F707F091F807309739F0B801625FFE
:103970007F4FC8014096199509C081E298E2F8018D
:10398000918B808B80E098E097878687D80150964E
:103990008D919C91519753969C938E9352975996E3
:1039A0009C938E9358971E968D919C911F97579636
:1039B0009C938E9356970E94FC1C882339F0C50176
:1039C000F5016389482D0E94281901C080E02B96DB
:1039D0000FB6F894DEBF0FBECDBFCF91DF911F9120
:1039E0000F91FF90EF90DF90CF90BF90AF909F909E
:1039F0008F907F906F9008958091FB09882399F1B3
:103A0000409198025091990260919A0270919B02A4
:103A10008091F9099091FA0929EF37E00E941F136C
:103A2000882319F14091FC095091FD096091FE092C
:103A30007091FF09411551056105710591F0809163
:103A4000F9099091FA0929EF37E00E941F138823A2
:103A500061F01092FC091092FD091092FE0910927B
:103A6000FF091092FB0981E0089580E00895EF922C
:103A7000FF920F931F937B018C010E94FC1C8823F3
:103A8000A9F0E9EFF7E0119289E0E93FF807D9F7EB
:103A9000E0929802F092990200939A0210939B028E
:103AA0008091FB0981608093FB0981E01F910F9158
:103AB000FF90EF900895DF92EF92FF920F931F9384
:103AC0007B018C01D42E8091980290919902A09153
:103AD0009A02B0919B028E159F05A007B107C1F015
:103AE0000E94FC1C8823D9F08091F9099091FA0971
:103AF000B801A70129EF37E00E940914882379F063
:103B0000E0929802F092990200939A0210939B021D
:103B10008091FB098D298093FB0981E001C080E041
:103B20001F910F91FF90EF90DF9008958F929F92D9
:103B3000AF92BF92CF92DF92EF92FF920F931F93BB
:103B4000CF93DF936C01142F7093FA096093F909F6
:103B5000442321F488249924540140C0453008F0BE
:103B60001CC160E070E080E090E040E00E945B1DDE
:103B7000882309F412C1C12FD0E02197FE0174E01F
:103B8000EE0FFF1F7A95E1F7E750F84FE254FE4F32
:103B90008081EE5BF14090E08F779070892B09F087
:103BA000FCC0E653FE4F80819181A281B3818436AF
:103BB0009105A105B10508F4F0C064E0CC0FDD1F4C
:103BC0006A95E1F7C154D64F88809980AA80BB805E
:103BD00081149104A104B10409F4DFC0C501B4014A
:103BE00040E00E945B1D882309F4D7C0809104083F
:103BF000909105088050924009F0CFC020910908AB
:103C0000222309F4CAC08091070890910808892BE3
:103C100009F4C3C080910608882309F4BEC0F601E8
:103C2000228B809106088483158661E070E007C0CE
:103C30004F5FF60145874150483008F0AEC0F601AD
:103C40004585848190E09B01042E02C0220F331F22
:103C50000A94E2F78217930759F720910F083091E1
:103C600010082115310519F040E050E008C02091FE
:103C70001D0830911E0840911F0850912008F60140
:103C80002583368347835087E0900708F090080823
:103C900000E010E0E80CF91C0A1D1B1DE38AF48A01
:103CA000058B168B80910A0890910B08918F808F5D
:103CB0006091090870E080E090E00E9420236E0D82
:103CC0007F1D801F911FF601628F738F848F958FE8
:103CD00020910A0830910B0855E0220F331F5A95A6
:103CE000E1F721503E4F232F3327269540E050E047
:103CF000260F371F481F591F26873787408B518B48
:103D000080910C0890910D08009719F0A0E0B0E0A8
:103D100008C08091190890911A08A0911B08B091D1
:103D20001C0885017401E21AF30A040B150BA801A3
:103D30009701280F391F4A1F5B1FF601058404C035
:103D400056954795379527950A94D2F7218732875C
:103D500043875487253FFFE03F07F0E04F07F0E03F
:103D60005F0710F48CE006C0255F3F4F4040504095
:103D700028F480E1F601878B81E010C0809125084E
:103D800090912608A0912708B0912808F601828F0B
:103D9000938FA48FB58F80E2EECF80E0DF91CF913B
:103DA0001F910F91FF90EF90DF90CF90BF90AF9059
:103DB0009F908F9008954F925F926F927F928F9213
:103DC0009F92AF92BF92CF92DF92EF92FF920F93AA
:103DD0001F93CF93DF93EC016A017B012801390126
:103DE000423051056105710508F46FC089859A85D7
:103DF000AB85BC850196A11DB11D84179507A6074B
:103E0000B70708F462C02B893C894D895E898F8988
:103E1000803129F499278F2D7E2D6D2D09C0C70182
:103E2000B60117E096958795779567951A95D1F71E
:103E30004B015C01820E931EA41EB51E8091980258
:103E400090919902A0919A02B0919B0288169906CE
:103E5000AA06BB0639F0C501B40140E00E945B1D13
:103E6000882399F18F89803149F4F601F070EE0FC3
:103E7000FF1FE750F84F518240820DC0F601EF77E7
:103E8000F070EE0FFF1FEE0FFF1FE750F84F40825C
:103E90005182628273828091FB0981608093FB0969
:103EA0008A89823080F08D819E81AF81B885880EAD
:103EB000991EAA1EBB1E8092FC099092FD09A09239
:103EC000FE09B092FF0981E001C080E0DF91CF914F
:103ED0001F910F91FF90EF90DF90CF90BF90AF9028
:103EE0009F908F907F906F905F904F900895CF92AA
:103EF000DF92EF92FF920F931F93CF93DF93EC012A
:103F00007A018B01690189859A85AB85BC8501960B
:103F1000A11DB11D84179507A607B70708F450C067
:103F20002B893C894D895E898F89803129F49927B5
:103F3000812F702F6F2D09C0C801B701E7E096955A
:103F4000879577956795EA95D1F7260F371F481F14
:103F5000591F8091980290919902A0919A02B09174
:103F60009B02281739074A075B0739F0CA01B901D4
:103F700040E00E945B1D882319F18F89803159F43C
:103F8000F701F070EE0FFF1FE750F84F808191812D
:103F9000A0E0B0E00EC0F701EF77F070EE0FFF1F6A
:103FA000EE0FFF1FE750F84F80819181A281B3810E
:103FB000BF70F60180839183A283B38381E001C047
:103FC00080E0DF91CF911F910F91FF90EF90DF90F4
:103FD000CF900895AF92BF92CF92DF92EF92FF926F
:103FE0000F931F93DF93CF9300D00F92CDB7DEB71F
:103FF0006C017A018B0182E090E0A0E0B0E0F60174
:1040000080839183A283B3835E010894A11CB11CB9
:10401000C601B801A70195010E94771F882319F1F5
:10402000C601B801A70100E010E020E030E00E94E6
:10403000DB1E8823C1F0E980FA800B811C81F60128
:104040008789803129F088EF9FEFAFEFBFE004C090
:1040500088EF9FEFA0E0B0E0E816F9060A071B071B
:10406000B8F281E001C080E00F900F900F900F90A8
:10407000CF91DF911F910F91FF90EF90DF90CF9044
:10408000BF90AF9008954F925F926F927F928F9200
:104090009F92AF92BF92CF92DF92EF92FF920F93D7
:1040A0001F93DF93CF9300D00F92CDB7DEB76C0193
:1040B00049835A836B837C833901EE24FF24870173
:1040C0002E010894411C511C812CA2E09A2EA12C97
:1040D000B12C49815A816B817C81C60192010E9479
:1040E000771F882351F1D501C401F601058404C06E
:1040F000880F991FAA1FBB1F0A94D2F7E80EF91E5A
:104100000A1F1B1F29813A814B815C81878980317D
:1041100029F088EF9FEFAFEFBFE004C088EF9FEF7B
:10412000A0E0B0E0281739074A075B0790F2F301D7
:10413000E082F1820283138381E00F900F900F9051
:104140000F90CF91DF911F910F91FF90EF90DF9033
:10415000CF90BF90AF909F908F907F906F905F9027
:104160004F9008952F923F924F925F926F927F925D
:104170008F929F92AF92BF92CF92DF92EF92FF9277
:104180000F931F93DF93CF93CDB7DEB72F970FB663
:10419000F894DEBF0FBECDBF1C014A875B876C87DA
:1041A0007D873F872E87D9010D911D912D913C91DF
:1041B000011511052105310549F0480159010894FF
:1041C000811C911CA11CB11C198610C0FC018080AF
:1041D0009180A280B38019868A859B85AC85BD8538
:1041E0000197A105B10511F491E09987D1011996C4
:1041F0008D919D910D90BC91A02D0196A11DB11D99
:104200008D839E83AF83B887750164014424552450
:1042100032018E010F5F1F4FF10181859285A385C9
:10422000B485481659066A067B0608F090C08D8151
:104230009E81AF81B8858C159D05AE05BF0550F4F4
:1042400082E0882E912CA12CB12CB2E0CB2ED12C67
:10425000E12CF12CC101B701A60198010E94771F42
:10426000882309F474C089819A81AB81BC81A7013C
:1042700096012F5F3F4F4F4F5F4F0097A105B1054C
:1042800019F049015A010DC0281939094A095B0979
:104290008A859B85AC85BD85281739074A075B074A
:1042A00059F00894411C511C611C711C0894C11CDC
:1042B000D11CE11CF11CB0CFC101A601B7010FEF69
:1042C0001FEF2FEF3FE00E94DB1E882399F43FC0D1
:1042D0002601370108944108510861087108C1019D
:1042E000B301A201970186010E94DB1E882379F1A8
:1042F000730162018C149D04AE04BF0448F3AE85C3
:10430000BF854D915D916D917C9141155105610580
:10431000710539F0C101950184010E94DB1E8823DB
:10432000B1F0EE85FF8580829182A282B382F98509
:10433000FF2359F00894811C911CA11CB11CD101D0
:104340008D929D92AD92BC92139781E001C080E066
:104350002F960FB6F894DEBF0FBECDBFCF91DF9181
:104360001F910F91FF90EF90DF90CF90BF90AF9093
:104370009F908F907F906F905F904F903F902F9085
:1043800008950F931F93CF93DF93BC018230910563
:1043900010F462E070E0E091020AF091030AA0E0FC
:1043A000B0E040E050E024C08081918186179707FB
:1043B000D0F08617970771F482819381109729F0C6
:1043C00013969C938E9312972CC09093030A80931C
:1043D000020A27C04115510519F08417950718F4F2
:1043E000EF018D01AC01DF01828193819C01F90114
:1043F0003097D1F641155105F9F0CA01861B970B8C
:104400008430910580F48A819B810115110521F08A
:10441000F8019383828304C09093030A8093020A75
:10442000FE01329645C0FE01E80FF91F61937193BA
:104430000297998388833CC08091000A9091010A79
:10444000892B41F48091590290915A029093010A6C
:104450008093000A40915B0250915C024115510526
:1044600041F44DB75EB78091570290915802481BB6
:10447000590B2091000A3091010A24173507B0F436
:10448000CA01821B930B8617970780F0AB014E5F22
:104490005F4F8417950750F0420F531F5093010A46
:1044A0004093000AF9016193719302C0E0E0F0E0EB
:1044B000CF01DF91CF911F910F910895CF93DF939B
:1044C0009C01009709F48FC0EC0122971B821A828D
:1044D0006091020A7091030A6115710581F4888167
:1044E0009981820F931F2091000A3091010A2817A9
:1044F000390739F5D093010AC093000A74C0DB0173
:1045000040E050E0AC17BD0708F1BB83AA83FE0171
:1045100021913191E20FF31FAE17BF0779F48D910E
:104520009C911197280F391F2E5F3F4F39832883A5
:1045300012968D919C9113979B838A834115510507
:1045400071F4D093030AC093020A4DC012968D9164
:104550009C911397AD01009711F0DC01D3CFDA01E4
:104560001396DC93CE931297FA0121913191E20FC9
:10457000F31FCE17DF0769F488819981280F391F4F
:104580002E5F3F4FFA01318320838A819B81938381
:104590008283E0E0F0E0DB0112968D919C9113970D
:1045A000009719F0BC01FD01F6CFAB014E5F5F4FE4
:1045B000DB018D919C91840F951F2091000A309111
:1045C000010A2817390779F4309729F41092030A61
:1045D0001092020A02C0138212824250504050933D
:1045E000010A4093000ADF91CF910895F8940C944A
:1045F000A923FB01DC0104C08D910190801921F4F5
:1046000041505040C8F7881B990B0895FC018191D7
:10461000861721F08823D9F7992708953197CF017C
:104620000895FB01DC014150504048F001900D928B
:104630000020C9F701C01D9241505040E0F7089595
:10464000629FD001739FF001829FE00DF11D649F76
:10465000E00DF11D929FF00D839FF00D749FF00D02
:10466000659FF00D9927729FB00DE11DF91F639FA3
:10467000B00DE11DF91FBD01CF0111240895AA1B42
:10468000BB1B51E107C0AA1FBB1FA617B70710F03D
:10469000A61BB70B881F991F5A95A9F7809590956F
:1046A000BC01CD01089597FB092E07260AD077FD9E
:1046B00004D0E5DF06D000201AF4709561957F4F95
:1046C0000895F6F7909581959F4F0895A1E21A2ECF
:1046D000AA1BBB1BFD010DC0AA1FBB1FEE1FFF1FA6
:1046E000A217B307E407F50720F0A21BB30BE40BF6
:1046F000F50B661F771F881F991F1A9469F760953D
:104700007095809590959B01AC01BD01CF010895F6
:1047100097FB092E05260ED057FD04D0D7DF0AD00F
:10472000001C38F450954095309521953F4F4F4FE0
:104730005F4F0895F6F790958095709561957F4F3E
:104740008F4F9F4F0895EE0FFF1F0590F491E02DBE
:10475000199412E0CCE1D2E004C0FE010E94A5232E
:0C4760002296CE31D107C9F7F894FFCFA4
:10476C004E756D622E77617600706C6179696E673B
:10477C0020736F6E67006661696C656421004F4B36
:10478C002100446F696E672072617720696E6974CD
:10479C0069616C697A6174696F6E2E2E2E00596F87
:1047AC007520617265206E6F7720636F6E6E656326
:1047BC007465642E002F002000040A00006F007145
:1047CC00007200730080009000A000200181009115
:1047DC0000A100210188009800A8002801860096FD
:1047EC0000A600260184009400A40024018A009AEB
:1047FC0000AA002A01010160FFFFFFFF000000007A
:10480C009B0BF20C2F0B600B400B890B0000000074
:10481C007F0D610E920D070E250EF20D6E0E00002F
:06482C000000801BF20CED
:00000001FF
