:100000000C9417010C9443010C9443010C9443018C
:100010000C9443010C9443010C9443010C94430150
:100020000C9443010C9443010C9443010C94430140
:100030000C9443010C9443010C9443010C94430130
:100040000C9443010C9443010C9443010C94430120
:100050000C9443010C9443010C9443010C947701DC
:100060000C9443010C9421020C9401030C94430161
:100070000C9443010C9443010C9443010C944301F0
:100080000C9443010C9443010C9443010C944301E0
:100090000C9459020C9440030C9443010C944301BA
:1000A0000C9443010C9443010C9443010C944301C0
:1000B0000C9443010C9443010C9443010C944301B0
:1000C0000C9443010C9443010C9443010C94910251
:1000D0000C947F030C9443010C94C9020C94BE034E
:1000E0000C944301D0EC420001000000D5684F00A1
:1000F00003000000DAE45B0002000000408285009B
:100100000400000045FE9100030000004A7A9E00B2
:1001100001000000AB9BBB0001000000AB9BBB00DB
:100120000300000002C5BF000200000002C5BF00BE
:100130000400000059EEC3000100000059EEC300A6
:1001400003000000B017C80001000000B017C8008D
:10015000020000000741CC00020000005E6AD000EF
:1001600002000000B593D40001000000B593D40054
:10017000040000000CBDD8000400000063E6DC00B1
:1001800004000000BA0FE10001000000BA0FE10016
:10019000030000001139E500030000006862E90077
:1001A0000100000016B5F100030000001B31FE0045
:1001B000010000001B31FE0003000000725A020122
:1001C00002000000725A020104000000C883060108
:1001D00001000000C88306010300000020AD0A01F1
:1001E0000100000020AD0A010400000078D60E01D5
:1001F00004000000CEFF12010400000024291701B2
:100200000100000024291701030000007C521B019B
:1002100003000000D47B1F01030000002AA5230176
:10022000010000002AA52301020000008E05112410
:100230001FBECFEFD1E2DEBFCDBF00E00CBF12E0AA
:10024000A0E0B2E0E0EEFFE000E00BBF02C00790EC
:100250000D92AC31B107D9F714E0ACE1B2E001C0C6
:100260001D92A13CB107E1F712E0CEE2D2E004C05A
:100270002297FE010E94EA07CC32D107C9F70E94FB
:1002800045010C94A4070C940000CF93DF930E94C7
:10029000BF0185E494E040E855E260E070E00E9430
:1002A000FD0385E494E060E072E00E949107C0E005
:1002B000D0E0FE01EE0FFF1FEE0FFF1FEC51FF4FCE
:1002C000459155916591749185E494E02AE030E080
:1002D0000E947D072196C233D10559F785E494E049
:1002E0000E94830480E090E0DF91CF9108951F92F7
:1002F0000F920FB60F9211242F933F938F939F93DA
:10030000AF93BF938091200290912102A09122028D
:10031000B0912302309124020196A11DB11D232F1B
:100320002D5F2D3720F02D570196A11DB11D209373
:1003300024028093200290932102A0932202B09382
:10034000230280911C0290911D02A0911E02B09187
:100350001F020196A11DB11D80931C0290931D02E6
:10036000A0931E02B0931F02BF91AF919F918F91F6
:100370003F912F910F900FBE0F901F90189578947A
:1003800084B5826084BD84B5816084BD85B582609A
:1003900085BD85B5816085BDEEE6F0E08081816038
:1003A0008083E1E8F0E01082808182608083808138
:1003B00081608083E0E8F0E0808181608083E1EB10
:1003C000F0E0808184608083E0EBF0E080818160F8
:1003D0008083E1E9F0E080818260808380818160B8
:1003E0008083E0E9F0E0808181608083E1EAF0E0F1
:1003F000808182608083808181608083E0EAF0E098
:10040000808181608083E1E2F1E08081826080838D
:10041000808181608083E0E2F1E08081816080837F
:10042000EAE7F0E08081846080838081826080835D
:100430008081816080838081806880831092C10088
:1004400008951F920F920FB60F920BB60F921124C0
:100450002F933F934F938F939F93EF93FF934091ED
:10046000C60020916502309166022F5F3F4F2F73C7
:10047000307080916702909168022817390759F00F
:10048000E0916502F0916602EB5DFD4F4083309391
:10049000660220936502FF91EF919F918F914F919A
:1004A0003F912F910F900BBE0F900FBE0F901F909A
:1004B00018951F920F920FB60F920BB60F92112440
:1004C0002F933F934F938F939F93EF93FF9340917D
:1004D000CE002091ED023091EE022F5F3F4F2F733F
:1004E00030708091EF029091F0022817390759F08F
:1004F000E091ED02F091EE02E355FD4F4083309321
:10050000EE022093ED02FF91EF919F918F914F9119
:100510003F912F910F900BBE0F900FBE0F901F9029
:1005200018951F920F920FB60F920BB60F921124CF
:100530002F933F934F938F939F93EF93FF9340910C
:10054000D60020917503309176032F5F3F4F2F73B4
:10055000307080917703909178032817390759F00C
:10056000E0917503F0917603EB5CFC4F4083309390
:10057000760320937503FF91EF919F918F914F9197
:100580003F912F910F900BBE0F900FBE0F901F90B9
:1005900018951F920F920FB60F920BB60F9211245F
:1005A0002F933F934F938F939F93EF93FF9340919C
:1005B00036012091FD033091FE032F5F3F4F2F73D3
:1005C00030708091FF03909100042817390759F08B
:1005D000E091FD03F091FE03E354FC4F4083309320
:1005E000FE032093FD03FF91EF919F918F914F9117
:1005F0003F912F910F900BBE0F900FBE0F901F9049
:1006000018951F920F920FB60F920BB60F921124EE
:100610002F933F938F939F93EF93FF932091A90282
:100620003091AA028091AB029091AC022817390751
:1006300031F48091C1008F7D8093C10014C0E0919E
:10064000AB02F091AC02E759FD4F20818091AB02E3
:100650009091AC0201968F7390709093AC0280934E
:10066000AB022093C600FF91EF919F918F913F9134
:100670002F910F900BBE0F900FBE0F901F901895EB
:100680001F920F920FB60F920BB60F9211242F9359
:100690003F938F939F93EF93FF932091310330917A
:1006A000320380913303909134032817390731F4D2
:1006B0008091C9008F7D8093C90014C0E0913303FD
:1006C000F0913403EF50FD4F2081809133039091DE
:1006D000340301968F7390709093340380933303A7
:1006E0002093CE00FF91EF919F918F913F912F9199
:1006F0000F900BBE0F900FBE0F901F9018951F927A
:100700000F920FB60F920BB60F9211242F933F93B7
:100710008F939F93EF93FF932091B9033091BA0386
:100720008091BB039091BC032817390731F4809165
:10073000D1008F7D8093D10014C0E091BB03F09174
:10074000BC03E758FC4F20818091BB039091BC0310
:1007500001968F7390709093BC038093BB0320939A
:10076000D600FF91EF919F918F913F912F910F9024
:100770000BBE0F900FBE0F901F9018951F920F92F7
:100780000FB60F920BB60F9211242F933F938F93B6
:100790009F93EF93FF932091410430914204809105
:1007A0004304909144042817390731F480913101B2
:1007B0008F7D8093310114C0E0914304F091440493
:1007C000EF5FFB4F20818091430490914404019698
:1007D0008F73907090934404809343042093360168
:1007E000FF91EF919F918F913F912F910F900BBEB1
:1007F0000F900FBE0F901F901895AF92BF92DF928F
:10080000EF92FF920F931F93CF93DF93EC017A0146
:100810008B01DD24403081EE580780E0680780E0DE
:10082000780711F0DD24D39491E0A92EB12CEC8946
:10083000FD89DD2069F0C5010E8C02C0880F991F6B
:100840000A94E2F7808360E079E08DE390E005C0F0
:10085000108260E874E88EE190E0A80197010E94A0
:10086000C607215030404040504056954795379537
:10087000279580E12030380720F0DD2011F0DD24BD
:10088000D6CFE889F9893083EA89FB892083EE890C
:10089000FF89408121E030E0C9010A8C02C0880F45
:1008A000991F0A94E2F7482B4083EE89FF89408123
:1008B000C9010B8C02C0880F991F0A94E2F7482BDC
:1008C0004083EE89FF894081C9010C8C02C0880FEA
:1008D000991F0A94E2F7482B4083EE89FF898081B3
:1008E0000D8C02C0220F331F0A94E2F720952823B3
:1008F0002083DF91CF911F910F91FF90EF90DF90B8
:10090000BF90AF900895CF93DF93DC011E968D9139
:100910009C911F97EC01C05CDF4FFC01EE5BFF4F29
:10092000288139818081918128173907C9F7569626
:10093000ED91FC915797408121E030E0C9015A9632
:100940000C905A9702C0880F991F0A94E2F780957D
:10095000842380835696ED91FC9157974081C9017D
:100960005B960C905B9702C0880F991F0A94E2F780
:100970008095842380835696ED91FC915797408112
:10098000C9015C960C905C9702C0880F991F0A946D
:10099000E2F78095842380835696ED91FC915797DA
:1009A00080815D960C905D9702C0220F331F0A94E0
:1009B000E2F72095282320831C96ED91FC911D974A
:1009C000EE5BFF4F8081918192938293DF91CF9173
:1009D0000895DC011C96ED91FC911D97E05CFF4FA2
:1009E0002191319180819181281B390B2F733070B7
:1009F000C9010895DC011C96ED91FC911D97E05C06
:100A0000FF4F20813181E054F040DF01AE5BBF4FEA
:100A10008D919C9111972817390719F42FEF3FEF0B
:100A200007C08D919C91E80FF91F8081282F30E03D
:100A3000C9010895DC011C96ED91FC911D97E05CC5
:100A4000FF4F20813181E054F040DF01AE5BBF4FAA
:100A50008D919C9111972817390719F42FEF3FEFCB
:100A600010C08D919C911197E80FF91F20818D91F5
:100A70009C91119701968F73907011969C938E9311
:100A800030E0C9010895FC0186859785DC01A05CF2
:100A9000BF4FFC01EE5BFF4F2D913C911197808180
:100AA000918128173907C1F70895CF93DF93EC019F
:100AB000EE85FF85E05CFF4F20813181E054F040FE
:100AC0002F5F3F4F2F733070DF01AE5BBF4F8D91B3
:100AD0009C91119728173907D1F3E05CFF4F808173
:100AE0009181E054F040E80FF91F6083EE85FF85A7
:100AF000E05CFF4F31832083EE89FF89208181E014
:100B000090E00D8C02C0880F991F0A94E2F7282B01
:100B1000208381E090E0DF91CF9108951F931092A0
:100B200048041092470428EE33E040E050E0209360
:100B3000490430934A0440934B0450934C046FE0B3
:100B400072E0709346046093450485E292E09093CE
:100B500052048093510489E692E090935404809368
:100B6000530485EC90E0909356048093550484ECF4
:100B700090E0909358048093570480EC90E0909319
:100B80005A048093590481EC90E090935C04809324
:100B90005B0486EC90E090935E0480935D0414E027
:100BA00010935F04B3E0B0936004A7E0A0936104E6
:100BB000F5E0F0936204E1E0E093630410926704CF
:100BC00010926604209368043093690440936A0489
:100BD00050936B0470936504609364048DEA92E013
:100BE000909371048093700481EF92E0909373046A
:100BF000809372048DEC90E090937504809374045C
:100C00008CEC90E0909377048093760488EC90E0ED
:100C1000909379048093780489EC90E090937B041E
:100C200080937A048EEC90E090937D0480937C0412
:100C300010937E04B0937F04A0938004F09381040A
:100C4000E093820410928604109285042093870416
:100C5000309388044093890450938A0470938404E9
:100C60006093830485E393E09093900480938F04D2
:100C700089E793E0909392048093910485ED90E04E
:100C8000909394048093930484ED90E09093960461
:100C90008093950480ED90E090939804809397045E
:100CA00081ED90E090939A048093990486ED90E012
:100CB00090939C0480939B0410939D04B0939E0496
:100CC000A0939F04F093A004E093A1041092A504C4
:100CD0001092A4042093A6043093A7044093A80480
:100CE0005093A9047093A3046093A2048DEB93E046
:100CF0009093AF048093AE0481E094E09093B104AC
:100D00008093B00485E391E09093B3048093B204A0
:100D100084E391E09093B5048093B40480E391E080
:100D20009093B7048093B60481E391E09093B90463
:100D30008093B80486E391E09093BB048093BA0457
:100D40001093BC04B093BD04A093BE04F093BF0401
:100D5000E093C0041F910895CF92DF92EF92FF922B
:100D60000F931F93CF93DF937C016B018A01C0E047
:100D7000D0E00FC0D6016D916D01D701ED91FC91CE
:100D80000190F081E02DC7011995C80FD91F0150BE
:100D900010400115110571F7CE01DF91CF911F9120
:100DA0000F91FF90EF90DF90CF900895EF92FF9218
:100DB0000F931F938C01DC01ED91FC910190F08168
:100DC000E02D6DE019957C01D801ED91FC91019029
:100DD000F081E02DC8016AE019959C012E0D3F1DA0
:100DE000C9011F910F91FF90EF900895CF93DF936A
:100DF000DB010D900020E9F71197A61BB70BEC0162
:100E0000E881F9810280F381E02DAD011995DF9130
:100E1000CF9108954F925F927F928F929F92AF925F
:100E2000BF92CF92DF92EF92FF920F931F93DF93C7
:100E3000CF93CDB7DEB7A1970FB6F894DEBF0FBE44
:100E4000CDBF2C01742ECB01223008F42AE019A268
:100E500031E2C32ED12CCC0EDD1E822E9924AA2481
:100E6000BB24672D752FA50194010E94C607790147
:100E70008A01C801B701A50194010E94A707472D67
:100E8000461B0894C108D1084A3014F4405D01C0E3
:100E9000495CF6014083E114F1040105110521F0DC
:100EA0007E2C5F2DC801DDCFC201B6010E94F6067F
:100EB000A1960FB6F894DEBF0FBECDBFCF91DF91E4
:100EC0001F910F91FF90EF90DF90CF90BF90AF9068
:100ED0009F908F907F905F904F900895DC01211537
:100EE000310541F4ED91FC910190F081E02D642FEA
:100EF000199508950E940A070895EF92FF920F93A3
:100F00001F937C010E946E078C01C7010E94D606C8
:100F10009C01200F311FC9011F910F91FF90EF908D
:100F20000895EF92FF920F931F937C010E94F606A3
:100F30008C01C7010E94D606080F191FC8011F9116
:100F40000F91FF90EF900895F8940C94EE07629F34
:100F5000D001739FF001829FE00DF11D649FE00DB1
:100F6000F11D929FF00D839FF00D749FF00D659F12
:100F7000F00D9927729FB00DE11DF91F639FB00D11
:100F8000E11DF91FBD01CF0111240895A1E21A2E20
:100F9000AA1BBB1BFD010DC0AA1FBB1FEE1FFF1F1D
:100FA000A217B307E407F50720F0A21BB30BE40B6D
:100FB000F50B661F771F881F991F1A9469F76095B4
:100FC0007095809590959B01AC01BD01CF0108956E
:100FD000EE0FFF1F0590F491E02D1994F894FFCFC8
:100FE000736574757020646F6E65000000000055B5
:0C0FF00005AC06E9041A05FA04430500EC
:00000001FF
