:100000000C94AB040C94D7040C94D7040C94D70430
:100010000C94D7040C94D7040C94D7040C94D704F4
:100020000C94D7040C94D7040C94D7040C94D704E4
:100030000C94D7040C94D7040C94D7040C94D704D4
:100040000C94310A0C94D7040C94D7040C94D70464
:100050000C9460090C94D7040C94D7040C94060BF0
:100060000C94D7040C94530D0C94330E0C94D704B9
:100070000C94D7040C94D7040C94D7040C94310A34
:100080000C94D7040C94D7040C94D7040C946009F6
:100090000C948B0D0C94720E0C94D7040C94D70412
:1000A0000C94D7040C94310A0C94D7040C94D70404
:1000B0000C94D7040C9460090C94310A0C94D70466
:1000C0000C94D7040C94D7040C9460090C94C30DC1
:1000D0000C94B10E0C94D7040C94FB0D0C94F00E00
:1000E0000C94D70405A84CCDB2D44EB93836A90229
:1000F0000C50B9918688083CA6AAAA2ABE00000026
:10010000803FD0EC420001000000D5684F000300A2
:100110000000DAE45B000200000040828500040079
:10012000000045FE9100030000004A7A9E00010095
:100130000000AB9BBB0001000000AB9BBB000300B9
:10014000000002C5BF000200000002C5BF0004009D
:10015000000059EEC3000100000059EEC300030087
:100160000000B017C80001000000B017C80002006E
:1001700000000741CC00020000005E6AD0000200CF
:100180000000B593D40001000000B593D400040032
:1001900000000CBDD8000400000063E6DC00040091
:1001A0000000BA0FE10001000000BA0FE1000300F7
:1001B00000001139E500030000006862E900010059
:1001C000000016B5F100030000001B31FE00010025
:1001D00000001B31FE0003000000725A0201020001
:1001E0000000725A020104000000C88306010100E9
:1001F0000000C88306010300000020AD0A010100D1
:10020000000020AD0A010400000078D60E010400B1
:100210000000CEFF12010400000024291701010094
:10022000000024291701030000007C521B01030079
:100230000000D47B1F01030000002AA52301010058
:1002400000002AA523010200000000002100240074
:1002500027002A002D0030003300010100000401B6
:1002600007010A0100002200250028002B002E00B3
:100270003100340002010000050108010B010000FB
:1002800020002300260029002C002F00320000014E
:100290000000030106010901050505050705080819
:1002A0000808020202020A0A080804040404010100
:1002B0000101010101010303030303030303040715
:1002C00007070C0C0C0C0C0C0C0C020202020606AC
:1002D0000606060606060B0B0B0B0B0B0B0B01029F
:1002E0001020200808102040102040800201020148
:1002F0000804020101020408102040808040201000
:100300000804020180040201804020100804020158
:1003100008040201010204081020408001020408C0
:10032000102040800000090A02080B0C0D0706038C
:1003300004010000000000000000000000000000B8
:1003400000000000000000000000000000000000AD
:1003500011100F000000000000000000000000006D
:100360000000000000000000000000000000003E4F
:100370005B4F5B3E3E6B4F6B3E1C3E7C3E1C183C15
:100380007E3C181C577D571C1C5E7F5E1C00183C71
:100390001800FFE7C3E7FF0018241800FFE7DBE7BA
:1003A000FF30483A060E2629792926407F050507A1
:1003B000407F05253F5A3CE73C5A7F3E1C1C0808FD
:1003C0001C1C3E7F14227F22145F5F005F5F0609C2
:1003D0007F017F006689956A606060606094A2FF1B
:1003E000A29408047E040810207E201008082A1C0D
:1003F00008081C2A08081E101010100C1E0C1E0CD9
:1004000030383E3830060E3E0E0600000000000078
:10041000005F00000007000700147F147F14242AE7
:100420007F2A1223130864623649562050000807B9
:100430000300001C2241000041221C002A1C7F1CDA
:100440002A08083E080800807030000808080808DC
:10045000000060600020100804023E5149453E0043
:10046000427F400072494949462141494D331814A1
:10047000127F1027454545393C4A494931412111F0
:1004800009073649494936464949291E00001400E2
:100490000000403400000008142241141414141405
:1004A000004122140802015909063E415D594E7C63
:1004B0001211127C7F494949363E414141227F4118
:1004C00041413E7F494949417F090909013E414176
:1004D00051737F0808087F00417F41002040413F61
:1004E000017F081422417F404040407F021C027F70
:1004F0007F0408107F3E4141413E7F090909063EC5
:100500004151215E7F091929462649494932030193
:100510007F01033F4040403F1F2040201F3F4038A5
:10052000403F631408146303047804036159494D80
:1005300043007F4141410204081020004141417FB6
:10054000040201020440404040400003070800202C
:10055000545478407F28444438384444442838442C
:1005600044287F385454541800087E090218A4A463
:100570009C787F0804047800447D40002040403D82
:10058000007F1028440000417F40007C04780478FC
:100590007C080404783844444438FC18242418188F
:1005A000242418FC7C0804040848545454240404EB
:1005B0003F44243C4040207C1C2040201C3C4030D8
:1005C000403C44281028444C9090907C4464544C07
:1005D0004400083641000000770000004136080062
:1005E00002010204023C2623263C1EA1A161123A0C
:1005F0004040207A38545455592155557941215459
:10060000547841215554784020545579400C1E525D
:100610007212395555555939545454593955545401
:10062000580000457C410002457D420001457C4068
:10063000F0292429F0F0282528F07C545545002085
:1006400054547C547C0A097F493249494932324822
:10065000484832324A4848303A4141217A3A424089
:100660002078009DA0A07D39444444393D4040405D
:100670003D3C24FF2424487E4943662B2FFC2F2B2E
:10068000FF0929F620C0887E0903205454794100CF
:1006900000447D413048484A32384040227A007A4E
:1006A0000A0A727D0D19317D2629292F282629292C
:1006B000292630484D40203808080808080808084E
:1006C000382F10C8ACBA2F102834FA00007B000075
:1006D00008142A142222142A1408AA005500AAAACF
:1006E00055AA55AA000000FF00101010FF001414B6
:1006F00014FF001010FF00FF1010F010F01414147D
:10070000FC001414F700FF0000FF00FF1414F404B1
:10071000FC141417101F10101F101F1414141F00A6
:10072000101010F0000000001F101010101F10100B
:100730001010F010000000FF10101010101010101A
:1007400010FF10000000FF140000FF00FF00001F5A
:1007500010170000FC04F414141710171414F404F8
:10076000F40000FF00F714141414141414F700F725
:10077000141414171410101F101F141414F4141050
:1007800010F010F000001F101F0000001F140000E8
:1007900000FC140000F010F01010FF10FF141414EF
:1007A000FF141010101F00000000F010FFFFFFFFEB
:1007B000FFF0F0F0F0F0FFFFFF0000000000FFFF8F
:1007C0000F0F0F0F0F38444438447C2A2A3E147E02
:1007D00002020606027E027E0263554941633844E6
:1007E000443C04407E201E2006027E020299A5E7BA
:1007F000A5991C2A492A1C4C7201724C304A4D4D55
:10080000303048784830BC625A463D3E494949003C
:100810007E0101017E2A2A2A2A2A44445F44444058
:10082000514A444040444A51400000FF0103E080E7
:10083000FF000008086B6B083612362436060F09D5
:100840000F06000018180000001010003040FF01D3
:1008500001001F01011E00191D1712003C3C3C3C09
:1008600000000000000F0180961180FFB103012CF1
:100870002DB203012C2DB306012C2D012C2DB4011A
:1008800007C003A20284C101C5C2020A00C3028AD2
:100890002AC4028AEEC5010E20003601C83A0105BD
:1008A000022A04000200812B04000100A0022A0495
:1008B0000000007F2B040000009F04E010021C07D2
:1008C000123732292D29252B3900010310E110039D
:1008D0001D07062E2C292D2E2E373F000002101347
:1008E000800A298064120180321180FF3A81050A52
:1008F000B1830006030A360108B6021502B40100EE
:10090000C08202700AC10105C2020102C5823C38E0
:100910000AFC021115E01009160920211B131917F2
:10092000151E2B0405020EE1900B14081E221D1843
:100930001E1B1A242B0606020F0A2A04000200813D
:100940002B040002008113800A2980FFD9042A0A9F
:100950005A10531B230A11241FBECFEFD1E2DEBF72
:10096000CDBF00E00CBF12E0A0E0B2E0E2E2FAE5A9
:1009700000E00BBF02C007900D92AE3FB107D9F760
:100980001CE0AEEFB2E001C01D92AD31B107E1F75E
:1009900019E0C4E5D9E004C02297FE010E94002DB1
:1009A000CC34D107C9F70E9424080C94D3290C94A5
:1009B00000008EEF92E066E047E028E00E94301AE7
:1009C00010922F03109230031092330310923503CC
:1009D0008FEF9FEF90933D0380933C03EEE3F3E0B2
:1009E00080E090E0A0E8BFEB108283839483A5832E
:1009F000B68387839087A187B2873B9623E0EC3A42
:100A0000F20791F71092AD031092AC031092AF036E
:100A10001092AE031092B1031092B0031092B30380
:100A20001092B2030E945C0B6093B5037093B603FF
:100A30008093B7039093B803EDEBF3E0118210823B
:100A400013821282349684E0ED30F807B9F7EFE0B4
:100A5000F4E080E090E0A0E8BFEB10828383948311
:100A6000A583B68387839087A187B2873B9624E0CE
:100A7000EB3EF20791F70895AF92BF92CF92DF92CB
:100A8000EF92FF920F931F93CF93DF931FE0C12E3E
:100A900014E0D12EC0E0D0E0BBE0AB2EB12CF601CB
:100AA00080818130D1F4CA9D8001CB9D100DDA9DEB
:100AB000100D1124015F1B4FC8010E9408097C0121
:100AC000C8010E941109AC018EEF92E0B70123E04A
:100AD00030E000E010E00E94761321968BE090E079
:100AE000C80ED91EC431D105D1F6DF91CF911F9127
:100AF0000F91FF90EF90DF90CF90BF90AF9008954F
:100B00006F927F928F929F92AF92BF92CF92DF921D
:100B1000EF92FF920F931F93CF93DF934B015C01F2
:100B20008DE399E060E072E00E945E124091B903AB
:100B30005091BA036091BB037091BC038DE399E0BF
:100B40002AE030E00E944A128DE399E06AE072E008
:100B50000E945E124091EB045091EC046091ED0410
:100B60007091EE048DE399E02AE030E00E944A1291
:100B70002091B9033091BA034091BB035091BC035B
:100B80008091EB049091EC04A091ED04B091EE04FF
:100B900082179307A407B50718F481E08093F10446
:100BA0008091F104882309F460C08DE399E06AE143
:100BB00072E00E9461121092F1042091EF043091D2
:100BC000F004F901EE0FFF1FEE0FFF1FEA5FFE4F6B
:100BD00085919591A591B491AC019093F304809384
:100BE000F2042E5F3F4F3093F0042093EF04F9019D
:100BF000EE0FFF1FEE0FFF1FEE5FFE4F85919591E9
:100C0000A591B4918093EB049093EC04A093ED0430
:100C1000B093EE04EFE0F4E020E030E08081882340
:100C200071F58BE090E0289F8001299F100D389F7F
:100C3000100D1124015F1B4FF8015283418381E0A5
:100C40008083C8016BEF7FEF0E942B09F80121819F
:100C5000328189E190E0289FB001299F700D389F73
:100C6000700D1124C8010E941A098FE0C82E84E07B
:100C7000D82EC0E0D0E00BE0602E712C07C02F5FB3
:100C80003F4F3B962431310549F6EFCFF601808185
:100C9000813059F5C69D7001C79DF00CD69DF00CB2
:100CA00011248FE094E0E80EF91EC7010E940809A4
:100CB0008C01C7010E941109AC01455050408EEFD4
:100CC00092E0B80124E030E00FEF1FEF0E947613AE
:100CD000C701B501A4010E943C09C7010E94110986
:100CE0008E3A910514F0F601108221968BE090E087
:100CF000C80ED91EC431D10549F6DF91CF911F919D
:100D00000F91FF90EF90DF90CF90BF90AF909F90AA
:100D10008F907F906F900895EF92FF920F931F93A3
:100D2000CF93DF938EEF92E060E040E020E00E94FE
:100D3000D618BC018EEF92E00E9443188EEF92E02D
:100D400060E04FEF20E00E94D6187C018EEF92E029
:100D500060E070E047E850E020E830E002E010E0BA
:100D60000E945E188EEF92E06FEF40E020E00E945C
:100D7000D6187C018EEF92E060E070E049E950E027
:100D800020E830E00E945E18C4E1D0E08EEF92E0EF
:100D9000BE0140E050E02BE030E000EA10E0EE243D
:100DA000EA94FE2C0E945E186996C837D10571F747
:100DB0001092F0041092EF04E2E0F1E08591959139
:100DC000A591B4918093EB049093EC04A093ED046F
:100DD000B093EE04DF91CF911F910F91FF90EF90B0
:100DE0000895AF92BF92CF92DF92EF92FF920F934E
:100DF0001F937C01882777FD8095982F0E94D62A23
:100E00005B016C010027F7FC0095102FC801B701AA
:100E10000E94D62A20E030E04AEF53E40E943B2AA9
:100E20002AE037ED43EA5CE30E94D7299B01AC013D
:100E3000C601B5010E94BE2B2AED3FE049EC50E40B
:100E40000E94182B0E94212C20E030E040E85FE354
:100E50000E94D72920E030E040E751E40E94BE2BF9
:100E600020E030E048EC52E40E94D7290E94A32AF7
:100E7000CB011F910F91FF90EF90DF90CF90BF902B
:100E8000AF900895CF92DF92EF92FF920F931F934E
:100E9000CF93DF93CDEBD3E0EE24FF24CC24DD24ED
:100EA000688179814A815B818EEF92E021E030E0B8
:100EB00000E010E00E947613D982C88260910D0490
:100EC00070910E04C7010E94F106AC019B838A83D6
:100ED000688179818EEF92E021E030E00FEE13E03F
:100EE0000E9476130894E11CF11C249687E090E0A0
:100EF000C80ED91E94E1E916F10491F680910D0413
:100F000090910E04039690930E0480930D04DF914C
:100F1000CF911F910F91FF90EF90DF90CF900895A8
:100F20000F931F930EEF12E0C80165E070E042E3FB
:100F300050E00E947916C8016FE078E70E9485169C
:100F4000C80162E00E947F16C80164E272E00E945C
:100F50005E12C80164E170E046E450E00E94791638
:100F6000C80160E27DEF0E948516C80160E00E9422
:100F70007F16C8016FE272E00E945E121F910F910E
:100F80000895EF920F930E94DB0B8EEF92E062E0E8
:100F90000E94021A8DE399E040E855E260E070E0BB
:100FA0000E942F0F8DE399E06EE372E00E945E12C3
:100FB00089EB99E065E04FEF2FEF0FEF0E94761B72
:100FC000882331F48DE399E066E572E00E946112B6
:100FD0008DE399E06EE572E00E9461128DE399E085
:100FE00062E672E00E945E128AE293E061E045E010
:100FF0002FEF0FEFEE24EA940E94641E882339F449
:101000008DE399E066E572E00E946112FFCF8DE307
:1010100099E06EE572E00E94611289E060E00E9452
:101020003D0C89E061E00E94F00C8EEF92E060E000
:1010300040E020E00E94D618BC018EEF92E00E94B2
:1010400043180F91EF9008952F923F924F925F9225
:101050006F927F928F929F92AF92BF92CF92DF92C8
:10106000EF92FF920F931F93CF93DF930E94C107DC
:1010700080E00E94D20A1C0181E00E94D20A2C0169
:1010800080E490E09093AD038093AC0380E590E022
:101090009093AF038093AE03C0E0D0E088249924FE
:1010A000AA24BB24650106C00894A11CB11CC11C64
:1010B000D11C430180E00E94D20A7C0181E00E94A1
:1010C000D20A8C0189E00E94230D3C01E218F3084A
:1010D000F0923803E09237030419150910933A038C
:1010E0000093390310923B038815990581F081E044
:1010F0006816710461F481E080933B0380913C03A6
:1011000090913D03019690933D0380933C030E9490
:101110005C0B2091B5033091B6034091B703509119
:10112000B8037B018C01E21AF30A040B150B6093E0
:10113000B5037093B6038093B7039093B8032097D9
:10114000F1F4A114B104C104D10411F40E94900778
:101150000E94420720913B03213049F480913C03D7
:1011600090913D031816190614F42093B40380914E
:10117000B403882309F498CF1092B40309C0C13096
:10118000D10509F096CFA114B104C104D10429F40A
:101190000E948C06AA24BB246501C801B7010E94E5
:1011A00080050E943C058091B9039091BA03A091FB
:1011B000BB03B091BC038E0D9F1DA01FB11F809378
:1011C000B9039093BA03A093BB03B093BC032091DF
:1011D0003B03213049F480913C0390913D03181664
:1011E000190614F42093B4038091B403882341F4C6
:1011F0000894A11CB11CC11CD11CC1E0D0E059CF86
:101200001092B403C1E0D0E0AA24BB24650151CF01
:10121000FC0163817481858196810E94A32ACB01A0
:101220000895FC0167817085818592850E94A32ABB
:10123000CB0108950F931F938C01882777FD80952C
:10124000982F0E94D62AF80163837483858396833E
:101250001F910F9108950F931F938C01882777FD9D
:101260008095982F0E94D62AF8016783708781871E
:1012700092871F910F9108950F931F938C01CB01BB
:10128000BA010E94D42A20E034E244E759E40E94E3
:101290003B2A20E030E040EA52E40E94BE2B9B0152
:1012A000AC01F80167817085818592850E94D729FC
:1012B000F80167837087818792871F910F91089546
:1012C0001F920F920FB60F920BB60F9211242F930D
:1012D0003F934F935F936F937F938F939F93AF93BE
:1012E000BF93EF93FF9380919E0286FF0DC0809184
:1012F000F80690E0882309F491E09093F806809135
:10130000F806882309F077C08091F606E091F70689
:10131000682F772767FD709587FF28C0F0E0EE0FF4
:10132000FF1FDF01A457BD4F4D915C91EC56FD4F5F
:10133000A081B1812091F6043091F506822F90E0D2
:10134000F82FEE27880F991FE81BF90BE30FF11D0B
:10135000E750FB4F808190E022273327261B370B75
:1013600002C0959587952A95E2F723C0F0E0EE0F2D
:10137000FF1FDF01A457BD4F4D915C91EC56FD4F0F
:10138000A081B1812091F6043091F506822F90E082
:10139000F82FEE27880F991FE81BF90BE30FF11DBB
:1013A000E750FB4F808190E002C0880F991F6A953B
:1013B000E2F711969C938E938D919C91FA01918303
:1013C00080838091F5068F5F8093F5068091F50606
:1013D0008E3F88F01092F506E091F604F0E0E456B6
:1013E000FD4F81E080838091F60490E0882309F42A
:1013F00091E09093F604FF91EF91BF91AF919F918F
:101400008F917F916F915F914F913F912F910F90AD
:101410000BBE0F900FBE0F901F9018958130910555
:1014200041F46F5F7F4F71F489EF96E00E94511A8B
:101430000895892B39F46F5F7F4F21F489EF96E08F
:101440000E94641A089580E090E06FEF7FEF0E94A1
:101450000E0A089581E090E06FEF7FEF0E940E0A80
:1014600008951F920F920FB60F920BB60F92112490
:101470002F933F934F935F936F937F938F939F939C
:10148000AF93BF93EF93FF938091F604E0E0F0E019
:10149000882311F4E1E0F0E0E456FD4F80818823D9
:1014A00009F46DC08091F60490E0882309F491E07E
:1014B0009093F804E091F706F0E0EE0FFF1FEC5771
:1014C000FD4F0190F081E02D80818F7D80837894A5
:1014D00089EF96E00E947D1A2091F4043091F50482
:1014E0002817390738F180919E0283FF09C089EFE0
:1014F00096E04CE250E060E070E00E94C01A32C01A
:10150000E091F706F0E0EE0FFF1FEC57FD4F019062
:10151000F081E02D80818E7D808389EF96E00E94AE
:10152000A11A882321F089EF96E00E94AE1A10924A
:10153000F70425C02091F804822F90E0782F6627C9
:10154000880F991F681B790B67507B4F89EF96E0D6
:101550004EEF50E00E94D21AE091F804F0E0E45619
:10156000FD4F1082E091F706F0E0EE0FFF1FEC5701
:10157000FD4F0190F081E02D808180628083FF919A
:10158000EF91BF91AF919F918F917F916F915F91FB
:101590004F913F912F910F900BBE0F900FBE0F9068
:1015A0001F901895382F863308F0365320917B0012
:1015B000832F86958695869590E08170907043E0A4
:1015C000880F991F4A95E1F7277F282B20937B00EE
:1015D000377080919F028295880F880F807C832BC3
:1015E00080937C0080917A00806480937A0080915F
:1015F0007A0086FDFCCF2091780040917900942FED
:1016000080E030E0282B392BC90108951F920F92FA
:101610000FB60F9211242F933F938F939F93AF9305
:10162000BF938091180790911907A0911A07B09164
:101630001B0730911C070196A11DB11D232F2D5FA3
:101640002D3720F02D570196A11DB11D20931C07A9
:101650008093180790931907A0931A07B0931B075C
:101660008091140790911507A0911607B091170764
:101670000196A11DB11D8093140790931507A093A7
:101680001607B0931707BF91AF919F918F913F912C
:101690002F910F900FBE0F901F9018958FB7F89451
:1016A000209118073091190740911A0750911B0794
:1016B0008FBFB901CA0108959FB7F894209114070C
:1016C00030911507409116075091170786B5A89BD2
:1016D00006C08F3F21F02F5F3F4F4F4F5F4F9FBF9F
:1016E000542F432F322F2227280F311D411D511D0A
:1016F00082E0220F331F441F551F8A95D1F7B9018D
:10170000CA0108959B01AC017FB7F894809114073A
:1017100090911507A0911607B091170766B5A89B81
:1017200005C06F3F19F00196A11DB11D7FBFBA2FF3
:10173000A92F982F8827860F911DA11DB11D62E04A
:10174000880F991FAA1FBB1F6A95D1F7BC012DC036
:10175000FFB7F8948091140790911507A091160790
:10176000B0911707E6B5A89B05C0EF3F19F00196A9
:10177000A11DB11DFFBFBA2FA92F982F88278E0F4B
:10178000911DA11DB11DE2E0880F991FAA1FBB1F6B
:10179000EA95D1F7861B970B885E9340C8F22150DB
:1017A00030404040504068517C4F21153105410583
:1017B000510571F60895789484B5826084BD84B52E
:1017C000816084BD85B5826085BD85B5816085BD3C
:1017D000EEE6F0E0808181608083E1E8F0E0108255
:1017E000808182608083808181608083E0E8F0E096
:1017F000808181608083E1EBF0E080818460808380
:10180000E0EBF0E0808181608083E1E9F0E08081BD
:1018100082608083808181608083E0E9F0E0808164
:1018200081608083E1EAF0E0808182608083808152
:1018300081608083E0EAF0E0808181608083E1E282
:10184000F1E0808182608083808181608083E0E23A
:10185000F1E0808181608083EAE7F0E0808184604C
:1018600080838081826080838081816080838081A9
:10187000806880831092C1000895CF93DF93482F32
:1018800050E0CA0182529D4FFC01349148565D4F91
:10189000FA018491882369F190E0880F991FFC0177
:1018A000E65BFD4FA591B491FC01EC59FD4FC5914C
:1018B000D491662351F42FB7F8948C91932F90957F
:1018C00089238C93888189230BC0623061F42FB700
:1018D000F8948C91932F909589238C938881832BF6
:1018E00088832FBF06C09FB7F8948C91832B8C936D
:1018F0009FBFDF91CF910895893009F449C08A30A4
:10190000A0F4843051F1853040F4823079F1833095
:1019100000F5813009F063C026C0873079F1883046
:1019200098F5863009F05BC025C08D3009F442C0BF
:101930008E3028F48B30B1F18C30C0F52DC0803161
:1019400009F442C0813109F445C08F3009F047C025
:1019500037C0809180008F7703C0809180008F7D99
:1019600080938000089584B58F7702C084B58F7D01
:1019700084BD08958091B0008F7703C08091B0003E
:101980008F7D8093B0000895809190008F7707C07D
:10199000809190008F7D03C080919000877F80931D
:1019A000900008958091A0008F7707C08091A000DB
:1019B0008F7D03C08091A000877F8093A000089551
:1019C000809120018F7703C0809120018F7D8093CB
:1019D0002001089580912001877F80932001089540
:1019E000FF920F931F93F62E482F50E0CA018C5D93
:1019F0009C4FFC012491CA0182529D4FFC0114911D
:101A000048565D4FFA0104910023C9F0222319F0D2
:101A1000822F0E947C0CE02FF0E0EE0FFF1FEC59AC
:101A2000FD4FA591B4919FB7F894FF2021F48C91BC
:101A30001095812302C08C91812B8C939FBF1F91A5
:101A40000F91FF9008950F931F93482F50E0CA0104
:101A50008C5D9C4FFC012491CA0182529D4FFC0178
:101A6000049148565D4FFA011491112319F420E0B6
:101A700030E015C0222319F0822F0E947C0C812FA8
:101A800090E0880F991F82589D4FFC01A591B49159
:101A90008C9120E030E0802311F021E030E0C9019A
:101AA0001F910F9108951F920F920FB60F920BB6D0
:101AB0000F9211242F933F934F938F939F93EF9304
:101AC000FF934091C60020915D0730915E072F5F24
:101AD0003F4F2F73307080915F07909160072817F8
:101AE000390759F0E0915D07F0915E07E35EF84F2A
:101AF000408330935E0720935D07FF91EF919F91A4
:101B00008F914F913F912F910F900BBE0F900FBE71
:101B10000F901F9018951F920F920FB60F920BB651
:101B20000F9211242F933F934F938F939F93EF9393
:101B3000FF934091CE002091E5073091E6072F5F9B
:101B40003F4F2F7330708091E7079091E807281777
:101B5000390759F0E091E507F091E607EB55F84FAA
:101B600040833093E6072093E507FF91EF919F9123
:101B70008F914F913F912F910F900BBE0F900FBE01
:101B80000F901F9018951F920F920FB60F920BB6E1
:101B90000F9211242F933F934F938F939F93EF9323
:101BA000FF934091D60020916D0830916E082F5F11
:101BB0003F4F2F73307080916F08909170082817F5
:101BC000390759F0E0916D08F0916E08E35DF74F29
:101BD000408330936E0820936D08FF91EF919F91A1
:101BE0008F914F913F912F910F900BBE0F900FBE91
:101BF0000F901F9018951F920F920FB60F920BB671
:101C00000F9211242F933F934F938F939F93EF93B2
:101C1000FF93409136012091F5083091F6082F5F2F
:101C20003F4F2F7330708091F7089091F808281774
:101C3000390759F0E091F508F091F608EB54F74FA9
:101C400040833093F6082093F508FF91EF919F9120
:101C50008F914F913F912F910F900BBE0F900FBE20
:101C60000F901F9018951F920F920FB60F920BB600
:101C70000F9211242F933F938F939F93EF93FF9392
:101C80002091A1073091A2078091A3079091A4070A
:101C90002817390731F48091C1008F7D8093C100EE
:101CA00014C0E091A307F091A407EF59F84F2081E9
:101CB0008091A3079091A40701968F7390709093E1
:101CC000A4078093A3072093C600FF91EF919F91F3
:101CD0008F913F912F910F900BBE0F900FBE0F90E1
:101CE0001F9018951F920F920FB60F920BB60F927E
:101CF00011242F933F938F939F93EF93FF93209102
:101D0000290830912A0880912B0890912C082817D7
:101D1000390731F48091C9008F7D8093C90014C0C8
:101D2000E0912B08F0912C08E751F84F2081809129
:101D30002B0890912C0801968F73907090932C082B
:101D400080932B082093CE00FF91EF919F918F916C
:101D50003F912F910F900BBE0F900FBE0F901F90D1
:101D600018951F920F920FB60F920BB60F92112477
:101D70002F933F938F939F93EF93FF932091B108FD
:101D80003091B2088091B3089091B40828173907B0
:101D900031F48091D1008F7D8093D10014C0E09107
:101DA000B308F091B408EF58F74F20818091B30841
:101DB0009091B40801968F7390709093B4088093BB
:101DC000B3082093D600FF91EF919F918F913F919F
:101DD0002F910F900BBE0F900FBE0F901F90189574
:101DE0001F920F920FB60F920BB60F9211242F93E2
:101DF0003F938F939F93EF93FF93209139093091F5
:101E00003A0980913B0990913C092817390731F430
:101E1000809131018F7D8093310114C0E0913B09A5
:101E2000F0913C09E750F74F208180913B09909158
:101E30003C0901968F73907090933C0980933B0905
:101E400020933601FF91EF919F918F913F912F91B8
:101E50000F900BBE0F900FBE0F901F901895AF9272
:101E6000BF92DF92EF92FF920F931F93CF93DF9376
:101E7000EC017A018B01DD24403081EE580780E0CF
:101E8000680780E0780711F0DD24D39491E0A92E53
:101E9000B12CEC89FD89DD2069F0C5010E8C02C0F2
:101EA000880F991F0A94E2F7808360E079E08DE360
:101EB00090E005C0108260E874E88EE190E0A8012F
:101EC00097010E94DC2C21503040404050405695F4
:101ED00047953795279580E12030380720F0DD20A1
:101EE00011F0DD24D6CFE889F9893083EA89FB89AE
:101EF0002083EE89FF89408121E030E0C9010A8C0E
:101F000002C0880F991F0A94E2F7482B4083EE899C
:101F1000FF894081C9010B8C02C0880F991F0A9468
:101F2000E2F7482B4083EE89FF894081C9010C8C80
:101F300002C0880F991F0A94E2F7482B4083EE896C
:101F4000FF8980810D8C02C0220F331F0A94E2F7B3
:101F5000209528232083DF91CF911F910F91FF902F
:101F6000EF90DF90BF90AF900895DC011C96ED914B
:101F7000FC911D97E05CFF4F21913191808191810F
:101F8000281B390B2F733070C9010895DC011C9692
:101F9000ED91FC911D97E05CFF4F20813181E05471
:101FA000F040DF01AE5BBF4F8D919C9111972817D8
:101FB000390719F42FEF3FEF07C08D919C91E80F7F
:101FC000F91F8081282F30E0C9010895DC011C969B
:101FD000ED91FC911D97E05CFF4F20813181E05431
:101FE000F040DF01AE5BBF4F8D919C911197281798
:101FF000390719F42FEF3FEF10C08D919C91119785
:10200000E80FF91F20818D919C91119701968F7394
:10201000907011969C938E9330E0C9010895FC0155
:1020200086859785DC01A05CBF4FFC01EE5BFF4F0E
:102030002D913C9111978081918128173907C1F723
:102040000895CF93DF93EC01EE85FF85E05CFF4FB1
:1020500020813181E054F0402F5F3F4F2F7330706B
:10206000DF01AE5BBF4F8D919C9111972817390707
:10207000D1F3E05CFF4F80819181E054F040E80FA4
:10208000F91F6083EE85FF85E05CFF4F318320837D
:10209000EE89FF89208181E090E00D8C02C0880FDD
:1020A000991F0A94E2F7282B208381E090E0DF91CA
:1020B000CF9108951F931092400910923F0928EE86
:1020C00033E040E050E020934109309342094093CF
:1020D00043095093440968EA72E070933E096093A3
:1020E0003D098DE197E090934A098093490981E683
:1020F00097E090934C0980934B0985EC90E0909386
:102100004E0980934D0984EC90E0909350098093A0
:102110004F0980EC90E0909352098093510981EC33
:1021200090E0909354098093530986EC90E090934B
:1021300056098093550914E010935709B3E0B09302
:102140005809A7E0A0935909F5E0F0935A09E1E096
:10215000E0935B0910925F0910925E092093600979
:1021600030936109409362095093630970935D094C
:1021700060935C0985EA97E0909369098093680908
:1021800089EE97E090936B0980936A098DEC90E05B
:1021900090936D0980936C098CEC90E090936F099B
:1021A00080936E0988EC90E0909371098093700998
:1021B00089EC90E090937309809372098EEC90E023
:1021C000909375098093740910937609B0937709F9
:1021D000A0937809F0937909E0937A0910927E0927
:1021E00010927D0920937F093093800940938109E3
:1021F0005093820970937C0960937B098DE298E08B
:10220000909388098093870981E798E090938A09E1
:102210008093890985ED90E090938C0980938B09D8
:1022200084ED90E090938E0980938D0980ED90E08D
:102230009093900980938F0981ED90E0909392099B
:102240008093910986ED90E090939409809393098F
:1022500010939509B0939609A0939709F093980964
:10226000E093990910929D0910929C0920939E0970
:1022700030939F094093A0095093A10970939B0943
:1022800060939A0985EB98E09093A7098093A6093B
:1022900089EF98E09093A9098093A80985E391E0DC
:1022A0009093AB098093AA0984E391E09093AD09E0
:1022B0008093AC0980E391E09093AF098093AE09DD
:1022C00081E391E09093B1098093B00986E391E0B6
:1022D0009093B3098093B2091093B409B093B509F0
:1022E000A093B609F093B709E093B8091F91089538
:1022F0000895CF92DF92EF92FF920F931F93CF93A7
:10230000DF937C016B018A01C0E0D0E00FC0D601F1
:102310006D916D01D701ED91FC910190F081E02D5F
:10232000C7011995C80FD91F01501040011511059B
:1023300071F7CE01DF91CF911F910F91FF90EF9038
:10234000DF90CF900895EF92FF920F931F938C012F
:10235000DC01ED91FC910190F081E02D6DE019958B
:102360007C01D801ED91FC910190F081E02DC80134
:102370006AE019959C012E0D3F1DC9011F910F9117
:10238000FF90EF900895CF93DF93DB010D90002035
:10239000E9F71197A61BB70BEC01E881F9810280E0
:1023A000F381E02DAD011995DF91CF9108954F9202
:1023B0005F927F928F929F92AF92BF92CF92DF9265
:1023C000EF92FF920F931F93DF93CF93CDB7DEB7BA
:1023D000A1970FB6F894DEBF0FBECDBF2C01742EAF
:1023E000CB01223008F42AE019A231E2C32ED12C0D
:1023F000CC0EDD1E822E9924AA24BB24672D752FB6
:10240000A50194010E94DC2C79018A01C801B70161
:10241000A50194010E94962C472D461B0894C108E3
:10242000D1084A3014F4405D01C0495CF601408394
:10243000E114F1040105110521F07E2C5F2DC80186
:10244000DDCFC201B6010E94C311A1960FB6F89468
:10245000DEBF0FBECDBFCF91DF911F910F91FF90D7
:10246000EF90DF90CF90BF90AF909F908F907F9034
:102470005F904F900895DC012115310541F4ED91F5
:10248000FC910190F081E02D642F199508950E9430
:10249000D7110895EF92FF920F931F937C010E9432
:1024A0003B128C01C7010E94A3119C01200F311F18
:1024B000C9011F910F91FF90EF9008950E94C311E1
:1024C0000895EF92FF920F931F937C010E94C31116
:1024D0008C01C7010E94A311080F191FC8011F9189
:1024E0000F91FF90EF900895FC011382128288EB08
:1024F00092E09183808375836483578346837187D9
:10250000608753874287158A158614861786168634
:1025100021E0248B8FEF9FEF938B828B918B808BAD
:10252000268B08952F923F924F925F926F927F92E7
:102530008F929F92AF92BF92CF92DF92EF92FF92D3
:102540000F931F93DF93CF93CDB7DEB72E970FB6C0
:10255000F894DEBF0FBECDBF9E878D871B015E83C3
:102560004D83A701260171E0C72ED12CC21AD30AD0
:10257000C901880F991F66277727681B790B7A8313
:1025800069836D807E8008946108710883E0882EDD
:10259000912C8E0C9F1C790181E090E09C838B83B1
:1025A000AA24BB2410E0D801A170B070B887AF8313
:1025B000FA013196FA87E987B801627070707C87FA
:1025C0006B8777C0D7FC0AC00894E108F1088981BD
:1025D0009A8102969A838983C80ED91E0894A11CF9
:1025E000B11CAB81BC811296BC83AB83EF81F885B3
:1025F000EF2B41F1AD85BE85ED91FC911197B501B1
:10260000620D731D4D815E814E195F099701220F86
:10261000331F89859A85280F391F0084F185E02DA5
:10262000CD0182011995AD85BE85ED91FC91119783
:10263000B701620D731D0084F185E02DCD01A3016A
:1026400094011995EB85FC85EF2B41F1AD85BE8595
:10265000ED91FC911197B1016A197B094D815E8161
:102660004E195F099701220F331F89859A85280F1C
:10267000391F0084F185E02DCD0182011995AD85CA
:10268000BE85ED91FC911197B1016E197F0900840F
:10269000F185E02DCD01A30194011995EB81FC8119
:1026A000CE0EDF1E08946108710862E070E0860EAD
:1026B000971EAE14BF040CF485CF2E960FB6F89477
:1026C000DEBF0FBECDBFCF91DF911F910F91FF9065
:1026D000EF90DF90CF90BF90AF909F908F907F90C2
:1026E0006F905F904F903F902F9008956F927F92E0
:1026F0008F929F92AF92BF92CF92DF92EF92FF9212
:102700000F931F937C014B013A0159016801DC01D1
:10271000ED91FC91421B530B220F331F2F5F3F4F54
:102720000084F185E02D1995C701B401A30195013D
:1027300003E0EE24FF240E9492121F910F91FF905C
:10274000EF90DF90CF90BF90AF909F908F907F9051
:102750006F9008952F923F924F925F926F927F9267
:102760008F929F92AF92BF92CF92DF92EF92FF92A1
:102770000F931F93DF93CF9300D00F92CDB7DEB7A7
:102780003C017C836B836A015901FA82E98222242D
:1027900033249801241B350B37FF03C03095219556
:1027A0003F4FC5014B815C81841B950B97FF03C094
:1027B000909581959F4F821793075CF481E0282EB6
:1027C000312CC601CB80DC809C838B83C8018501C2
:1027D0005C018B819C81A816B90644F4C501AB80CD
:1027E000BC809C838B83C80186016C012501AB8171
:1027F000BC814A1A5B0A7801EC18FD08F7FE04C098
:10280000F094E194F108F394C016D10624F08824E2
:102810008A94982C03C0B1E08B2E912CC20162E007
:1028200070E00E94C92C8B0125C0D301ED91FC9171
:102830002114310441F00480F581E02DC301B6017B
:102840004B815C8107C00480F581E02DC3016B8161
:102850007C81A60129813A8119950E191F0917FF5C
:1028600004C0C80CD91C040D151DEB81FC813196E8
:10287000FC83EB834B815C81A416B506B4F60F9004
:102880000F900F900F90CF91DF911F910F91FF90BC
:10289000EF90DF90CF90BF90AF909F908F907F9000
:1028A0006F905F904F903F902F9008954F925F925E
:1028B0006F927F928F929F92AF92BF92CF92DF9250
:1028C000EF92FF920F931F936C015B014A01390154
:1028D0002801DC01ED91FC910284F385E02D870154
:1028E0001995D601ED91FC91A40141505040440D41
:1028F000551D0284F385E02DC601B501930119959C
:10290000D601ED91FC910084F185E02DC601B50161
:10291000A40192011995D601ED91FC910894A108AA
:10292000B108A60CB71C0084F185E02DC601B501E5
:10293000A401920119951F910F91FF90EF90DF90E4
:10294000CF90BF90AF909F908F907F906F905F904F
:102950004F900895CF92DF92EF92FF920F931F93C3
:10296000DC016B017801ED91FC918A01015010406E
:10297000020F131F0680F781E02D960119951F9114
:102980000F91FF90EF90DF90CF900895CF92DF925C
:10299000EF92FF920F931F93DC016A01C901780146
:1029A000ED91FC9111979B0121503040280F391F68
:1029B0000680F781E02DCD01860119951F910F91B9
:1029C000FF90EF90DF90CF9008956F927F928F925B
:1029D0009F92AF92BF92CF92DF92EF92FF920F93AE
:1029E0001F93CF93DF935C013A0169014801EB012A
:1029F000C60ED71E0DC0D501ED91FC910084F18566
:102A0000E02DC501BE01A30194018701199521960E
:102A1000CC15DD0584F3DF91CF911F910F91FF90CD
:102A2000EF90DF90CF90BF90AF909F908F907F906E
:102A30006F900895EF92FF920F931F93FC017B011B
:102A4000A081B18120853185028513851E960D9068
:102A5000BC91A02D60E070E040E050E0FD011995D0
:102A60001F910F91FF90EF9008952F923F924F92F8
:102A70005F926F927F928F929F92AF92BF92CF920E
:102A8000DF92EF92FF920F931F93DF93CF93CDB717
:102A9000DEB72F970FB6F894DEBF0FBECDBF5C0137
:102AA0005E834D8318870F83FA86E986CB86DC0127
:102AB00018968D919C911997681779070CF0A4C00E
:102AC0001A968D919C911B97481759070CF09CC042
:102AD000EC2DF0E0FF87EE87CF01880F991F8E0F56
:102AE0009F1F880F991F860F971F181619060CF045
:102AF0008BC0CF01F3E0880F991FFA95E1F7840F9F
:102B0000951F181619060CF07FC085E0289FA001BC
:102B100011245A8349832B011B011C825C8155308F
:102B200011F480E005C0E981FA81E659FC4F8491F7
:102B30002C863D866D807E8043011B82C82EDD245D
:102B400080FF1CC0D501ED91FC91BB85B13049F4EB
:102B50000480F581E02DC501B201A3012F813885E4
:102B600022C00684F785E02DC5016C857D85A40112
:102B70002E853F858901EF80F88423C0E985FA8599
:102B80002F813885E217F307E9F0D501ED91FC912B
:102B9000BB85B13051F40480F581E02DC501B2014F
:102BA000A30129853A8519950DC00684F785E02D86
:102BB000C5016C857D85A4012E853F858901E98449
:102BC000FA841995EB81EF5FEB832E853F85820EAA
:102BD000931E0894611C711CE83021F0D594C794B1
:102BE0008C2DACCF3C813F5F3C834E855F85240EAE
:102BF000351E0894411C511C89819A8101969A8343
:102C00008983363009F08ACF2F960FB6F894DEBF4D
:102C10000FBECDBFCF91DF911F910F91FF90EF902D
:102C2000DF90CF90BF90AF909F908F907F906F90EC
:102C30005F904F903F902F900895CF92EF92FF9228
:102C40000F931F93CF93DF93EC01262F6A3061F42B
:102C50002C8930E003E0220F331F0A95E1F78E85BF
:102C60009F85820F931F37C06D30C9F16C857D85BC
:102C70004E855F8508891989EA88FB88CC880E947F
:102C800035152C8986E0289FB00111248C859D85FF
:102C9000680F791F7D876C878E89882301F1422F09
:102CA00050E08AEF9FEF9C01429FC001439F900D2F
:102CB000529F900D112428853985820F931F861706
:102CC00097076CF413E0440F551F1A95E1F78E85B2
:102CD0009F85840F951F9F878E871D861C8681E0A8
:102CE00090E0DF91CF911F910F91FF90EF90CF90E7
:102CF0000895FC0175876487578746870895FC010E
:102D0000662309F461E0648B0895FC01738B628B88
:102D1000718B608B08950895DC0158968C915897BB
:102D2000882329F06EBD0DB407FEFDCF089530E86D
:102D300040E050E070E0832F90E08623972359967F
:102D4000ED91FC915A9796962C919697892B21F0AC
:102D50008081822B808304C080812095282320835A
:102D60005B96ED91FC915C97808197969C919797EB
:102D7000892B80835B96ED91FC915C97908197966F
:102D80008C91979780958923808336954F5F5F4F0D
:102D90004830510581F608950F931F938C01DC0193
:102DA0005F96ED91FC919097908199968C9199976F
:102DB0008095892380835D96ED91FC915E9790814B
:102DC00098968C91809589238083C8010E948C16E7
:102DD000D8015D96ED91FC915E97808198969C91CB
:102DE000892B80831F910F9108950F931F938C015E
:102DF000DC015F96ED91FC919097808199969C9172
:102E00009997892B80835D96ED91FC915E979081D7
:102E100098968C91809589238083C8010E948C1696
:102E2000D8015D96ED91FC915E97808198969C917A
:102E3000892B80831F910F910895CF92DF92EF929B
:102E4000FF920F931F937C01162FC42ED22E6AE29D
:102E50000E94CC16C70160E00E94F516F70162A53A
:102E6000610FC7010E94F516C70160E00E94F516C8
:102E7000F70162A56D0DC7010E94F516C7016BE24F
:102E80000E94CC16C70160E00E94F516F70163A509
:102E90006C0DC7010E94F516C70160E00E94F5168F
:102EA000F70163A5600FC7010E94F516C7016CE228
:102EB0000E94CC161F910F91FF90EF90DF90CF9062
:102EC0000895FF920F931F93CF93DF93EC01F22E9F
:102ED000132F77FD2EC088859985681779074CF5E3
:102EE00057FD27C08A859B854817590714F5262F5B
:102EF0002F5F042F0F5FCE010E941D17EF8DF8A1E9
:102F0000808199A5892B8083ED8DFE8D908188A588
:102F1000809589238083CE01612F0E948C16CE017B
:102F20006F2D0E948C16ED8DFE8D808198A5892BCA
:102F30008083DF91CF911F910F91FF900895DF92D1
:102F4000EF92FF920F931F93CF93DF93EC01FB015E
:102F50007901D02E8885998568177907D4F52A8557
:102F60003B8542175307ACF5C701840F951F2817FF
:102F700039071CF47901E41AF50A042F01500E0DEB
:102F8000CE016E2F2E2F0E941D17EF8DF8A180818C
:102F900099A5892B8083ED8DFE8D908188A58095E4
:102FA0008923808308C0CE01612F0E948C16CE0138
:102FB0006D2D0E948C160894E108F1088FEFE81639
:102FC0008FEFF80681F7ED8DFE8D808198A5892B16
:102FD0008083DF91CF911F910F91FF90EF90DF9051
:102FE0000895DF92EF92FF920F931F93CF93DF9399
:102FF000EC01FA017901D02E288539856217730713
:10300000D4F58A859B8548175907ACF5C701860F0B
:10301000971F281739071CF47901E61AF70A262F9B
:1030200021502E0DCE014E2F0E2F0E941D17EF8D19
:10303000F8A1808199A5892B8083ED8DFE8D9081EB
:1030400088A580958923808308C0CE01612F0E94C6
:103050008C16CE016D2D0E948C160894E108F108A3
:103060008FEFE8168FEFF80681F7ED8DFE8D8081EA
:1030700098A5892B8083DF91CF911F910F91FF90AD
:10308000EF90DF900895EF92FF920F931F93FC0152
:103090007B01A081B18120853185028513851E9633
:1030A0000D90BC91A02D60E070E040E050E0FD018B
:1030B00019951F910F91FF90EF900895AF92BF92D5
:1030C000CF92DF92EF92FF920F931F93CF93DF93F4
:1030D0006C015901E801DC0118962D913C9119977A
:1030E000621773070CF057C01A96ED91FC911B976D
:1030F0004E175F070CF04FC0C501860F971F2817AA
:1031000039071CF45901A61AB70ACE01840F951F7E
:10311000E817F9071CF4EF01C41BD50B262F21502B
:103120002A0D042F01500C0FC6010E941D17D60155
:103130005F96ED91FC919097808199969C919997DB
:10314000892B80835D96ED91FC915E979081989696
:103150008C918095892380838E010EC0C6016F2DCE
:103160000E948C16C6016E2D0E948C1621971C168B
:103170001D06A4F3015010401016110614F4E501C9
:10318000F6CFD6015D96ED91FC915E978081989681
:103190009C91892B8083DF91CF911F910F91FF909C
:1031A000EF90DF90CF90BF90AF90089550E04C7FAC
:1031B000507033E0440F551F3A95E1F730E093E04B
:1031C000359527959A95E1F7422B532B70E0687F50
:1031D0007070762F6627462B572BCA0108956623F9
:1031E00011F460E201C061E20E94CC160895AF9232
:1031F000BF92CF92DF92EF92FF920F931F93CF93E4
:10320000DF935C01FB01EB012196D49031C08E016C
:103210000F5F1F4FFE016491C5010E94CC1678011B
:103220000894E11CF11CF801C4900C2D0F77E70104
:10323000102F08C0FE012196E491C5016E2F0E9457
:10324000F51611501123B1F7E701C00FD11DC7FECC
:103250000EC0FE018491682F70E06F3F710511F47C
:1032600064EF71E0219680E090E00E94820BDA9496
:10327000DD2069F6DF91CF911F910F91FF90EF90C4
:10328000DF90CF90BF90AF9008950F931F93CF938F
:10329000DF93EC018B011BA61AA68AA161E00E94B4
:1032A0003D0C89A161E00E943D0CE9A14E2F50E048
:1032B000FA01E856FD4FE491F0E0EE0FFF1FEC59E4
:1032C000FD4F859194919E8F8D8FEAA12E2F30E036
:1032D000F901E856FD4FE491F0E0EE0FFF1FEC59C5
:1032E000FD4F8591949198A38F8F42525D4FFA01C3
:1032F000849188A722523D4FF901849189A7888D36
:10330000882361F00E947F2880E00E946E2881E07F
:103310000E94602880E00E9469283DC08DA161E084
:103320000E943D0C8CA161E00E943D0CEDA14E2F4E
:1033300050E0FA01E856FD4FE491F0E0EE0FFF1F78
:10334000EC59FD4FA591B491BC8FAB8FECA12E2F02
:1033500030E0F901E856FD4FE491F0E0EE0FFF1F79
:10336000EC59FD4F859194919A8F898F42525D4F10
:10337000FA0194919FA322523D4FF90184918EA3AB
:103380008C91909598239C93E98DFA8D90818EA1D4
:10339000809589238083ED8DFE8D908188A5809511
:1033A000892380838BA1882309F161E00E943D0C71
:1033B0008BA161E00E94F00C64EF71E080E090E08E
:1033C0000E94820B8BA160E00E94F00C64EF71E020
:1033D00080E090E00E94820B8BA161E00E94F00CE3
:1033E00064EF71E080E090E00E94820B011511050E
:1033F00021F0CE01B8010E94F718DF91CF911F9103
:103400000F9108951F93CF93DF93EC01162F65E67C
:1034100078E00E944519112351F4CE0160EA78E06A
:103420000E94F71882E08AA781E08BA705C0CE0131
:103430006DEA78E00E94F718CE016AEB78E00E940E
:10344000F718123041F4CE0166E30E94CC16CE018B
:1034500060EC0E94F5161F8BDF91CF911F910895AC
:10346000DF92EF92FF920F931F938C01F62EE42EC2
:10347000D22E60E870E040EA50E00E94741280EDC5
:1034800092E0F80191838083F1A2E2A2D3A281E0CD
:10349000808F15A214A21F910F91FF90EF90DF90E3
:1034A0000895FC011382128288EE93E0A0E0B0E060
:1034B00084839583A683B78388EE92E0918380838B
:1034C000128E118E14860895FC0188EE92E091838D
:1034D00080830895FC01A18DB28D109719F420E02E
:1034E00030E009C0ED91FC9111970190F081E02D41
:1034F000CD0119959C01C9010895DC015996ED9102
:10350000FC915A97309719F420E030E018C02489D4
:1035100035894689578983859485A585B685281B75
:10352000390B4A0B5B0B2030B0E83B07B0E04B0790
:10353000B0E05B0720F02FEF3FE740E050E0C9012B
:103540000895DC015996ED91FC915A97309711F44A
:1035500080E008958681811181E00895CF93DF9303
:10356000EC01898D9A8D009741F00E94AB20898DE6
:103570009A8D0E943B291A8E198EDF91CF91089562
:10358000FC01818D928D009711F480E008950E94D6
:103590009B1F0895FC01818D928D009711F00E9470
:1035A00061200895FC01818D928D009719F420E02F
:1035B00030E003C00E94B7209C01C9010895DF9349
:1035C000CF930F92CDB7DEB7FC01818D928D00971E
:1035D00049F0BE016F5F7F4F41E050E00E94B7208D
:1035E000019719F02FEF3FEF03C08981282F30E0BA
:1035F000C9010F90CF91DF910895EF92FF920F9341
:103600001F93DF93CF930F92CDB7DEB77C01DC0120
:1036100059968D919C915A97009719F400E010E00B
:103620001FC0BE016F5F7F4F41E050E00E94B72096
:10363000019719F00FEF1FEF13C08981082F10E0D9
:10364000D7015996ED91FC915A974385548565852C
:1036500076854150504060407040CF010E949B1FD2
:10366000C8010F90CF91DF911F910F91FF90EF90C4
:103670000895FC01818D928D009719F420E030E0CF
:1036800003C00E9444229C01C9010895FC01818D60
:10369000928D009719F420E030E003C00E94FC23D3
:1036A0009C01C901089582E090E0A0E0B0E0809321
:1036B000B9099093BA09A093BB09B093BC091092C1
:1036C000D0091092DA091092D9098AEF92E090930A
:1036D000D8098093D7091092DD091092FA09109247
:1036E000FB091092FE091092000A0895CF92DF9212
:1036F000EF920F93CF93DF93EC01362F542F722F5D
:10370000E02E6CE3C62ED12CC80ED91EC60161E096
:10371000432F252F072F0E94641E8823D1F00C2FE2
:10372000ED2ECE01B60141E00E948E24882339F4AB
:10373000CE01B60140E00E948E24882351F0CE01D4
:103740004E96602F7E2D0E94CC21882319F081E0B7
:1037500001C080E0DF91CF910F91EF90DF90CF908B
:103760000895382F8091040A8F3F29F43EBD0DB48F
:1037700007FEFDCF0895F894A091050AB091060ABE
:103780005091070A252F2095E091080AF091090A27
:1037900040910A0A642F609590E08C9182238C936B
:1037A00037FF03C08081842B02C080818623808301
:1037B0008C91852B8C939F5F983011F0330FEDCF58
:1037C00000000000000000008C9128232C937894C6
:1037D00008958091040A8F3F21F40E94B11B2EB5F9
:1037E00030C0F894E091080AF091090A8081909124
:1037F0000A0A892B8083E091050AF091060A6091FC
:10380000070AA0910B0AB0910C0A80910D0A482F6B
:1038100050E0762F709520E030E08081862B808309
:10382000220F8C9190E084239523892B09F021604D
:10383000808187238083000000003F5F383069F774
:103840007894822F0895FC01673020F086E185830B
:1038500080E00895262F30E060FD02C0663019F444
:103860008DB58E7F02C08DB581608DBD8CB58C7F8E
:103870008CBD4CB522FD02C090E001C092E03695AF
:103880002795822F8170842B892B8CBD81E0089530
:103890000F931F93CF93DF938B010E944E0BEB018D
:1038A0000E94E91B8F3F11F481E008C00E944E0B7B
:1038B0006C1B7D0B6017710798F380E0DF91CF914F
:1038C0001F910F910895FC01848160E00E94F00C2B
:1038D0000895FC01848161E00E94F00C0895CF926C
:1038E000DF92EF92FF920F931F93CF93DF937C01B0
:1038F0006A01FC018485882319F40FEF1FEF30C0A3
:1039000000E010E040E050E0212F332727FD3A95FA
:10391000F601E40FF51F808190E0282739273070E9
:10392000C901F4E095958795FA95E1F782279327E9
:10393000102F0027082719279C01322F22273295A4
:10394000307F0227132725E0880F991F2A95E1F77A
:10395000082719274F5F5F4FF2E040305F07A1F65D
:10396000862F0E94B11BC0E0D0E0F601EC0FFD1FD6
:1039700080810E94B11B219682E0C030D807A9F750
:10398000812F992787FD9A950E94B11B802F0E9455
:10399000B11B0E94E91BF70182878F71853011F4FA
:1039A00081E007C081E1F7018583C7010E94691C9E
:1039B00080E0DF91CF911F910F91FF90EF90DF900A
:1039C000CF9008950F931F93CF93DF93EC010E9444
:1039D0004E0B8B0109C00E944E0B601B710B6D5288
:1039E000714010F08FE00AC00E94E91B8A878F3F68
:1039F00091F38E3F11F481E006C08DE08D83CE01FE
:103A00000E94691C80E0DF91CF911F910F91089572
:103A1000CF93DF93EC018E81882319F40FC00E94AD
:103A2000E91B8F819885019698878F830197825033
:103A30009240A8F3CE010E94691C1E82DF91CF91B3
:103A40000895DF92EF92FF920F931F93CF93DF932E
:103A5000EC01D62E79018A010E94081DCE010E9438
:103A6000631CCE016CE271E00E94481C8D2D8064C5
:103A70000E94B11B812F9927AA27BB270E94B11B47
:103A8000C801AA27BB270E94B11BBB27A12F902FDB
:103A90008F2D0E94B11B8E2D0E94B11BDD2011F4D1
:103AA00085E906C088E0D81611F487E801C08FEFD9
:103AB0000E94B11B10E00E94E91B8A8787FF02C0A9
:103AC0001150C9F7DF91CF911F910F91FF90EF90A7
:103AD000DF900895CF92DF92EF92FF920F931F93A2
:103AE000CF93DF93EC017A018B01690141155105F8
:103AF0006105710511F482E133C08B85833039F0A3
:103B000039E0EE0CFF1C001F111F3A95D1F7CE01D2
:103B100068E1A80197010E94211D882311F084E02B
:103B20001FC0CE016EEFA6010E946F1C8823C9F052
:103B3000CE0168E572E00E94481C882311F485E1FB
:103B40000FC0CE016DE020E030E040E050E00E9488
:103B5000211D882321F40E94E91B882379F084E148
:103B60008D83CE010E94691C80E0DF91CF911F916F
:103B70000F91FF90EF90DF90CF900895CE010E94BB
:103B8000691C81E0F2CF6F927F928F929F92AF92E9
:103B9000BF92CF92DF92EF92FF920F931F93CF933A
:103BA000DF93EC015A016B01390148010115110540
:103BB00009F46AC0C801820F931F8150924008F037
:103BC0005EC08E81882371F088819981AA81BB8132
:103BD000481759076A077B0729F48F81988568166B
:103BE000790650F5A882B982CA82DB828B85833040
:103BF00039F0E9E0AA0CBB1CCC1CDD1CEA95D1F71E
:103C0000CE0161E1A60195010E94211D882319F0D2
:103C100083E08D8334C0CE010E94E21C882379F1B9
:103C200018861F8281E08E8307C00E94E91B8F8166
:103C30009885019698878F838F819885861597053B
:103C4000A0F300E010E008C00E94E91BF701E00FBC
:103C5000F11F80830F5F1F4F08151905A8F32F81EF
:103C60003885280D391D38872F838985882319F0D9
:103C70002050324048F0CE010E94081D05C0CE0100
:103C80000E94691C80E001C081E0DF91CF911F910B
:103C90000F91FF90EF90DF90CF90BF90AF909F90EB
:103CA0008F907F906F900895EF92FF920F931F93E4
:103CB000790120E030E000E012E00E94C31D1F9176
:103CC0000F91FF90EF900895BF92CF92DF92EF9205
:103CD000FF920F931F93CF93DF93EC01B62E1E2D0F
:103CE0001B8619861E821D821C864C8320930E0A19
:103CF00000930F0AE092040A0E944E0B6B018C8124
:103D000061E00E943D0CCE010E94691C1F3F09F436
:103D100061C080910F0A60E00E943D0C80910E0A04
:103D200061E00E943D0C8091040A61E00E943D0C1C
:103D3000E091040A2E2F332727FD3095F901E8562C
:103D4000FD4FE491F0E0EE0FFF1FEC59FD4F859120
:103D500094919093060A8093050A22523D4FF901EF
:103D600084918093070AE0910E0A2E2F332727FDB6
:103D70003095F901E856FD4FE491F0E0EE0FFF1F9A
:103D8000EC59FD4F859194919093090A8093080A0C
:103D900022523D4FF901849180930A0AE0910F0A63
:103DA0002E2F332727FD3095F901E856FD4FE4917A
:103DB000F0E0EE0FFF1FE258FD4F85919491909334
:103DC0000C0A80930B0A22523D4FF9018491809393
:103DD0000D0A19C082E360E00E943D0C83E361E0BC
:103DE0000E943D0C84E361E00E943D0C85E361E0AC
:103DF0000E943D0C85E361E00E94F00C83E58CBDE0
:103E00008DB58E7F8DBD10E08FEF0E94B11B1F5FBF
:103E10001A30D1F7CE010E94631C09C00E944E0BDC
:103E20006C197D09615D774010F081E05AC0CE01C8
:103E300060E020E030E040E050E00E94211D182FBB
:103E40008A87813059F7CE0168E02AEA31E040E004
:103E500050E00E94211D82FF02C01B870DC010E0B0
:103E60000E94E91B8A871F5F1430D1F78A3A11F04C
:103E700082E037C082E08B878B85823021F0EE2490
:103E8000FF2487010FC0E12CF12C012DB0E41B2F82
:103E900009C00E944E0B6C197D09615D774010F0DE
:103EA00088E01FC0CE0167E320E030E040E050E052
:103EB0000E94211DCE0169E2A80197010E94211DE7
:103EC0008A87882331F78B858230F1F4CE016AE34B
:103ED00020E030E040E050E00E94211D882339F0CE
:103EE00086E08D83CE010E94691C80E01AC00E948A
:103EF000E91B807C803C11F483E08B870E94E91BE6
:103F00000E94E91B0E94E91BCE010E94691C80915E
:103F1000040A8F3F11F081E004C0CE016B2D0E9496
:103F2000231CDF91CF911F910F91FF90EF90DF90B5
:103F3000CF90BF9008956F927F928F929F92AF9291
:103F4000BF92CF92DF92EF92FF920F931F93CF9386
:103F5000DF93EC017A018B012E81222309F480C0CA
:103F60008C899D89AE89BF8984179507A607B707F5
:103F700008F476C085C0E114F1040105110549F487
:103F80001F82188619861A861B861C861D861E8629
:103F900065C02B853C854D855E85EC8DFD8D8585C9
:103FA00090E00996215030404040504039014A018C
:103FB000082E04C096948794779467940A94D2F755
:103FC0002F5F3F4F4F4F5F4F0894E108F108010901
:103FD00011095701680104C0D694C794B794A794F7
:103FE0008A95D2F70894E11CF11C011D111DA6143D
:103FF000B704C804D90428F021153105410551053D
:1040000049F4888D998DAA8DBB8D8F839887A98758
:10401000BA8716C0A618B708C808D90811C04F81BA
:10402000588569857A858C8D9D8D94010E946F26B7
:104030000894A108B108C108D108882331F410C040
:1040400087E0882E912C8C0E9D1EA114B104C10412
:10405000D10429F7EB86FC860D871E8781E001C01D
:1040600080E0DF91CF911F910F91FF90EF90DF9053
:10407000CF90BF90AF909F908F907F906F9008955A
:10408000223009F078CFE6CFCF93DF93EC01462FB3
:104090006F85788989899A890E945324882319F425
:1040A00020E030E00AC08B89282F30E095E0220F15
:1040B000331F9A95E1F72E5E354FC901DF91CF91FD
:1040C00008950F931F93CF93DF938C01FC0186819A
:1040D0008823D9F1858187FF35C0C80161E00E943E
:1040E0004420EC01009789F1F8018681823040F488
:1040F00084899589A689B7898C8F9D8FAE8FBF8F54
:10410000F801808D918D9B8F8A8F808D918DA28DEE
:10411000B38DCD01AA27BB279D8B8C8BE091100A14
:10412000F091110A309751F0BE016A5E7F4FCE01C7
:1041300048961995888D998D9B8B8A8BF80185817E
:104140008F7785830E94182401C080E0DF91CF9192
:104150001F910F910895CF93DF93EC010E9461208E
:10416000882311F01E8281E0DF91CF9108952F9274
:104170003F924F925F926F927F928F929F92AF92F7
:10418000BF92CF92DF92EF92FF920F931F93CF9344
:10419000DF93EC012A018E81882309F4C6C08D814A
:1041A00080FFC3C0D8C025014E185F084B0177E0DF
:1041B000272E312C2C0E3D1E3201B1C02B853C85A3
:1041C0004D855E856FEFA62E61E0B62EA222B3224A
:1041D0008E8179018A0199E016950795F794E79405
:1041E0009A95D1F7EC8DFD8D823049F4428D538D37
:1041F000648D758D4E0D5F1D601F711F3FC0D48093
:10420000DA94DE20A114B104D9F4DD20C9F421151B
:1042100031054105510549F4888D998DAA8DBB8DD5
:104220008F839887A987BA870BC04F815885698586
:104230007A85CF0191010E946F26882309F475C009
:10424000EC8DFD8D4F81588569857A8542505040AF
:1042500060407040058404C0440F551F661F771FDF
:104260000A94D2F786859785A089B189480F591F8E
:104270006A1F7B1F4D0D511D611D711D80E092E075
:104280008A199B0963018615970508F46C018D81D5
:1042900086FD06C080E0C81682E0D80609F073C02B
:1042A0008091A0029091A102A091A202B091A302DC
:1042B000481759076A077B0709F465C08091120CFB
:1042C0009091130C9501860174010E94C31D8823EF
:1042D00061F18C0C9D1C12C095012E5E354FA90119
:1042E0004C0D5D1DD401F90102C081918D93E4173D
:1042F000F507D9F7E21BF30B8E0E9F1E960140E0E7
:1043000050E08B859C85AD85BE85820F931FA41FD1
:10431000B51F8B879C87AD87BE876C187D0861149D
:10432000710409F04BCFA20102C04FEF5FEFCA0149
:10433000DF91CF911F910F91FF90EF90DF90CF9081
:10434000BF90AF909F908F907F906F905F904F90B5
:104350003F902F900895AC88BD88CE88DF88EB848D
:10436000FC840D851E859A0140E050E0D601C50110
:104370008E199F09A00BB10B82179307A407B507ED
:1043800008F411CF13CFCB01BA0140E00E945324AF
:10439000882309F0A1CFC9CF0F931F93CF93DF9349
:1043A000EC018B018E81882309F041C0FB018789D4
:1043B0008031B1F482E08E83188E198E1A8E1B8E96
:1043C000808D918DA0E0B0E045E0880F991FAA1F75
:1043D000BB1F4A95D1F78C8B9D8BAE8BBF8B15C0C5
:1043E000803229F583E08E83FB01428D538D648DED
:1043F000758D488F598F6A8F7B8F9E012C5E3F4F42
:10440000C8010E94E226882391F01D8F0C8F81E065
:104410008D831F82188619861A861B861C861D8628
:104420001E861F86188A198A1A8A1B8A01C080E094
:10443000DF91CF911F910F910895CF93DF93EC01FE
:104440009C01295F3F4F8C8D9D8D41E050E060E0E5
:1044500070E00E9451278823A1F0888D998DAA8D44
:10446000BB8D0097A105B10559F48F819885A98569
:10447000BA85888F998FAA8FBB8F8D8180688D8335
:1044800081E0DF91CF9108952F923F924F925F92FA
:104490007F928F929F92AF92BF92CF92DF92EF92D4
:1044A000FF920F931F93DF93CF9300D000D0CDB72F
:1044B000DEB76C01162F072F5E834D83DC01169645
:1044C0008C911697813009F072C115968C9181FFFD
:1044D0006EC18FC1F60144895589668977898385C4
:1044E0009485A585B68584179507A607B70731F08B
:1044F000C6010E949B1F882309F459C1812F902F68
:104500009C0129012D803E8019C1D6015C96ED9158
:10451000FC915D97DA01C90119E0B695A7959795C9
:1045200087951A95D1F774807A9478227FEF872E39
:1045300071E0972E82229322772009F050C08114D7
:10454000910409F04CC0D60117964D915D916D9183
:104550007C911A97411551056105710581F45896B2
:104560008D919D910D90BC91A02D0097A105B10555
:1045700059F1F60187839087A187B28730C0CF01B8
:104580009E012F5F3F4F0E946F26882319F41E82E1
:104590001D8215C129813A814B815C81D6015C96CF
:1045A000ED91FC915D978789803129F088EF9FEF2D
:1045B000AFEFBFE004C088EF9FEFA0E0B0E02817A6
:1045C00039074A075B0730F0C6010E941D22882385
:1045D00031F4EDC0F601278330874187528780E0B0
:1045E00092E08819990951018215930508F45C013C
:1045F000D6015C96ED91FC915D971796ED90FD903C
:104600000D911C911A978EEF9FEFAFEFBFEFE80E61
:10461000F91E0A1F1B1F058404C0EE0CFF1C001F9F
:10462000111F0A94D2F786859785A089B189E80E73
:10463000F91E0A1F1B1FE70CF11C011D111D90E044
:10464000A91692E0B90651F58091A0029091A102BD
:10465000A091A202B091A3028E159F05A007B107F9
:1046600061F48FEF9FEFAFEFBFEF8093A0029093C5
:10467000A102A093A202B093A3028091120C909188
:10468000130CB801A70192010E946A1D882309F446
:104690008EC0A0E0B2E04A0E5B1E3EC081149104C1
:1046A00009F5F601238534854585568584899589E4
:1046B000A689B789281739074A075B0798F00E942F
:1046C0001824882309F473C0E092A002F092A1029A
:1046D0000093A2021093A3028091140C8160809336
:1046E000140C08C0C801B70141E00E94532488237C
:1046F00009F45DC094012E5E354FA9014A0D5B1D82
:10470000D201F90102C08D918193E417F507D9F721
:10471000E21BF30B4E0E5F1E2A183B08950140E08A
:1047200050E0F60183859485A585B685820F931F99
:10473000A41FB51F83879487A587B687D6011B96CC
:104740002D913D914D915C911E972114310409F0FA
:10475000DCCE54968D919D910D90BC91A02D821729
:104760009307A407B50748F4F601248B358B468BD5
:10477000578B85818068858311C08091100A909144
:10478000110A892B59F08D819E81892B39F0D60130
:1047900015968C911597806815968C93F6018581F6
:1047A00083FF0DC0C6010E946120882341F481E08F
:1047B000D60114968C93EFEFFFEFFE83ED838D818E
:1047C0009E8126960FB6F894DEBF0FBECDBFCF9167
:1047D000DF911F910F91FF90EF90DF90CF90BF90EE
:1047E000AF909F908F907F905F904F903F902F90D1
:1047F000089582FD6FCE82CEDB010D900020E9F797
:104800001197A61BB70BAD010E9444220895DF93B8
:10481000CF930F92CDB7DEB76983BE016F5F7F4F35
:1048200041E050E00E9444220F90CF91DF91089523
:104830008091140C882399F14091A0025091A1021B
:104840006091A2027091A3028091120C9091130CBE
:1048500022E13AE00E946A1D882319F14091150C6B
:104860005091160C6091170C7091180C4115510560
:104870006105710591F08091120C9091130C22E169
:104880003AE00E946A1D882361F01092150C109284
:10489000160C1092170C1092180C1092140C81E048
:1048A000089580E00895DF92EF92FF920F931F9397
:1048B0007B018C01D42E8091A0029091A102A09145
:1048C000A202B091A3028E159F05A007B107C1F007
:1048D0000E9418248823D9F08091120C9091130C17
:1048E000B801A70122E13AE00E94541E882379F022
:1048F000E092A002F092A1020093A2021093A30200
:104900008091140C8D298093140C81E001C080E00B
:104910001F910F91FF90EF90DF9008958F929F92DB
:10492000AF92BF92CF92DF92EF92FF920F931F93BD
:10493000CF93DF936C01142F7093130C6093120CC0
:10494000442321F488249924540140C0453008F0C0
:104950001CC160E070E080E090E040E00E945324E1
:10496000882309F412C1C12FD0E02197FE0174E021
:10497000EE0FFF1F7A95E1F7EE5EF54FE254FE4F22
:104980008081EE5BF14090E08F779070892B09F089
:10499000FCC0E653FE4F80819181A281B3818436B1
:1049A0009105A105B10508F4F0C064E0CC0FDD1F4E
:1049B0006A95E1F7C852D44F88809980AA80BB805D
:1049C00081149104A104B10409F4DFC0C501B4014C
:1049D00040E00E945324882309F4D7C080911D0A27
:1049E00090911E0A8050924009F0CFC02091220A77
:1049F000222309F4CAC08091200A9091210A892BB0
:104A000009F4C3C080911F0A882309F4BEC0F601CF
:104A1000228B80911F0A8483158661E070E007C0B5
:104A20004F5FF60145874150483008F0AEC0F601AF
:104A30004585848190E09B01042E02C0220F331F24
:104A40000A94E2F78217930759F72091280A3091C8
:104A5000290A2115310519F040E050E008C02091E5
:104A6000360A3091370A4091380A5091390AF601D6
:104A70002583368347835087E090200AF090210AEF
:104A800000E010E0E80CF91C0A1D1B1DE38AF48A03
:104A9000058B168B8091230A9091240A918F808F29
:104AA0006091220A70E080E090E00E94962C6E0DEA
:104AB0007F1D801F911FF601628F738F848F958FEA
:104AC0002091230A3091240A55E0220F331F5A9572
:104AD000E1F721503E4F232F3327269540E050E049
:104AE000260F371F481F591F26873787408B518B4A
:104AF0008091250A9091260A009719F0A0E0B0E075
:104B000008C08091320A9091330AA091340AB09182
:104B1000350A85017401E21AF30A040B150BA8018A
:104B20009701280F391F4A1F5B1FF601058404C037
:104B300056954795379527950A94D2F7218732875E
:104B400043875487253FFFE03F07F0E04F07F0E041
:104B50005F0710F48CE006C0255F3F4F4040504097
:104B600028F480E1F601878B81E010C080913E0A35
:104B700090913F0AA091400AB091410AF601828FBC
:104B8000938FA48FB58F80E2EECF80E0DF91CF913D
:104B90001F910F91FF90EF90DF90CF90BF90AF905B
:104BA0009F908F9008954F925F926F927F928F9215
:104BB0009F92AF92BF92CF92DF92EF92FF920F93AC
:104BC0001F93CF93DF93EC016A017B012801390128
:104BD000423051056105710508F46FC089859A85D9
:104BE000AB85BC850196A11DB11D84179507A6074D
:104BF000B70708F462C02B893C894D895E898F898B
:104C0000803129F499278F2D7E2D6D2D09C0C70184
:104C1000B60117E096958795779567951A95D1F720
:104C20004B015C01820E931EA41EB51E8091A00252
:104C30009091A102A091A202B091A30288169906B8
:104C4000AA06BB0639F0C501B40140E00E94532416
:104C5000882399F18F89803149F4F601F070EE0FC5
:104C6000FF1FEE5EF54F518240820DC0F601EF77D7
:104C7000F070EE0FFF1FEE0FFF1FEE5EF54F40824C
:104C80005182628273828091140C81608093140C33
:104C90008A89823080F08D819E81AF81B885880EAF
:104CA000991EAA1EBB1E8092150C9092160CA09203
:104CB000170CB092180C81E001C080E0DF91CF9119
:104CC0001F910F91FF90EF90DF90CF90BF90AF902A
:104CD0009F908F907F906F905F904F900895CF92AC
:104CE000DF92EF92FF920F931F93CF93DF93EC012C
:104CF0007A018B01690189859A85AB85BC8501960E
:104D0000A11DB11D84179507A607B70708F450C069
:104D10002B893C894D895E898F89803129F49927B7
:104D2000812F702F6F2D09C0C801B701E7E096955C
:104D3000879577956795EA95D1F7260F371F481F16
:104D4000591F8091A0029091A102A091A202B0915E
:104D5000A302281739074A075B0739F0CA01B901CE
:104D600040E00E945324882319F18F89803159F43F
:104D7000F701F070EE0FFF1FEE5EF54F808191811D
:104D8000A0E0B0E00EC0F701EF77F070EE0FFF1F6C
:104D9000EE0FFF1FEE5EF54F80819181A281B381FE
:104DA000BF70F60180839183A283B38381E001C049
:104DB00080E0DF91CF911F910F91FF90EF90DF90F6
:104DC000CF9008954F925F926F927F928F929F92B1
:104DD000AF92BF92CF92DF92EF92FF920F931F9309
:104DE000DF93CF9300D00F92CDB7DEB76C0149832C
:104DF0005A836B837C833901EE24FF2487012E01C3
:104E00000894411C511C812CA2E09A2EA12CB12C9B
:104E100049815A816B817C81C60192010E946F2673
:104E2000882351F1D501C401F601058404C0880F1F
:104E3000991FAA1FBB1F0A94D2F7E80EF91E0A1F7A
:104E40001B1F29813A814B815C818789803129F040
:104E500088EF9FEFAFEFBFE004C088EF9FEFA0E0C7
:104E6000B0E0281739074A075B0790F2F301E082A8
:104E7000F1820283138381E00F900F900F900F90C7
:104E8000CF91DF911F910F91FF90EF90DF90CF9026
:104E9000BF90AF909F908F907F906F905F904F905A
:104EA00008952F923F924F925F926F927F928F92CE
:104EB0009F92AF92BF92CF92DF92EF92FF920F93A9
:104EC0001F93DF93CF93CDB7DEB72F970FB6F8942C
:104ED000DEBF0FBECDBF1C014A875B876C877D8715
:104EE0003F872E87D9010D911D912D913C91011580
:104EF00011052105310549F0480159010894811C2B
:104F0000911CA11CB11C198610C0FC0180809180ED
:104F1000A280B38019868A859B85AC85BD85019763
:104F2000A105B10511F491E09987D10119968D91F0
:104F30009D910D90BC91A02D0196A11DB11D8D8359
:104F40009E83AF83B88775016401442455243201E0
:104F50008E010F5F1F4FF10181859285A385B48576
:104F6000481659066A067B0608F090C08D819E811E
:104F7000AF81B8858C159D05AE05BF0550F482E064
:104F8000882E912CA12CB12CB2E0CB2ED12CE12C6F
:104F9000F12CC101B701A60198010E946F26882358
:104FA00009F474C089819A81AB81BC81A701960103
:104FB0002F5F3F4F4F4F5F4F0097A105B10519F08D
:104FC00049015A010DC0281939094A095B098A8526
:104FD0009B85AC85BD85281739074A075B0759F0C3
:104FE0000894411C511C611C711C0894C11CD11CEB
:104FF000E11CF11CB0CFC101A601B7010FEF1FEFFB
:105000002FEF3FE00E94D325882399F43FC026016B
:10501000370108944108510861087108C101B301C2
:10502000A201970186010E94D325882379F173019B
:1050300062018C149D04AE04BF0448F3AE85BF85A5
:105040004D915D916D917C91411551056105710501
:1050500039F0C101950184010E94D3258823B1F064
:10506000EE85FF8580829182A282B382F985FF233B
:1050700059F00894811C911CA11CB11CD1018D9286
:105080009D92AD92BC92139781E001C080E02F9673
:105090000FB6F894DEBF0FBECDBFCF91DF911F9149
:1050A0000F91FF90EF90DF90CF90BF90AF909F90C7
:1050B0008F907F906F905F904F903F902F900895CA
:1050C000882319F48CB5806202C08CB58F7D8CBDAD
:1050D00008959CB5937F982B9CBD08952CB5382FCF
:1050E00033702C7F322B3CBD2DB590E09595879584
:1050F0009595879581702E7F822B8DBD089584E3D1
:1051000061E00E943D0C83E361E00E943D0C85E379
:1051100061E00E943D0C84E360E00E94F00C83E3B8
:1051200060E00E94F00C85E361E00E94F00C8CB519
:1051300080618CBD8CB580648CBD08950F931F93E6
:10514000CF93DF93BC018230910510F462E070E0F0
:10515000E0911B0CF0911C0CA0E0B0E040E050E0AE
:1051600024C08081918186179707D0F08617970712
:1051700071F482819381109729F013969C938E93FA
:1051800012972CC090931C0C80931B0C27C04115C8
:10519000510519F08417950718F4EF018D01AC0142
:1051A000DF01828193819C01F9013097D1F641158D
:1051B0005105F9F0CA01861B970B8430910580F4E4
:1051C0008A819B810115110521F0F8019383828367
:1051D00004C090931C0C80931B0CFE01329645C0BA
:1051E000FE01E80FF91F61937193029799838883F9
:1051F0003CC08091190C90911A0C892B41F480913C
:1052000080029091810290931A0C8093190C409126
:105210008202509183024115510541F44DB75EB7AA
:1052200080917E0290917F02481B590B2091190CAE
:1052300030911A0C24173507B0F4CA01821B930B66
:105240008617970780F0AB014E5F5F4F8417950775
:1052500050F0420F531F50931A0C4093190CF90150
:105260006193719302C0E0E0F0E0CF01DF91CF9154
:105270001F910F910895CF93DF939C01009709F43C
:105280008FC0EC0122971B821A8260911B0C7091D7
:105290001C0C6115710581F488819981820F931F1F
:1052A0002091190C30911A0C2817390739F5D09331
:1052B0001A0CC093190C74C0DB0140E050E0AC172D
:1052C000BD0708F1BB83AA83FE0121913191E20F52
:1052D000F31FAE17BF0779F48D919C911197280F9A
:1052E000391F2E5F3F4F3983288312968D919C91F1
:1052F00013979B838A834115510571F4D0931C0C3D
:10530000C0931B0C4DC012968D919C911397AD01CB
:10531000009711F0DC01D3CFDA011396DC93CE9322
:105320001297FA0121913191E20FF31FCE17DF0797
:1053300069F488819981280F391F2E5F3F4FFA0148
:10534000318320838A819B8193838283E0E0F0E034
:10535000DB0112968D919C911397009719F0BC0177
:10536000FD01F6CFAB014E5F5F4FDB018D919C914C
:10537000840F951F2091190C30911A0C28173907AA
:1053800079F4309729F410921C0C10921B0C02C077
:10539000138212824250504050931A0C4093190CC1
:1053A000DF91CF910895F8940C94042D5058BB27A9
:1053B000AA270ED0A9C19AD130F09FD120F031F4A4
:1053C0009F3F11F41EF48FC10EF4E095E7FB77C107
:1053D000E92FABD180F3BA176207730784079507EB
:1053E00018F071F49EF5C3C10EF4E0950B2EBA2FA0
:1053F000A02D0B01B90190010C01CA01A0011124DB
:10540000FF27591B99F0593F50F4503E68F11A1686
:10541000F040A22F232F342F4427585FF3CF469517
:1054200037952795A795F0405395C9F77EF41F1639
:10543000BA0B620B730B840BBAF09150A1F0FF0F03
:10544000BB1F661F771F881FC2F70EC0BA0F621FEF
:10545000731F841F48F4879577956795B795F795DF
:105460009E3F08F0B3CF9395880F08F09927EE0F71
:105470009795879508950CD047C13FD140F036D11C
:1054800030F021F45F3F19F01AC1511171C12BC1E5
:105490004CD198F39923C9F35523B1F3951B550BC0
:1054A000BB27AA2762177307840738F09F5F5F4FF7
:1054B000220F331F441FAA1FA9F333D00E2E3AF038
:1054C000E0E830D091505040E695001CCAF729D052
:1054D000FE2F27D0660F771F881FBB1F26173707A1
:1054E0004807AB07B0E809F0BB0B802DBF01FF27D1
:1054F00093585F4F2AF09E3F510568F0E0C038C1D5
:105500005F3FECF3983EDCF3869577956795B7950A
:10551000F7959F5FC9F7880F911D9695879597F925
:105520000895E1E0660F771F881FBB1F621773079E
:105530008407BA0720F0621B730B840BBA0BEE1FB3
:1055400088F7E095089504D06894B11111C10895C9
:10555000F4D088F09F5790F0B92F9927B751A0F059
:10556000D1F0660F771F881F991F1AF0BA95C9F7F7
:1055700012C0B13081F0FBD0B1E00895F8C0672FC0
:10558000782F8827B85F39F0B93FCCF386957795A7
:105590006795B395D9F73EF4909580957095619590
:1055A0007F4F8F4F9F4F0895E89409C097FB3EF4BB
:1055B00090958095709561957F4F8F4F9F4F992360
:1055C000A9F0F92F96E9BB279395F69587957795DE
:1055D0006795B795F111F8CFFAF4BB0F11F460FF9E
:1055E0001BC06F5F7F4F8F4F9F4F16C0882311F0F6
:1055F00096E911C0772321F09EE8872F762F05C00A
:10560000662371F096E8862F70E060E02AF09A95A4
:10561000660F771F881FDAF7880F9695879597F999
:10562000089564D018F011F068D038F45CC0A0C0C0
:10563000E92F7BD0B0F35523C9F3E7FB621773075B
:1056400084079507A8F199F3E92FFF2788232AF00B
:105650003197660F771F881FDAF7952F5527442358
:1056600032F091505040220F331F441FD2F7BB2716
:10567000E91BF50B621B730B840BB109C1F222F419
:10568000620F731F841FB11D31972AF0660F771FB9
:10569000881FBB1FEFCF915050405AF041F0882334
:1056A00032F0660F771F881F91505040C1F79395D5
:1056B0000CC08695779567959F5FD9F7F8CF97F9D6
:1056C0009F6780E870E060E008959F3F31F091505F
:1056D00020F4879577956795B795880F911D9695D6
:1056E000879597F908959FEF80EC089500240A9418
:1056F0001616170618060906089500240A941216AD
:105700001306140605060895092E0394000C11F4DF
:10571000882352F0BB0F40F4BF2B11F460FF04C08C
:105720006F5F7F4F8F4F9F4F089557FD9058440FE5
:10573000551F59F05F3F71F04795880F97FB991FF0
:1057400061F09F3F79F087950895121613061406AD
:10575000551FF2CF4695F1DF08C01616170618063A
:10576000991FF1CF86957105610508940895E89415
:10577000BB2766277727CB0197F908950BD0C4CFB5
:10578000B5DF28F0BADF18F0952309F098CFABCF3A
:105790001124EECFCADFA0F3959FD1F3950F50E00F
:1057A000551F629FF001729FBB27F00DB11D639FD3
:1057B000AA27F00DB11DAA1F649F6627B00DA11D79
:1057C000661F829F2227B00DA11D621F739FB00D1F
:1057D000A11D621F839FA00D611D221F749F33278F
:1057E000A00D611D231F849F600D211D822F762F28
:1057F0006A2F11249F5750408AF0E1F088234AF025
:10580000EE0FFF1FBB1F661F771F881F9150504070
:10581000A9F79E3F510570F052CFAACF5F3FECF33E
:10582000983EDCF3869577956795B795F795E7955C
:105830009F5FC1F7FE2B880F911D9695879597F96D
:1058400008959F9305D00F9007FCEE5F28C04BCFC3
:1058500074DFE8F3E894E0E0BB279F57F0F02AED0F
:105860003FE049EC06C0EE0FBB0F661F771F881F95
:1058700028F0B23A62077307840728F0B25A620B25
:10588000730B840BE3959A9572F7803830F49A95F0
:10589000BB0F661F771F881FD2F7904818CFEF9372
:1058A000E0FF06C0A2EA2AED3FE049EC5FEB90DDA5
:1058B0002BDF0F90039401FC9058E4EEF0E000C061
:1058C0009F938F937F936F93FF93EF939B01AC0113
:1058D00055DFEF91FF9105D02F913F914F915F914F
:1058E0004DCFDF93CF931F930F93FF92EF92DF92F1
:1058F0007B018C01689405C0DA2EEF014BDFFE01BD
:10590000E894A5912591359145915591AEF3EF011C
:105910005FDDFE019701A801DA9479F7DF90EF903F
:10592000FF900F911F91CF91DF910895629FD00159
:10593000739FF001829FE00DF11D649FE00DF11D4A
:10594000929FF00D839FF00D749FF00D659FF00DF9
:105950009927729FB00DE11DF91F639FB00DE11DE6
:10596000F91FBD01CF0111240895AA1BBB1B51E1F2
:1059700007C0AA1FBB1FA617B70710F0A61BB70BBF
:10598000881F991F5A95A9F780959095BC01CD0164
:10599000089597FB092E07260AD077FD04D0E5DF8E
:1059A00006D000201AF4709561957F4F0895F6F7A0
:1059B000909581959F4F0895A1E21A2EAA1BBB1BBB
:1059C000FD010DC0AA1FBB1FEE1FFF1FA217B307CB
:1059D000E407F50720F0A21BB30BE40BF50B661FE1
:1059E000771F881F991F1A9469F7609570958095A5
:1059F00090959B01AC01BD01CF010895EE0FFF1FF3
:105A00000590F491E02D199419E0C4E5D9E004C0A3
:105A1000FE010E94002D2296C635D107C9F7F894E1
:025A2000FFCFB6
:105A220067616D652074696D65006E6578742065C7
:105A320076656E742074696D65006E657720657693
:105A4200656E7400417244445275696E6F21004361
:105A52006C69636B20746F20626567696E00496EC2
:105A6200697469616C697A696E6720534420636165
:105A720072642E2E2E006661696C656421004F4BA4
:105A82002100446F696E672072617720696E6974C4
:105A920069616C697A6174696F6E2E2E2E00200026
:105AA2001D0C00006F0071007200730088009800E6
:105AB200A80028018A009A00AA002A0101016001B7
:105AC200FFFFFFFF0000000021107911B50FE60F64
:105AD200C60F0F10000000001D1679117811AA13CD
