:100000000C94F6030C9422040C9422040C94220405
:100010000C9422040C9422040C9422040C942204C8
:100020000C9422040C9422040C9422040C942204B8
:100030000C9422040C9422040C9422040C942204A8
:100040000C9422040C9422040C9422040C94220498
:100050000C9422040C9422040C9422040C94DE05CB
:100060000C9422040C942B080C940B090C9422047D
:100070000C9422040C9422040C9422040C94220468
:100080000C9422040C9422040C9422040C94220458
:100090000C9463080C944A090C9422040C942204D6
:1000A0000C9422040C9422040C9422040C94220438
:1000B0000C9422040C9422040C9422040C94220428
:1000C0000C9422040C9422040C9422040C949B089B
:1000D0000C9489090C9422040C94D3080C94C8093C
:1000E0000C94220400002100240027002A002D0087
:1000F0003000330001010000040107010A01000083
:100100002200250028002B002E00310034000201BF
:100110000000050108010B0100002000230026005B
:1001200029002C002F00320000010000030106010D
:10013000090105050505070508080808020202026D
:100140000A0A080804040404010101010101010173
:100150000303030303030303040707070C0C0C0C3E
:100160000C0C0C0C02020202060606060606060627
:100170000B0B0B0B0B0B0B0B0102102020080810B4
:100180002040102040800201020108040201010207
:1001900004081020408080402010080402018004E0
:1001A000020180402010080402010804020101023B
:1001B0000408102040800102040810204080000044
:1001C000090A02080B0C0D070603040100000000D9
:1001D000000000000000000000000000000000001F
:1001E0000000000000000000000011100F000000DF
:1001F00000000000000000000000000000000000FF
:100200000000000000000000003E5B4F5B3E3E6BC4
:100210004F6B3E1C3E7C3E1C183C7E3C181C577DA0
:10022000571C1C5E7F5E1C00183C1800FFE7C3E7EC
:10023000FF0018241800FFE7DBE7FF30483A060EFE
:100240002629792926407F050507407F05253F5A45
:100250003CE73C5A7F3E1C1C08081C1C3E7F1422B5
:100260007F22145F5F005F5F06097F017F00668960
:10027000956A606060606094A2FFA29408047E04A6
:100280000810207E201008082A1C08081C2A0808CC
:100290001E101010100C1E0C1E0C30383E3830068C
:1002A0000E3E0E06000000000000005F0000000788
:1002B000000700147F147F14242A7F2A12231308B6
:1002C000646236495620500008070300001C224192
:1002D000000041221C002A1C7F1C2A08083E080836
:1002E00000807030000808080808000060600020E6
:1002F000100804023E5149453E00427F40007249C9
:100300004949462141494D331814127F102745456C
:1003100045393C4A49493141211109073649494982
:1003200036464949291E00001400000040340000F0
:100330000008142241141414141400412214080259
:10034000015909063E415D594E7C1211127C7F49CC
:100350004949363E414141227F4141413E7F494921
:1003600049417F090909013E414151737F0808084D
:100370007F00417F41002040413F017F081422411E
:100380007F404040407F021C027F7F0408107F3E78
:100390004141413E7F090909063E4151215E7F09E5
:1003A000192946264949493203017F01033F40404C
:1003B000403F1F2040201F3F4038403F6314081437
:1003C0006303047804036159494D43007F4141416F
:1003D0000204081020004141417F04020102044050
:1003E00040404040000307080020545478407F28D4
:1003F0004444383844444428384444287F385454CA
:10040000541800087E090218A4A49C787F080404EC
:100410007800447D40002040403D007F102844008B
:1004200000417F40007C047804787C08040478381C
:1004300044444438FC1824241818242418FC7C084C
:10044000040408485454542404043F44243C4040C9
:10045000207C1C2040201C3C4030403C442810287C
:10046000444C9090907C4464544C440008364100C5
:100470000000770000004136080002010204023C3F
:100480002623263C1EA1A161123A4040207A38540E
:100490005455592155557941215454784121555489
:1004A000784020545579400C1E52721239555555DA
:1004B00059395454545939555454580000457C41C5
:1004C0000002457D420001457C40F0292429F0F0DE
:1004D000282528F07C545545002054547C547C0A2F
:1004E000097F4932494949323248484832324A48FC
:1004F00048303A4141217A3A42402078009DA0A0FC
:100500007D39444444393D4040403D3C24FF24244F
:10051000487E4943662B2FFC2F2BFF0929F620C06C
:10052000887E090320545479410000447D413048BD
:10053000484A32384040227A007A0A0A727D0D1900
:10054000317D2629292F28262929292630484D4062
:1005500020380808080808080808382F10C8ACBA5E
:100560002F102834FA00007B000008142A142222DD
:10057000142A1408AA005500AAAA55AA55AA0000D0
:1005800000FF00101010FF00141414FF001010FFE3
:1005900000FF1010F010F0141414FC001414F700F5
:1005A000FF0000FF00FF1414F404FC141417101FC4
:1005B00010101F101F1414141F00101010F0000052
:1005C00000001F101010101F10101010F01000006D
:1005D00000FF101010101010101010FF100000007D
:1005E000FF140000FF00FF00001F10170000FC04B4
:1005F000F414141710171414F404F40000FF00F797
:1006000014141414141414F700F7141414171410F9
:10061000101F101F141414F4141010F010F0000028
:100620001F101F0000001F14000000FC140000F049
:1006300010F01010FF10FF141414FF141010101FEE
:1006400000000000F010FFFFFFFFFFF0F0F0F0F0FF
:10065000FFFFFF0000000000FFFF0F0F0F0F0F381C
:10066000444438447C2A2A3E147E02020606027E56
:10067000027E0263554941633844443C04407E2075
:100680001E2006027E020299A5E7A5991C2A492A86
:100690001C4C7201724C304A4D4D30304878483015
:1006A000BC625A463D3E494949007E0101017E2A0D
:1006B0002A2A2A2A44445F444440514A4440404440
:1006C0004A51400000FF0103E080FF000008086B72
:1006D0006B083612362436060F090F06000018186C
:1006E0000000001010003040FF0101001F01011E3A
:1006F00000191D1712003C3C3C3C00000000000F9C
:100700000180961180FFB103012C2DB203012C2D25
:10071000B306012C2D012C2DB40107C003A20284C5
:10072000C101C5C2020A00C3028A2AC4028AEEC5F8
:10073000010E20003601C83A0105022A0400020019
:10074000812B04000100A0022A040000007F2B047A
:100750000000009F04E010021C07123732292D29E7
:10076000252B3900010310E110031D07062E2C294B
:100770002D2E2E373F0000021013800A29806412AC
:100780000180321180FF3A81050AB1830006030A15
:10079000360108B6021502B40100C08202700AC117
:1007A0000105C2020102C5823C380AFC021115E0B3
:1007B0001009160920211B131917151E2B040502F9
:1007C0000EE1900B14081E221D181E1B1A242B0666
:1007D00006020F0A2A04000200812B040002008195
:1007E00013800A2980FF2404320B901411241FBEA9
:1007F000CFEFD1E2DEBFCDBF00E00CBF12E0A0E042
:10080000B2E0E4E4F2E400E00BBF02C007900D9216
:10081000A83AB107D9F718E0A8EAB2E001C01D92E2
:10082000A538B107E1F717E0CCEED7E004C0229776
:10083000FE010E941C21C63ED107C9F70E945B053C
:100840000C94AF200C94000088EA92E066E047E048
:1008500028E00E946F141092D9021092DA021092CE
:10086000DD021092DF02E6EEF2E08FEF9FEF1082E2
:100870009283818394838383359623E0E831F20762
:10088000B1F7109219031092180310921B031092E3
:100890001A0310921D0310921C0310921F03109252
:1008A0001E03E0E2F3E0118210821382128234967A
:1008B00083E0E037F807B9F71092710310927003E4
:1008C00010927303109272031092750310927403C6
:1008D00010927703109276031092790310927803A6
:1008E00010927B0310927A0310927D0310927C0386
:1008F00010927F0310927E030895CF92DF92EF92C1
:10090000FF920F931F93CF93DF9388EA92E060E00A
:100910004FEF20E00E9415137C0188EA92E060E02E
:1009200070E040E050E020E230E008EA10E00E9491
:100930009D1288EA92E06FEF40E020E00E941513DC
:100940007C0188EA92E060E270E040E050E020E262
:1009500030E00E949D1288EA92E060E04FEF2FEFB6
:100960000E9415137C0188EA92E060E470E040E0A8
:1009700050E020E230E00E949D1288EA92E060E0C0
:1009800040E02FEF0E9415137C0188EA92E060E6B8
:1009900070E040E050E020E230E00E949D12C4E7A9
:1009A000D3E080E1E82EF12C0FE0C02ED12CF982AB
:1009B000E882DB82CA8288EA92E0B7014FE050E029
:1009C0002FE030E00FEF1FEF0E94C70D289680E266
:1009D00090E0E80EF91E93E0C439D90741F7DF91A2
:1009E000CF911F910F91FF90EF90DF90CF900895DE
:1009F000EF920F930E94B30688EA92E062E00E94B1
:100A0000411489EA95E040E855E260E070E00E9418
:100A1000070A89EA95E06AE172E00E94AF0C85E27C
:100A200096E065E04FEF2FEF0FEF0E94B31488239D
:100A300031F489EA95E062E372E00E94B20C89EA3F
:100A400095E06AE372E00E94B20C89EA95E06EE3F9
:100A500072E00E94AF0C84ED92E061E045E02FEF80
:100A60000FEFEE24EA940E94A117882339F489EA53
:100A700095E062E372E00E94B20CFFCF89EA95E054
:100A80006AE372E00E94B20C89E060E00E94150700
:100A900089E061E00E94C80788EA92E060E040E0F7
:100AA00020E00E941513BC0188EA92E00E948212A5
:100AB0000F91EF9008958F929F92AF92BF92CF9235
:100AC000DF92EF92FF920F931F93CF93DF930E94D9
:100AD000F80480E00E94AA054C0181E00E94AA056A
:100AE0005C0180E490E0909319038093180380E503
:100AF00090E090931B0380931A030E943406CC2449
:100B0000DD2480E00E94AA057C0181E00E94AA0504
:100B10008C0189E00E94FB07EC01E818F908F092CB
:100B2000E202E092E1020A191B091093E402009329
:100B3000E3021092E5028C159D0531F0813091059C
:100B400019F481E08093E5020E9434060E947D043E
:100B50006E01D7CF382F863308F0365320917B00B3
:100B6000832F86958695869590E08170907043E0FE
:100B7000880F991F4A95E1F7277F282B20937B0048
:100B8000377080915A028295880F880F807C832B62
:100B900080937C0080917A00806480937A008091B9
:100BA0007A0086FDFCCF2091780040917900942F47
:100BB00080E030E0282B392BC90108951F920F9255
:100BC0000FB60F9211242F933F938F939F93AF9360
:100BD000BF938091840390918503A0918603B09187
:100BE0008703309188030196A11DB11D232F2D5F2E
:100BF0002D3720F02D570196A11DB11D209388039C
:100C00008093840390938503A0938603B093870316
:100C10008091800390918103A0918203B09183031E
:100C20000196A11DB11D8093800390938103A09331
:100C30008203B0938303BF91AF919F918F913F91B6
:100C40002F910F900FBE0F901F9018958FB7F894AB
:100C5000209184033091850340918603509187034E
:100C60008FBFB901CA0108959FB7F89420918003FE
:100C700030918103409182035091830386B5A89BF4
:100C800006C08F3F21F02F5F3F4F4F4F5F4F9FBFF9
:100C9000542F432F322F2227280F311D411D511D64
:100CA00082E0220F331F441F551F8A95D1F7B901E7
:100CB000CA0108959B01AC017FB7F894809180032D
:100CC00090918103A0918203B091830366B5A89BA4
:100CD00005C06F3F19F00196A11DB11D7FBFBA2F4E
:100CE000A92F982F8827860F911DA11DB11D62E0A5
:100CF000880F991FAA1FBB1F6A95D1F7BC012DC091
:100D0000FFB7F8948091800390918103A0918203B2
:100D1000B0918303E6B5A89B05C0EF3F19F001969B
:100D2000A11DB11DFFBFBA2FA92F982F88278E0FA5
:100D3000911DA11DB11DE2E0880F991FAA1FBB1FC5
:100D4000EA95D1F7861B970B885E9340C8F2215035
:100D500030404040504068517C4F211531054105DD
:100D6000510571F60895789484B5826084BD84B588
:100D7000816084BD85B5826085BD85B5816085BD96
:100D8000EEE6F0E0808181608083E1E8F0E01082AF
:100D9000808182608083808181608083E0E8F0E0F0
:100DA000808181608083E1EBF0E0808184608083DA
:100DB000E0EBF0E0808181608083E1E9F0E0808118
:100DC00082608083808181608083E0E9F0E08081BF
:100DD00081608083E1EAF0E08081826080838081AD
:100DE00081608083E0EAF0E0808181608083E1E2DD
:100DF000F1E0808182608083808181608083E0E295
:100E0000F1E0808181608083EAE7F0E080818460A6
:100E10008083808182608083808181608083808103
:100E2000806880831092C1000895CF93DF93482F8C
:100E300050E0CA0188589E4FFC0134914E5C5E4FD1
:100E4000FA018491882369F190E0880F991FFC01D1
:100E5000EC51FF4FA591B491FC01E250FF4FC591B9
:100E6000D491662351F42FB7F8948C91932F9095D9
:100E700089238C93888189230BC0623061F42FB75A
:100E8000F8948C91932F909589238C938881832B50
:100E900088832FBF06C09FB7F8948C91832B8C93C7
:100EA0009FBFDF91CF910895893009F449C08A30FE
:100EB000A0F4843051F1853040F4823079F18330F0
:100EC00000F5813009F063C026C0873079F18830A1
:100ED00098F5863009F05BC025C08D3009F442C01A
:100EE0008E3028F48B30B1F18C30C0F52DC08031BC
:100EF00009F442C0813109F445C08F3009F047C080
:100F000037C0809180008F7703C0809180008F7DF3
:100F100080938000089584B58F7702C084B58F7D5B
:100F200084BD08958091B0008F7703C08091B00098
:100F30008F7D8093B0000895809190008F7707C0D7
:100F4000809190008F7D03C080919000877F809377
:100F5000900008958091A0008F7707C08091A00035
:100F60008F7D03C08091A000877F8093A0000895AB
:100F7000809120018F7703C0809120018F7D809325
:100F80002001089580912001877F8093200108959A
:100F9000FF920F931F93F62E482F50E0CA01825400
:100FA0009E4FFC012491CA0188589E4FFC01149168
:100FB0004E5C5E4FFA0104910023C9F0222319F020
:100FC000822F0E945407E02FF0E0EE0FFF1FE25047
:100FD000FF4FA591B4919FB7F894FF2021F48C9115
:100FE0001095812302C08C91812B8C939FBF1F9100
:100FF0000F91FF9008950F931F93482F50E0CA015F
:1010000082549E4FFC012491CA0188589E4FFC01D6
:1010100004914E5C5E4FFA011491112319F420E003
:1010200030E015C0222319F0822F0E945407812F2F
:1010300090E0880F991F885E9E4FFC01A591B491A6
:101040008C9120E030E0802311F021E030E0C901F4
:101050001F910F9108951F920F920FB60F920BB62A
:101060000F9211242F933F934F938F939F93EF935E
:10107000FF934091C6002091C9033091CA032F5FAE
:101080003F4F2F7330708091CB039091CC03281782
:10109000390759F0E091C903F091CA03E757FC4FB3
:1010A00040833093CA032093C903FF91EF919F912E
:1010B0008F914F913F912F910F900BBE0F900FBECC
:1010C0000F901F9018951F920F920FB60F920BB6AC
:1010D0000F9211242F933F934F938F939F93EF93EE
:1010E000FF934091CE0020915104309152042F5F24
:1010F0003F4F2F7330708091530490915404281700
:10110000390759F0E0915104F0915204EF5EFB4F22
:1011100040833093520420935104FF91EF919F91AB
:101120008F914F913F912F910F900BBE0F900FBE5B
:101130000F901F9018951F920F920FB60F920BB63B
:101140000F9211242F933F934F938F939F93EF937D
:10115000FF934091D6002091D9043091DA042F5F9B
:101160003F4F2F7330708091DB049091DC0428177F
:10117000390759F0E091D904F091DA04E756FB4FB2
:1011800040833093DA042093D904FF91EF919F912B
:101190008F914F913F912F910F900BBE0F900FBEEB
:1011A0000F901F9018951F920F920FB60F920BB6CB
:1011B0000F9211242F933F934F938F939F93EF930D
:1011C000FF934091360120916105309162052F5FB8
:1011D0003F4F2F73307080916305909164052817FD
:1011E000390759F0E0916105F0916205EF5DFA4F22
:1011F00040833093620520936105FF91EF919F91A9
:101200008F914F913F912F910F900BBE0F900FBE7A
:101210000F901F9018951F920F920FB60F920BB65A
:101220000F9211242F933F938F939F93EF93FF93EC
:1012300020910D0430910E0480910F0490911004C0
:101240002817390731F48091C1008F7D8093C10048
:1012500014C0E0910F04F0911004E353FC4F20817F
:1012600080910F049091100401968F739070909369
:10127000100480930F042093C600FF91EF919F917B
:101280008F913F912F910F900BBE0F900FBE0F903B
:101290001F9018951F920F920FB60F920BB60F92D8
:1012A00011242F933F938F939F93EF93FF9320915C
:1012B0009504309196048091970490919804281792
:1012C000390731F48091C9008F7D8093C90014C023
:1012D000E0919704F0919804EB5AFB4F20818091A4
:1012E00097049091980401968F739070909398044E
:1012F000809397042093CE00FF91EF919F918F915F
:101300003F912F910F900BBE0F900FBE0F901F902B
:1013100018951F920F920FB60F920BB60F921124D1
:101320002F933F938F939F93EF93FF9320911D05EE
:1013300030911E0580911F059091200528173907CF
:1013400031F48091D1008F7D8093D10014C0E09161
:101350001F05F0912005E352FB4F208180911F056E
:101360009091200501968F73907090932005809343
:101370001F052093D600FF91EF919F918F913F9190
:101380002F910F900BBE0F900FBE0F901F901895CE
:101390001F920F920FB60F920BB60F9211242F933C
:1013A0003F938F939F93EF93FF932091A5053091E7
:1013B000A6058091A7059091A8052817390731F453
:1013C000809131018F7D8093310114C0E091A70598
:1013D000F091A805EB59FA4F20818091A7059091D3
:1013E000A80501968F7390709093A8058093A70528
:1013F00020933601FF91EF919F918F913F912F9113
:101400000F900BBE0F900FBE0F901F901895AF92CC
:10141000BF92DF92EF92FF920F931F93CF93DF93D0
:10142000EC017A018B01DD24403081EE580780E029
:10143000680780E0780711F0DD24D39491E0A92EAD
:10144000B12CEC89FD89DD2069F0C5010E8C02C04C
:10145000880F991F0A94E2F7808360E079E08DE3BA
:1014600090E005C0108260E874E88EE190E0A80189
:1014700097010E94F820215030404040504056953E
:1014800047953795279580E12030380720F0DD20FB
:1014900011F0DD24D6CFE889F9893083EA89FB8908
:1014A0002083EE89FF89408121E030E0C9010A8C68
:1014B00002C0880F991F0A94E2F7482B4083EE89F7
:1014C000FF894081C9010B8C02C0880F991F0A94C3
:1014D000E2F7482B4083EE89FF894081C9010C8CDB
:1014E00002C0880F991F0A94E2F7482B4083EE89C7
:1014F000FF8980810D8C02C0220F331F0A94E2F70E
:10150000209528232083DF91CF911F910F91FF9089
:10151000EF90DF90BF90AF900895DC011C96ED91A5
:10152000FC911D97E05CFF4F219131918081918169
:10153000281B390B2F733070C9010895DC011C96EC
:10154000ED91FC911D97E05CFF4F20813181E054CB
:10155000F040DF01AE5BBF4F8D919C911197281732
:10156000390719F42FEF3FEF07C08D919C91E80FD9
:10157000F91F8081282F30E0C9010895DC011C96F5
:10158000ED91FC911D97E05CFF4F20813181E0548B
:10159000F040DF01AE5BBF4F8D919C9111972817F2
:1015A000390719F42FEF3FEF10C08D919C911197DF
:1015B000E80FF91F20818D919C91119701968F73EF
:1015C000907011969C938E9330E0C9010895FC01B0
:1015D00086859785DC01A05CBF4FFC01EE5BFF4F69
:1015E0002D913C9111978081918128173907C1F77E
:1015F0000895CF93DF93EC01EE85FF85E05CFF4F0C
:1016000020813181E054F0402F5F3F4F2F733070C5
:10161000DF01AE5BBF4F8D919C9111972817390761
:10162000D1F3E05CFF4F80819181E054F040E80FFE
:10163000F91F6083EE85FF85E05CFF4F31832083D7
:10164000EE89FF89208181E090E00D8C02C0880F37
:10165000991F0A94E2F7282B208381E090E0DF9124
:10166000CF9108951F931092AC051092AB0528EE10
:1016700033E040E050E02093AD053093AE05409359
:10168000AF055093B00563E672E07093AA056093CE
:10169000A90589E893E09093B6058093B5058DEC94
:1016A00093E09093B8058093B70585EC90E0909314
:1016B000BA058093B90584EC90E09093BC058093C3
:1016C000BB0580EC90E09093BE058093BD0581EC56
:1016D00090E09093C0058093BF0586EC90E09093D6
:1016E000C2058093C10514E01093C305B3E0B09325
:1016F000C405A7E0A093C505F5E0F093C605E1E0B9
:10170000E093C7051092CB051092CA052093CC0533
:101710003093CD054093CE055093CF057093C90506
:101720006093C80581E194E09093D5058093D4053A
:1017300085E594E09093D7058093D6058DEC90E0F5
:101740009093D9058093D8058CEC90E09093DB05BD
:101750008093DA0588EC90E09093DD058093DC05BA
:1017600089EC90E09093DF058093DE058EEC90E0AD
:101770009093E1058093E0051093E205B093E305B3
:10178000A093E405F093E505E093E6051092EA05E1
:101790001092E9052093EB053093EC054093ED059D
:1017A0005093EE057093E8056093E70589E994E0AE
:1017B0009093F4058093F3058DED94E09093F605F6
:1017C0008093F50585ED90E09093F8058093F705FB
:1017D00084ED90E09093FA058093F90580ED90E018
:1017E0009093FC058093FB0581ED90E09093FE05BE
:1017F0008093FD0586ED90E0909300068093FF05B1
:1018000010930106B0930206A0930306F09304061A
:10181000E0930506109209061092080620930A0626
:1018200030930B0640930C0650930D0670930706F9
:101830006093060681E295E090931306809312066A
:1018400085E695E0909315068093140685E391E074
:10185000909317068093160684E391E090931906FF
:101860008093180680E391E090931B0680931A06FC
:1018700081E391E090931D0680931C0686E391E03E
:1018800090931F0680931E0610932006B0932106A6
:10189000A0932206F0932306E09324061F91089557
:1018A0000895CF92DF92EF92FF920F931F93CF9301
:1018B000DF937C016B018A01C0E0D0E00FC0D6014C
:1018C0006D916D01D701ED91FC910190F081E02DBA
:1018D000C7011995C80FD91F0150104001151105F6
:1018E00071F7CE01DF91CF911F910F91FF90EF9093
:1018F000DF90CF900895EF92FF920F931F938C018A
:10190000DC01ED91FC910190F081E02D6DE01995E5
:101910007C01D801ED91FC910190F081E02DC8018E
:101920006AE019959C012E0D3F1DC9011F910F9171
:10193000FF90EF900895CF93DF93DB010D9000208F
:10194000E9F71197A61BB70BEC01E881F98102803A
:10195000F381E02DAD011995DF91CF9108950E949B
:101960009B0C0895EF92FF920F931F937C010E94AE
:101970009B0C8C01C7010E947B0C080F191FC8012A
:101980001F910F91FF90EF900895FC011382128236
:1019900083E792E0918380837583648357834683D2
:1019A0007187608753874287158A15861486178644
:1019B000168621E0248B8FEF9FEF938B828B918B88
:1019C000808B268B08952F923F924F925F926F9259
:1019D0007F928F929F92AF92BF92CF92DF92EF92BF
:1019E000FF920F931F93DF93CF93CDB7DEB72E9760
:1019F0000FB6F894DEBF0FBECDBF9E878D871B014B
:101A00005E834D83A701260171E0C72ED12CC21A37
:101A1000D30AC901880F991F66277727681B790B9E
:101A20007A8369836D807E8008946108710883E001
:101A3000882E912C8E0C9F1C790181E090E09C8374
:101A40008B83AA24BB2410E0D801A170B070B887A2
:101A5000AF83FA013196FA87E987B8016270707036
:101A60007C876B8777C0D7FC0AC00894E108F1082F
:101A700089819A8102969A838983C80ED91E089417
:101A8000A11CB11CAB81BC811296BC83AB83EF81DE
:101A9000F885EF2B41F1AD85BE85ED91FC91119755
:101AA000B501620D731D4D815E814E195F0997016D
:101AB000220F331F89859A85280F391F0084F185ED
:101AC000E02DCD0182011995AD85BE85ED91FC918A
:101AD0001197B701620D731D0084F185E02DCD01D2
:101AE000A30194011995EB85FC85EF2B41F1AD85A0
:101AF000BE85ED91FC911197B1016A197B094D8169
:101B00005E814E195F099701220F331F89859A85DF
:101B1000280F391F0084F185E02DCD018201199530
:101B2000AD85BE85ED91FC911197B1016E197F09CC
:101B30000084F185E02DCD01A30194011995EB817D
:101B4000FC81CE0EDF1E08946108710862E070E02F
:101B5000860E971EAE14BF040CF485CF2E960FB6DA
:101B6000F894DEBF0FBECDBFCF91DF911F910F91D3
:101B7000FF90EF90DF90CF90BF90AF909F908F90AD
:101B80007F906F905F904F903F902F9008956F924D
:101B90007F928F929F92AF92BF92CF92DF92EF92FD
:101BA000FF920F931F937C014B013A015901680189
:101BB000DC01ED91FC91421B530B220F331F2F5F71
:101BC0003F4F0084F185E02D1995C701B401A301B1
:101BD000950103E0EE24FF240E94E30C1F910F9176
:101BE000FF90EF90DF90CF90BF90AF909F908F903D
:101BF0007F906F9008952F923F924F925F926F92D5
:101C00007F928F929F92AF92BF92CF92DF92EF928C
:101C1000FF920F931F93DF93CF9300D00F92CDB716
:101C2000DEB73C017C836B836A015901FA82E98249
:101C3000222433249801241B350B37FF03C0309531
:101C400021953F4FC5014B815C81841B950B97FF0C
:101C500003C0909581959F4F821793075CF481E0B4
:101C6000282E312CC601CB80DC809C838B83C8015D
:101C700085015C018B819C81A816B90644F4C501DD
:101C8000AB80BC809C838B83C80186016C012501DD
:101C9000AB81BC814A1A5B0A7801EC18FD08F7FE9B
:101CA00004C0F094E194F108F394C016D10624F036
:101CB00088248A94982C03C0B1E08B2E912CC20109
:101CC00062E070E00E94E5208B0125C0D301ED9118
:101CD000FC912114310441F00480F581E02DC30111
:101CE000B6014B815C8107C00480F581E02DC30102
:101CF0006B817C81A60129813A8119950E191F09F2
:101D000017FF04C0C80CD91C040D151DEB81FC8104
:101D10003196FC83EB834B815C81A416B506B4F647
:101D20000F900F900F900F90CF91DF911F910F9117
:101D3000FF90EF90DF90CF90BF90AF909F908F90EB
:101D40007F906F905F904F903F902F9008954F92AB
:101D50005F926F927F928F929F92AF92BF92CF923B
:101D6000DF92EF92FF920F931F936C015B014A0188
:101D700039012801DC01ED91FC910284F385E02D0D
:101D800087011995D601ED91FC91A4014150504075
:101D9000440D551D0284F385E02DC601B501930164
:101DA0001995D601ED91FC910084F185E02DC601D5
:101DB000B501A40192011995D601ED91FC91089409
:101DC000A108B108A60CB71C0084F185E02DC6015E
:101DD000B501A401920119951F910F91FF90EF9009
:101DE000DF90CF90BF90AF909F908F907F906F903B
:101DF0005F904F900895CF92DF92EF92FF920F93F2
:101E00001F93DC016B017801ED91FC918A01015077
:101E10001040020F131F0680F781E02D96011995DF
:101E20001F910F91FF90EF90DF90CF900895CF9288
:101E3000DF92EF92FF920F931F93DC016A01C901B9
:101E40007801ED91FC9111979B0121503040280FB2
:101E5000391F0680F781E02DCD01860119951F916C
:101E60000F91FF90EF90DF90CF9008956F927F9247
:101E70008F929F92AF92BF92CF92DF92EF92FF929A
:101E80000F931F93CF93DF935C013A0169014801DF
:101E9000EB01C60ED71E0DC0D501ED91FC9100845B
:101EA000F185E02DC501BE01A301940187011995BB
:101EB0002196CC15DD0584F3DF91CF911F910F9111
:101EC000FF90EF90DF90CF90BF90AF909F908F905A
:101ED0007F906F900895EF92FF920F931F93FC01F4
:101EE0007B01A081B18120853185028513851E96F5
:101EF0000D90BC91A02D60E070E040E050E0FD014D
:101F000019951F910F91FF90EF9008952F923F9296
:101F10004F925F926F927F928F929F92AF92BF92F9
:101F2000CF92DF92EF92FF920F931F93DF93CF93A5
:101F3000CDB7DEB72F970FB6F894DEBF0FBECDBF7B
:101F40005C015E834D8318870F83FA86E986CB8612
:101F5000DC0118968D919C911997681779070CF000
:101F6000A4C01A968D919C911B97481759070CF0A5
:101F70009CC0EC2DF0E0FF87EE87CF01880F991F02
:101F80008E0F9F1F880F991F860F971F181619060F
:101F90000CF08BC0CF01F3E0880F991FFA95E1F7A1
:101FA000840F951F181619060CF07FC085E0289F36
:101FB000A00111245A8349832B011B011C825C81DF
:101FC000553011F480E005C0E981FA81EC5FFD4FE6
:101FD00084912C863D866D807E8043011B82C82EB5
:101FE000DD2480FF1CC0D501ED91FC91BB85B13093
:101FF00049F40480F581E02DC501B201A3012F81D0
:10200000388522C00684F785E02DC5016C857D8565
:10201000A4012E853F858901EF80F88423C0E985DE
:10202000FA852F813885E217F307E9F0D501ED91A4
:10203000FC91BB85B13051F40480F581E02DC501E0
:10204000B201A30129853A8519950DC00684F7854B
:10205000E02DC5016C857D85A4012E853F85890114
:10206000E984FA841995EB81EF5FEB832E853F8538
:10207000820E931E0894611C711CE83021F0D594E7
:10208000C7948C2DACCF3C813F5F3C834E855F85F0
:10209000240E351E0894411C511C89819A81019699
:1020A0009A838983363009F08ACF2F960FB6F89439
:1020B000DEBF0FBECDBFCF91DF911F910F91FF907B
:1020C000EF90DF90CF90BF90AF909F908F907F90D8
:1020D0006F905F904F903F902F900895CF92EF9226
:1020E000FF920F931F93CF93DF93EC01262F6A305B
:1020F00061F42C8930E003E0220F331F0A95E1F7E9
:102100008E859F85820F931F37C06D30C9F16C8516
:102110007D854E855F8508891989EA88FB88CC888A
:102120000E94860F2C8986E0289FB00111248C859F
:102130009D85680F791F7D876C878E89882301F1C3
:10214000422F50E08AEF9FEF9C01429FC001439FC6
:10215000900D529F900D112428853985820F931F71
:10216000861797076CF413E0440F551F1A95E1F793
:102170008E859F85840F951F9F878E871D861C8661
:1021800081E090E0DF91CF911F910F91FF90EF9050
:10219000CF9008950895DC0158968C915897882324
:1021A00029F06EBD0DB407FEFDCF089530E840E084
:1021B00050E070E0832F90E0862397235996ED91AD
:1021C000FC915A9796962C919697892B21F08081B5
:1021D000822B808304C080812095282320835B96F6
:1021E000ED91FC915C97808197969C919797892BB4
:1021F00080835B96ED91FC915C97908197968C9192
:10220000979780958923808336954F5F5F4F48303D
:10221000510581F608950F931F938C01DC015F96A1
:10222000ED91FC919097908199968C9199978095DA
:10223000892380835D96ED91FC915E9790819896BD
:102240008C91809589238083C8010E94CB10D8018E
:102250005D96ED91FC915E97808198969C91892B7B
:1022600080831F910F9108950F931F938C01DC01C0
:102270005F96ED91FC919097808199969C919997AA
:10228000892B80835D96ED91FC915E979081989665
:102290008C91809589238083C8010E94CB10D8013E
:1022A0005D96ED91FC915E97808198969C91892B2B
:1022B00080831F910F910895CF92DF92EF92FF924A
:1022C0000F931F937C01162FC42ED22E6AE20E9418
:1022D0000B11C70160E00E943411F70162A5610F84
:1022E000C7010E943411C70160E00E943411F70158
:1022F00062A56D0DC7010E943411C7016BE20E94F7
:102300000B11C70160E00E943411F70163A56C0D49
:10231000C7010E943411C70160E00E943411F70127
:1023200063A5600FC7010E943411C7016CE20E94CF
:102330000B111F910F91FF90EF90DF90CF900895B8
:10234000FF920F931F93CF93DF93EC01F22E132F85
:1023500077FD2EC088859985681779074CF557FD5C
:1023600027C08A859B854817590714F5262F2F5FAC
:10237000042F0F5FCE010E945C11EF8DF8A18081C8
:1023800099A5892B8083ED8DFE8D908188A5809500
:1023900089238083CE01612F0E94CB10CE016F2D47
:1023A0000E94CB10ED8DFE8D808198A5892B8083B6
:1023B000DF91CF911F910F91FF900895DF92EF92DF
:1023C000FF920F931F93CF93DF93EC01FB017901F1
:1023D000D02E8885998568177907D4F52A853B859D
:1023E00042175307ACF5C701840F951F281739070B
:1023F0001CF47901E41AF50A042F01500E0DCE01E8
:102400006E2F2E2F0E945C11EF8DF8A1808199A56F
:10241000892B8083ED8DFE8D908188A58095892301
:10242000808308C0CE01612F0E94CB10CE016D2D9C
:102430000E94CB100894E108F1088FEFE8168FEFA7
:10244000F80681F7ED8DFE8D808198A5892B80831C
:10245000DF91CF911F910F91FF90EF90DF90089542
:10246000DF92EF92FF920F931F93CF93DF93EC01D4
:10247000FA017901D02E2885398562177307D4F5C2
:102480008A859B8548175907ACF5C701860F971FAA
:10249000281739071CF47901E61AF70A262F21506C
:1024A0002E0DCE014E2F0E2F0E945C11EF8DF8A144
:1024B000808199A5892B8083ED8DFE8D908188A5E3
:1024C00080958923808308C0CE01612F0E94CB10A4
:1024D000CE016D2D0E94CB100894E108F1088FEF1A
:1024E000E8168FEFF80681F7ED8DFE8D808198A5B7
:1024F000892B8083DF91CF911F910F91FF90EF90F7
:10250000DF900895EF92FF920F931F93FC017B01E0
:10251000A081B18120853185028513851E960D909D
:10252000BC91A02D60E070E040E050E0FD01199505
:102530001F910F91FF90EF900895AF92BF92CF92AD
:10254000DF92EF92FF920F931F93CF93DF936C0173
:102550005901E801DC0118962D913C9119976217F9
:1025600073070CF057C01A96ED91FC911B974E170C
:102570005F070CF04FC0C501860F971F281739075A
:102580001CF45901A61AB70ACE01840F951FE8174B
:10259000F9071CF4EF01C41BD50B262F21502A0D7F
:1025A000042F01500C0FC6010E945C11D6015F96EA
:1025B000ED91FC919097808199969C919997892BA8
:1025C00080835D96ED91FC915E97908198968C91B9
:1025D0008095892380838E010EC0C6016F2D0E94D5
:1025E000CB10C6016E2D0E94CB1021971C161D0624
:1025F000A4F3015010401016110614F4E501F6CFB3
:10260000D6015D96ED91FC915E97808198969C91A4
:10261000892B8083DF91CF911F910F91FF90EF90D5
:10262000DF90CF90BF90AF90089550E04C7F5070F6
:1026300033E0440F551F3A95E1F730E093E03595CC
:1026400027959A95E1F7422B532B70E0687F7070C5
:10265000762F6627462B572BCA010895662311F45F
:1026600060E201C061E20E940B110895AF92BF9237
:10267000CF92DF92EF92FF920F931F93CF93DF934E
:102680005C01FB01EB012196D49031C08E010F5FFC
:102690001F4FFE016491C5010E940B11780108943F
:1026A000E11CF11CF801C4900C2D0F77E701102FED
:1026B00008C0FE012196E491C5016E2F0E943411DD
:1026C00011501123B1F7E701C00FD11DC7FE0EC095
:1026D000FE018491682F70E06F3F710511F464EF83
:1026E00071E0219680E090E00E945A06DA94DD20A5
:1026F00069F6DF91CF911F910F91FF90EF90DF90DE
:10270000CF90BF90AF9008950F931F93CF93DF9317
:10271000EC018B011BA61AA68AA161E00E94150795
:1027200089A161E00E941507E9A14E2F50E0FA014E
:10273000EE5CFE4FE491F0E0EE0FFF1FE250FF4F22
:10274000859194919E8F8D8FEAA12E2F30E0F90113
:10275000EE5CFE4FE491F0E0EE0FFF1FE250FF4F02
:102760008591949198A38F8F48585E4FFA01849178
:1027700088A728583E4FF901849189A7888D88231E
:1027800061F00E94902080E00E947F2081E00E9402
:10279000712080E00E947A203DC08DA161E00E94FE
:1027A00015078CA161E00E941507EDA14E2F50E0A6
:1027B000FA01EE5CFE4FE491F0E0EE0FFF1FE250F5
:1027C000FF4FA591B491BC8FAB8FECA12E2F30E0C1
:1027D000F901EE5CFE4FE491F0E0EE0FFF1FE250D6
:1027E000FF4F859194919A8F898F48585E4FFA01D7
:1027F00094919FA328583E4FF90184918EA38C9108
:10280000909598239C93E98DFA8D90818EA1809567
:1028100089238083ED8DFE8D908188A58095892305
:1028200080838BA1882309F161E00E9415078BA1A9
:1028300061E00E94C80764EF71E080E090E00E94D0
:102840005A068BA160E00E94C80764EF71E080E047
:1028500090E00E945A068BA161E00E94C80764EFD5
:1028600071E080E090E00E945A060115110521F008
:10287000CE01B8010E943613DF91CF911F910F91C5
:1028800008951F93CF93DF93EC01162F6FEF76E03F
:102890000E948413112351F4CE016AE377E00E9471
:1028A000361382E08AA781E08BA705C0CE0167E4DA
:1028B00077E00E943613CE0164E577E00E9436137C
:1028C000123041F4CE0166E30E940B11CE0160ECA0
:1028D0000E9434111F8BDF91CF911F910895DF92D9
:1028E000EF92FF920F931F938C01F62EE42ED22EBF
:1028F00060E870E040EA50E00E94C50C8BE892E08E
:10290000F80191838083F1A2E2A2D3A281E0808FBB
:1029100015A214A21F910F91FF90EF90DF900895E0
:1029200082E090E0A0E0B0E0809325069093260638
:10293000A0932706B093280610923C0610924606F4
:102940001092450683EA92E09093440680934306F2
:1029500010924906109266061092670610926A0657
:1029600010926C060895CF92DF92EF920F93CF935F
:10297000DF93EC01362F542F722FE02E6CE3C62E1E
:10298000D12CC80ED91EC60161E0432F252F072F79
:102990000E94A1178823D1F00C2FED2ECE01B60195
:1029A00041E00E949F1C882339F4CE01B60140E02B
:1029B0000E949F1C882351F0CE014E96602F7E2DE1
:1029C0000E94E819882319F081E001C080E0DF91BE
:1029D000CF910F91EF90DF90CF900895382F809195
:1029E00070068F3F29F43EBD0DB407FEFDCF08955C
:1029F000F894A0917106B091720650917306252F3C
:102A00002095E0917406F091750640917606642F4A
:102A1000609590E08C9182238C9337FF03C0808176
:102A2000842B02C08081862380838C91852B8C939C
:102A30009F5F983011F0330FEDCF000000000000D1
:102A400000008C9128232C9378940895809170062F
:102A50008F3F21F40E94EE142EB530C0F894E0911F
:102A60007406F0917506808190917606892B80839B
:102A7000E0917106F091720660917306A09177065D
:102A8000B091780680917906482F50E0762F7095A6
:102A900020E030E08081862B8083220F8C9190E0B3
:102AA00084239523892B09F02160808187238083EB
:102AB000000000003F5F383069F77894822F089556
:102AC000FC01673020F086E1858380E00895262FA1
:102AD00030E060FD02C0663019F48DB58E7F02C013
:102AE0008DB581608DBD8CB58C7F8CBD4CB522FDC4
:102AF00002C090E001C092E036952795822F817048
:102B0000842B892B8CBD81E008950F931F93CF9365
:102B1000DF938B010E942606EB010E9426158F3F52
:102B200011F481E008C00E9426066C1B7D0B601723
:102B3000710798F380E0DF91CF911F910F91089575
:102B4000FC01848160E00E94C8070895FC01848133
:102B500061E00E94C8070895CF92DF92EF92FF9242
:102B60000F931F93CF93DF937C016A01FC0184854F
:102B7000882319F40FEF1FEF30C000E010E040E0B1
:102B800050E0212F332727FD3A95F601E40FF51F7A
:102B9000808190E0282739273070C901F4E09595AD
:102BA0008795FA95E1F782279327102F00270827AA
:102BB00019279C01322F22273295307F02271327B5
:102BC00025E0880F991F2A95E1F7082719274F5FFD
:102BD0005F4FF2E040305F07A1F6862F0E94EE14AF
:102BE000C0E0D0E0F601EC0FFD1F80810E94EE14E2
:102BF000219682E0C030D807A9F7812F992787FD59
:102C00009A950E94EE14802F0E94EE140E942615C1
:102C1000F70182878F71853011F481E007C081E16F
:102C2000F7018583C7010E94A61580E0DF91CF914F
:102C30001F910F91FF90EF90DF90CF9008950F9329
:102C40001F93CF93DF93EC010E9426068B0109C0EE
:102C50000E942606601B710B6D52714010F08FE0D0
:102C60000AC00E9426158A878F3F91F38E3F11F488
:102C700081E006C08DE08D83CE010E94A61580E024
:102C8000DF91CF911F910F910895CF93DF93EC01C6
:102C90008E81882319F40FC00E9426158F81988594
:102CA000019698878F83019782509240A8F3CE01B6
:102CB0000E94A6151E82DF91CF910895DF92EF92B8
:102CC000FF920F931F93CF93DF93EC01D62E7901E0
:102CD0008A010E944516CE010E94A015CE016CE229
:102CE00071E00E9485158D2D80640E94EE14812F65
:102CF0009927AA27BB270E94EE14C801AA27BB2741
:102D00000E94EE14BB27A12F902F8F2D0E94EE144E
:102D10008E2D0E94EE14DD2011F485E906C088E0B6
:102D2000D81611F487E801C08FEF0E94EE1410E06E
:102D30000E9426158A8787FF02C01150C9F7DF91CC
:102D4000CF911F910F91FF90EF90DF900895CF9258
:102D5000DF92EF92FF920F931F93CF93DF93EC01DB
:102D60007A018B016901411551056105710511F465
:102D700082E133C08B85833039F039E0EE0CFF1CE3
:102D8000001F111F3A95D1F7CE0168E1A801970104
:102D90000E945E16882311F084E01FC0CE016EEF02
:102DA000A6010E94AC158823C9F0CE0168E572E047
:102DB0000E948515882311F485E10FC0CE016DE0D6
:102DC00020E030E040E050E00E945E16882321F4CD
:102DD0000E942615882379F084E18D83CE010E941C
:102DE000A61580E0DF91CF911F910F91FF90EF909A
:102DF000DF90CF900895CE010E94A61581E0F2CF1A
:102E00006F927F928F929F92AF92BF92CF92DF92FA
:102E1000EF92FF920F931F93CF93DF93EC015A0130
:102E20006B01390148010115110509F46AC0C80197
:102E3000820F931F8150924008F05EC08E818823DC
:102E400071F088819981AA81BB81481759076A0767
:102E50007B0729F48F8198856816790650F5A8823A
:102E6000B982CA82DB828B85833039F0E9E0AA0C13
:102E7000BB1CCC1CDD1CEA95D1F7CE0161E1A6019B
:102E800095010E945E16882319F083E08D8334C07B
:102E9000CE010E941F16882379F118861F8281E0D7
:102EA0008E8307C00E9426158F819885019698878A
:102EB0008F838F81988586159705A0F300E010E039
:102EC00008C00E942615F701E00FF11F80830F5FF5
:102ED0001F4F08151905A8F32F813885280D391DB6
:102EE00038872F838985882319F02050324048F095
:102EF000CE010E94451605C0CE010E94A61580E0B5
:102F000001C081E0DF91CF911F910F91FF90EF9071
:102F1000DF90CF90BF90AF909F908F907F906F90F9
:102F20000895EF92FF920F931F93790120E030E014
:102F300000E012E00E9400171F910F91FF90EF90A8
:102F40000895BF92CF92DF92EF92FF920F931F935B
:102F5000CF93DF93EC01B62E1E2D1B8619861E82A1
:102F60001D821C864C8320937A0600937B06E09298
:102F700070060E9426066B018C8161E00E94150795
:102F8000CE010E94A6151F3F09F461C080917B0607
:102F900060E00E94150780917A0661E00E941507A3
:102FA0008091700661E00E941507E09170062E2F57
:102FB000332727FD3095F901EE5CFE4FE491F0E0F8
:102FC000EE0FFF1FE250FF4F859194919093720690
:102FD0008093710628583E4FF901849180937306BF
:102FE000E0917A062E2F332727FD3095F901EE5C0C
:102FF000FE4FE491F0E0EE0FFF1FE250FF4F85918E
:103000009491909375068093740628583E4FF90169
:10301000849180937606E0917B062E2F332727FD3F
:103020003095F901EE5CFE4FE491F0E0EE0FFF1FEA
:10303000E85EFE4F85919491909378068093770691
:1030400028583E4FF90184918093790619C082E394
:1030500060E00E94150783E361E00E94150784E3A6
:1030600061E00E94150785E361E00E94150785E392
:1030700061E00E94C80783E58CBD8DB58E7F8DBD54
:1030800010E08FEF0E94EE141F5F1A30D1F7CE01CF
:103090000E94A01509C00E9426066C197D09615D79
:1030A000774010F081E05AC0CE0160E020E030E0CF
:1030B00040E050E00E945E16182F8A87813059F751
:1030C000CE0168E02AEA31E040E050E00E945E165E
:1030D00082FF02C01B870DC010E00E9426158A8760
:1030E0001F5F1430D1F78A3A11F082E037C082E0D6
:1030F0008B878B85823021F0EE24FF2487010FC05F
:10310000E12CF12C012DB0E41B2F09C00E942606F2
:103110006C197D09615D774010F088E01FC0CE0119
:1031200067E320E030E040E050E00E945E16CE0110
:1031300069E2A80197010E945E168A87882331F709
:103140008B858230F1F4CE016AE320E030E040E08C
:1031500050E00E945E16882339F086E08D83CE0110
:103160000E94A61580E01AC00E942615807C803C33
:1031700011F483E08B870E9426150E9426150E9479
:103180002615CE010E94A615809170068F3F11F082
:1031900081E004C0CE016B2D0E946015DF91CF91BC
:1031A0001F910F91FF90EF90DF90CF90BF90089507
:1031B0006F927F928F929F92AF92BF92CF92DF9247
:1031C000EF92FF920F931F93CF93DF93EC017A015D
:1031D0008B012E81222309F480C08C899D89AE89C0
:1031E000BF8984179507A607B70708F476C085C07E
:1031F000E114F1040105110549F41F8218861986AE
:103200001A861B861C861D861E8665C02B853C85FE
:103210004D855E85EC8DFD8D858590E0099621506C
:1032200030404040504039014A01082E04C0969475
:103230008794779467940A94D2F72F5F3F4F4F4F4C
:103240005F4F0894E108F10801091109570168016D
:1032500004C0D694C794B794A7948A95D2F70894DB
:10326000E11CF11C011D111DA614B704C804D904EA
:1032700028F0211531054105510549F4888D998DB6
:10328000AA8DBB8D8F839887A987BA8716C0A61889
:10329000B708C808D90811C04F81588569857A8553
:1032A0008C8D9D8D94010E94801E0894A108B10808
:1032B000C108D108882331F410C087E0882E912CF2
:1032C0008C0E9D1EA114B104C104D10429F7EB8614
:1032D000FC860D871E8781E001C080E0DF91CF91E1
:1032E0001F910F91FF90EF90DF90CF90BF90AF9024
:1032F0009F908F907F906F900895223009F078CF43
:10330000E6CFCF93DF93EC01462F6F8578898989CB
:103310009A890E94641C882319F420E030E00AC0D6
:103320008B89282F30E095E0220F331F9A95E1F723
:103330002258394FC901DF91CF9108950F931F9300
:10334000CF93DF938C01FC0186818823D9F185819D
:1033500087FF35C0C80161E00E948119EC01009728
:1033600089F1F8018681823040F484899589A689A3
:10337000B7898C8F9D8FAE8FBF8FF801808D918D17
:103380009B8F8A8F808D918DA28DB38DCD01AA27C1
:10339000BB279D8B8C8BE0917C06F0917D0630974E
:1033A00051F0BE016A5E7F4FCE0148961995888D17
:1033B000998D9B8B8A8BF80185818F7785830E94FD
:1033C000291C01C080E0DF91CF911F910F910895DA
:1033D0000F931F93CF93DF93EC018B018E81882392
:1033E00009F041C0FB0187898031B1F482E08E830E
:1033F000188E198E1A8E1B8E808D918DA0E0B0E0F4
:1034000045E0880F991FAA1FBB1F4A95D1F78C8BE7
:103410009D8BAE8BBF8B15C0803229F583E08E83E8
:10342000FB01428D538D648D758D488F598F6A8F46
:103430007B8F9E012C5E3F4FC8010E94F31E8823A4
:1034400091F01D8F0C8F81E08D831F821886198665
:103450001A861B861C861D861E861F86188A198A58
:103460001A8A1B8A01C080E0DF91CF911F910F91D2
:103470000895CF93DF93EC019C01295F3F4F8C8D22
:103480009D8D41E050E060E070E00E94621F882363
:10349000A1F0888D998DAA8DBB8D0097A105B105EE
:1034A00059F48F819885A985BA85888F998FAA8FBD
:1034B000BB8F8D8180688D8381E0DF91CF910895EE
:1034C0002F923F924F925F927F928F929F92AF92F4
:1034D000BF92CF92DF92EF92FF920F931F93DF93F1
:1034E000CF9300D000D0CDB7DEB76C01162F072FD9
:1034F0005E834D83DC0116968C911697813009F01E
:1035000072C115968C9181FF6EC18FC1F6014489FD
:1035100055896689778983859485A585B6858417BD
:103520009507A607B70731F0C6010E94D81888236F
:1035300009F459C1812F902F9C0129012D803E80D3
:1035400019C1D6015C96ED91FC915D97DA01C90134
:1035500019E0B695A795979587951A95D1F7748038
:103560007A9478227FEF872E71E0972E8222932221
:10357000772009F050C08114910409F04CC0D601A5
:1035800017964D915D916D917C911A97411551055A
:103590006105710581F458968D919D910D90BC91B6
:1035A000A02D0097A105B10559F1F60187839087F9
:1035B000A187B28730C0CF019E012F5F3F4F0E948D
:1035C000801E882319F41E821D8215C129813A812B
:1035D0004B815C81D6015C96ED91FC915D9787896A
:1035E000803129F088EF9FEFAFEFBFE004C088EF94
:1035F0009FEFA0E0B0E0281739074A075B0730F0DB
:10360000C6010E94391A882331F4EDC0F6012783E0
:1036100030874187528780E092E0881999095101EB
:103620008215930508F45C01D6015C96ED91FC913E
:103630005D971796ED90FD900D911C911A978EEF66
:103640009FEFAFEFBFEFE80EF91E0A1F1B1F0584A7
:1036500004C0EE0CFF1C001F111F0A94D2F78685D0
:103660009785A089B189E80EF91E0A1F1B1FE70C78
:10367000F11C011D111D90E0A91692E0B90651F54B
:1036800080915B0290915C02A0915D02B0915E021C
:103690008E159F05A007B10761F48FEF9FEFAFEF85
:1036A000BFEF80935B0290935C02A0935D02B093A6
:1036B0005E0280917E0890917F08B801A701920177
:1036C0000E94A716882309F48EC0A0E0B2E04A0E3B
:1036D0005B1E3EC08114910409F5F60123853485F3
:1036E0004585568584899589A689B789281739071C
:1036F0004A075B0798F00E94291C882309F473C0CD
:10370000E0925B02F0925C0200935D0210935E0215
:103710008091800881608093800808C0C801B7014B
:1037200041E00E94641C882309F45DC09401225882
:10373000394FA9014A0D5B1DD201F90102C08D91DB
:103740008193E417F507D9F7E21BF30B4E0E5F1ECA
:103750002A183B08950140E050E0F60183859485E6
:10376000A585B685820F931FA41FB51F83879487F5
:10377000A587B687D6011B962D913D914D915C9101
:103780001E972114310409F0DCCE54968D919D9141
:103790000D90BC91A02D82179307A407B50748F49C
:1037A000F601248B358B468B578B8581806885830A
:1037B00011C080917C0690917D06892B59F08D81F6
:1037C0009E81892B39F0D60115968C9115978068CA
:1037D00015968C93F601858183FF0DC0C6010E946A
:1037E0009E19882341F481E0D60114968C93EFEF63
:1037F000FFEFFE83ED838D819E8126960FB6F894B0
:10380000DEBF0FBECDBFCF91DF911F910F91FF9013
:10381000EF90DF90CF90BF90AF909F908F907F9070
:103820005F904F903F902F90089582FD6FCE82CE93
:10383000DF93CF930F92CDB7DEB76983BE016F5F81
:103840007F4F41E050E00E94601A0F90CF91DF91CE
:10385000089580918008882399F140915B025091EE
:103860005C0260915D0270915E0280917E08909191
:103870007F082EE736E00E94A716882319F14091B1
:1038800081085091820860918308709184084115E5
:1038900051056105710591F080917E0890917F0836
:1038A0002EE736E00E94A716882361F01092810867
:1038B0001092820810928308109284081092800857
:1038C00081E0089580E00895DF92EF92FF920F93D8
:1038D0001F937B018C01D42E80915B0290915C023E
:1038E000A0915D02B0915E028E159F05A007B10701
:1038F000C1F00E94291C8823D9F080917E08909104
:103900007F08B801A7012EE736E00E9491178823AF
:1039100079F0E0925B02F0925C0200935D021093FA
:103920005E02809180088D298093800881E001C02B
:1039300080E01F910F91FF90EF90DF9008958F929C
:103940009F92AF92BF92CF92DF92EF92FF920F932E
:103950001F93CF93DF936C01142F70937F086093B4
:103960007E08442321F488249924540140C0453022
:1039700008F01CC160E070E080E090E040E00E9450
:10398000641C882309F412C1C12FD0E02197FE01E5
:1039900074E0EE0FFF1F7A95E1F7E258F94FE25419
:1039A000FE4F8081EE5BF14090E08F779070892B25
:1039B00009F0FCC0E653FE4F80819181A281B38162
:1039C00084369105A105B10508F4F0C064E0CC0F80
:1039D000DD1F6A95E1F7CC5BD74F88809980AA807C
:1039E000BB8081149104A104B10409F4DFC0C501B6
:1039F000B40140E00E94641C882309F4D7C0809180
:103A0000890690918A068050924009F0CFC020919B
:103A10008E06222309F4CAC080918C0690918D06EF
:103A2000892B09F4C3C080918B06882309F4BEC09A
:103A3000F601228B80918B068483158661E070E00D
:103A400007C04F5FF60145874150483008F0AEC0CF
:103A5000F6014585848190E09B01042E02C0220F6F
:103A6000331F0A94E2F78217930759F720919406BF
:103A7000309195062115310519F040E050E008C05D
:103A80002091A2063091A3064091A4065091A5066C
:103A9000F6012583368347835087E0908C06F090AB
:103AA0008D0600E010E0E80CF91C0A1D1B1DE38ADE
:103AB000F48A058B168B80918F0690919006918FDA
:103AC000808F60918E0670E080E090E00E94B220CE
:103AD0006E0D7F1D801F911FF601628F738F848F83
:103AE000958F20918F063091900655E0220F331F5D
:103AF0005A95E1F721503E4F232F3327269540E07A
:103B000050E0260F371F481F591F26873787408BE5
:103B1000518B8091910690919206009719F0A0E048
:103B2000B0E008C080919E0690919F06A091A006EB
:103B3000B091A10685017401E21AF30A040B150B7A
:103B4000A8019701280F391F4A1F5B1FF601058442
:103B500004C056954795379527950A94D2F7218743
:103B6000328743875487253FFFE03F07F0E04F0748
:103B7000F0E05F0710F48CE006C0255F3F4F404047
:103B8000504028F480E1F601878B81E010C08091DD
:103B9000AA069091AB06A091AC06B091AD06F601D5
:103BA000828F938FA48FB58F80E2EECF80E0DF917C
:103BB000CF911F910F91FF90EF90DF90CF90BF902A
:103BC000AF909F908F9008954F925F926F927F92E7
:103BD0008F929F92AF92BF92CF92DF92EF92FF921D
:103BE0000F931F93CF93DF93EC016A017B012801B0
:103BF0003901423051056105710508F46FC08985AE
:103C00009A85AB85BC850196A11DB11D84179507CA
:103C1000A607B70708F462C02B893C894D895E89E5
:103C20008F89803129F499278F2D7E2D6D2D09C024
:103C3000C701B60117E096958795779567951A9510
:103C4000D1F74B015C01820E931EA41EB51E80911C
:103C50005B0290915C02A0915D02B0915E028816B9
:103C60009906AA06BB0639F0C501B40140E00E94DE
:103C7000641C882399F18F89803149F4F601F07032
:103C8000EE0FFF1FE258F94F518240820DC0F6013E
:103C9000EF77F070EE0FFF1FEE0FFF1FE258F94FA6
:103CA0004082518262827382809180088160809319
:103CB00080088A89823080F08D819E81AF81B885AD
:103CC000880E991EAA1EBB1E8092810890928208BF
:103CD000A0928308B092840881E001C080E0DF9167
:103CE000CF911F910F91FF90EF90DF90CF90BF90F9
:103CF000AF909F908F907F906F905F904F900895BE
:103D0000CF92DF92EF92FF920F931F93CF93DF93A7
:103D1000EC017A018B01690189859A85AB85BC85A7
:103D20000196A11DB11D84179507A607B70708F4D2
:103D300050C02B893C894D895E898F89803129F457
:103D40009927812F702F6F2D09C0C801B701E7E0B7
:103D50009695879577956795EA95D1F7260F371F42
:103D6000481F591F80915B0290915C02A0915D02F7
:103D7000B0915E02281739074A075B0739F0CA017C
:103D8000B90140E00E94641C882319F18F898031B9
:103D900059F4F701F070EE0FFF1FE258F94F8081E0
:103DA0009181A0E0B0E00EC0F701EF77F070EE0F68
:103DB000FF1FEE0FFF1FE258F94F80819181A28112
:103DC000B381BF70F60180839183A283B38381E0C6
:103DD00001C080E0DF91CF911F910F91FF90EF9094
:103DE000DF90CF9008954F925F926F927F928F9263
:103DF0009F92AF92BF92CF92DF92EF92FF920F937A
:103E00001F93DF93CF9300D00F92CDB7DEB76C0135
:103E100049835A836B837C833901EE24FF24870115
:103E20002E010894411C511C812CA2E09A2EA12C39
:103E3000B12C49815A816B817C81C60192010E941B
:103E4000801E882351F1D501C401F601058404C008
:103E5000880F991FAA1FBB1F0A94D2F7E80EF91EFC
:103E60000A1F1B1F29813A814B815C818789803120
:103E700029F088EF9FEFAFEFBFE004C088EF9FEF1E
:103E8000A0E0B0E0281739074A075B0790F2F3017A
:103E9000E082F1820283138381E00F900F900F90F4
:103EA0000F90CF91DF911F910F91FF90EF90DF90D6
:103EB000CF90BF90AF909F908F907F906F905F90CA
:103EC0004F9008952F923F924F925F926F927F9200
:103ED0008F929F92AF92BF92CF92DF92EF92FF921A
:103EE0000F931F93DF93CF93CDB7DEB72F970FB606
:103EF000F894DEBF0FBECDBF1C014A875B876C877D
:103F00007D873F872E87D9010D911D912D913C9181
:103F1000011511052105310549F0480159010894A1
:103F2000811C911CA11CB11C198610C0FC01808051
:103F30009180A280B38019868A859B85AC85BD85DA
:103F40000197A105B10511F491E09987D101199666
:103F50008D919D910D90BC91A02D0196A11DB11D3B
:103F60008D839E83AF83B8877501640144245524F3
:103F700032018E010F5F1F4FF10181859285A3856C
:103F8000B485481659066A067B0608F090C08D81F4
:103F90009E81AF81B8858C159D05AE05BF0550F497
:103FA00082E0882E912CA12CB12CB2E0CB2ED12C0A
:103FB000E12CF12CC101B701A60198010E94801EDD
:103FC000882309F474C089819A81AB81BC81A701DF
:103FD00096012F5F3F4F4F4F5F4F0097A105B105EF
:103FE00019F049015A010DC0281939094A095B091C
:103FF0008A859B85AC85BD85281739074A075B07ED
:1040000059F00894411C511C611C711C0894C11C7E
:10401000D11CE11CF11CB0CFC101A601B7010FEF0B
:104020001FEF2FEF3FE00E94E41D882399F43FC06B
:104030002601370108944108510861087108C1013F
:10404000B301A201970186010E94E41D882379F142
:10405000730162018C149D04AE04BF0448F3AE8565
:10406000BF854D915D916D917C9141155105610523
:10407000710539F0C101950184010E94E41D882376
:10408000B1F0EE85FF8580829182A282B382F985AC
:10409000FF2359F00894811C911CA11CB11CD10173
:1040A0008D929D92AD92BC92139781E001C080E009
:1040B0002F960FB6F894DEBF0FBECDBFCF91DF9124
:1040C0001F910F91FF90EF90DF90CF90BF90AF9036
:1040D0009F908F907F906F905F904F903F902F9028
:1040E0000895882319F48CB5806202C08CB58F7D49
:1040F0008CBD08959CB5937F982B9CBD08952CB5DD
:10410000382F33702C7F322B3CBD2DB590E0959528
:1041100087959595879581702E7F822B8DBD08950B
:1041200084E361E00E94150783E361E00E941507C4
:1041300085E361E00E94150784E360E00E94C80700
:1041400083E360E00E94C80785E361E00E94C8073E
:104150008CB580618CBD8CB580648CBD0895F8945D
:104160000C942021629FD001739FF001829FE00D8B
:10417000F11D649FE00DF11D929FF00D839FF00DE6
:10418000749FF00D659FF00D9927729FB00DE11D92
:10419000F91F639FB00DE11DF91FBD01CF0111246F
:1041A0000895AA1BBB1B51E107C0AA1FBB1FA6177E
:1041B000B70710F0A61BB70B881F991F5A95A9F7D0
:1041C00080959095BC01CD01089597FB092E072697
:1041D0000AD077FD04D0E5DF06D000201AF47095F0
:1041E00061957F4F0895F6F7909581959F4F0895BB
:1041F000A1E21A2EAA1BBB1BFD010DC0AA1FBB1FEB
:10420000EE1FFF1FA217B307E407F50720F0A21B5C
:10421000B30BE40BF50B661F771F881F991F1A94C9
:1042200069F760957095809590959B01AC01BD01F3
:10423000CF010895EE0FFF1F0590F491E02D199422
:04424000F894FFCF20
:10424400417244445275696E6F2100436C69636B1B
:1042540020746F20626567696E00496E69746961D4
:104264006C697A696E6720534420636172642E2EF0
:104274002E006661696C656421004F4B2100446F18
:10428400696E672072617720696E697469616C690F
:104294007A6174696F6E2E2E2E0001FFFFFFFF00FE
:1042A400000000F90A510C8D0ABE0A9E0AE70A00B2
:1042B4000000006E10510C500CFB0DFB0E170FA7E5
:1042C4000E360F6B0FCA10000000006E10510CA0C8
:1042D40011FB0DDE113012A70E9D1282122E130057
:0842E400000000181C510C0041
:00000001FF
